:100000000C945D000C94F1010C94CA010C948500D1
:100010000C9485000C9485000C947A020C94850055
:100020000C9485000C9470020C9485000C9485004F
:100030000C9485000C9485000C9485000C9485002C
:100040000C94F1060C9485000C943E020C9418025A
:100050000C9485000C9485000C9485000C9485000C
:100060000C9485000C9485000000000024002700FB
:100070002A0000000000250028002B0004040404CE
:100080000404040402020202020203030303030342
:10009000010204081020408001020408102001021F
:1000A00004081020000000080002010000030407FB
:1000B0000000000000000000570C11241FBECFEF0D
:1000C000D8E0DEBFCDBF11E0A0E0B1E0E0E4FBE1AD
:1000D00002C005900D92AA3CB107D9F722E0AAEC24
:1000E000B1E001C01D92AC3EB207E1F710E0CDE5F2
:1000F000D0E004C02197FE010E94930DCC35D107BA
:10010000C9F70E943B070C949E0D0C9400000895C3
:10011000CF92DF92EF92FF920F931F93CF93DF93D3
:100120006C017A018B01C0E0D0E0CE15DF0589F0CB
:10013000D8016D918D01D601ED91FC910190F08176
:10014000E02DC6010995892B11F47E0102C021968C
:10015000ECCFC701DF91CF911F910F91FF90EF90EE
:10016000DF90CF900895089580E090E00895FC011D
:10017000538D448D252F30E0842F90E0821B930B0C
:10018000541710F0CF96089501970895FC01918DB2
:10019000828D981761F0828DDF01A80FB11D5D96E9
:1001A0008C91928D9F5F9F73928F90E008958FEF57
:1001B0009FEF0895FC01918D828D981731F0828D0B
:1001C000E80FF11D858D90E008958FEF9FEF089562
:1001D000FC01918D228D892F90E0805C9F4F821BC6
:1001E00091098F73992708958DEC91E00E94E800A2
:1001F00021E0892B09F420E0822F0895FC01848DF1
:10020000DF01A80FB11DA35ABF4F2C91848D90E040
:1002100001968F739927848FA689B7892C93A0891B
:10022000B1898C9180648C93938D848D981306C0D2
:100230000288F389E02D80818F7D80830895EF927D
:10024000FF920F931F93CF93DF93EC0181E0888F90
:100250009B8D8C8D981305C0E889F989808185FD77
:1002600024C0F62E0B8D10E00F5F1F4F0F73112768
:10027000E02E8C8DE8120CC00FB607FCFACFE8898F
:10028000F989808185FFF5CFCE010E94FE00F1CF74
:100290008B8DFE01E80FF11DE35AFF4FF0820B8FAB
:1002A000EA89FB898081806207C0EE89FF896083CB
:1002B000E889F98980818064808381E090E0DF9122
:1002C000CF911F910F91FF90EF900895CF93DF93FF
:1002D000EC01888D8823C9F0EA89FB89808185FD3E
:1002E00005C0A889B9898C9186FD0FC00FB607FC9F
:1002F000F5CF808185FFF2CFA889B9898C9185FFE0
:10030000EDCFCE010E94FE00E7CFDF91CF9108959F
:1003100080E090E0892B29F00E94F40081110C9478
:100320000000089583B78E7F83BFE89887E890E048
:10033000909301018093000181E0809388020895E9
:1003400008950895089508950E94990DCF93DF931D
:10035000EB01E0916F02F091700298818081981317
:1003600004C099818181981791F088819981909337
:100370009D0280939C02688185E090E00E94440D7C
:10038000698186E090E0DF91CF910C94440DDF917C
:10039000CF9108951F920F920FB60F9211242F93B1
:1003A0003F934F935F936F937F938F939F93AF93FD
:1003B000BF93EF93FF93E0910201F0910301099540
:1003C000FF91EF91BF91AF919F918F917F916F912D
:1003D0005F914F913F912F910F900FBE0F901F9003
:1003E00018951F920F920FB60F9211242F933F93DF
:1003F0004F935F936F937F938F939F93AF93BF932D
:10040000EF93FF93E0910001F09101010995FF91B5
:10041000EF91BF91AF919F918F917F916F915F917C
:100420004F913F912F910F900FBE0F901F901895F5
:100430001F920F920FB60F9211242F933F934F9359
:100440005F936F937F938F939F93AF93BF93EF933C
:10045000FF938DEC91E00E94FE00FF91EF91BF9120
:10046000AF919F918F917F916F915F914F913F914C
:100470002F910F900FBE0F901F9018951F920F9203
:100480000FB60F9211242F938F939F93EF93FF93A7
:10049000E091DD01F091DE018081E091E301F091D6
:1004A000E40182FD12C090818091E6018F5F8F731D
:1004B0002091E701821751F0E091E601F0E0E3536B
:1004C000FE4F958F8093E60101C08081FF91EF91EF
:1004D0009F918F912F910F900FBE0F901F901895A5
:1004E0001F920F920FB60F9211240F900FBE0F9014
:1004F0001F9018951F920F920FB60F9211248F9391
:10050000EF93FF93E2E8F2E085818F5F8583FF91AF
:10051000EF918F910F900FBE0F901F9018950C9434
:10052000440D0C943C0D862F842B2A981C99FECFE9
:100530000E94F00580E00E94F0052A9A0895862F17
:100540002A981C99FECF0E94F0052A9A0895CF930D
:10055000DF93EC0164E30E949F0281E08983DF91D5
:10056000CF910895CF93DF931F92CDB7DEB7862F3B
:100570002A981C99FECF49830E94F0054981842F57
:100580000E94F0052A9A0F90DF91CF9108957F92F3
:100590008F929F92AF92BF92CF92DF92EF92FF9293
:1005A0000F931F93CF93DF93CDB7DEB7C258D10916
:1005B0000FB6F894DEBF0FBECDBFFC01E65BFF4F68
:1005C000408157E0F52EF40E3997208124962FAF05
:1005D00024973196208125962FAF2597319620813B
:1005E00050E1259F9001112426962FAF2697209148
:1005F000990227962FAF27973296208128962FAF02
:1006000028973196208129962FAF299731962081FE
:100610002A962FAF2A9762E470E06C0F7D1F685F07
:100620007F4F20E030E03196241758F4A081B1814B
:10063000A20FB31F8C91DB018D93BD012F5F3F4F44
:10064000F3CF01E010E0E2E4F0E0EC0FFD1FE00F7B
:10065000F11F608170E080E090E040E10E94AF0512
:100660000730110539F083EC91E00E94AD050F5F72
:100670001F4FE9CF83EB91E00E949F0583E0E82EB6
:1006800091E4792E22E0922E3BECA32E37E0B32E9C
:100690006E01B2E0CB0ED11C882483942396FFAE6A
:1006A0002397FE01EE5BFF4FDE011196872D01902F
:1006B0000D928A95E1F790928D028CE892E00E946B
:1006C000A70200E010E00F5F1F4F093EE3E01E07A6
:1006D00071F140EC65E38CE892E00E949302982F60
:1006E0009F719D3009F06DC02EC02A9A65E38CE899
:1006F00092E00E949F0290928D0240EC65E38CE8AC
:1007000092E00E9493028F7183518330D0F166E3AF
:100710008CE892E00E949F026BE38CE892E00E94DA
:100720009F028CE892E00E94A70280928D02EA94D8
:10073000EE2039F062E370E080E090E00E94B706BE
:10074000ADCF80E047C0083E134089F3C501019753
:10075000F1F74F2D6FE38CE892E00E94B2022A98E5
:100760001C99FECF8FE70E94F0058601802F8C191F
:100770008F1508F0BACFD8018D918D010E94F00538
:10078000F5CF4A9BFECF4A99FECF40EC6AE38CE856
:1007900092E00E949302182F66E38CE892E00E9498
:1007A0009F026BE38CE892E00E949F028CE892E04B
:1007B0000E94A70280928D021F7709F0B8CF81E0D6
:1007C00009C0813109F07FCF6AE38CE892E00E9492
:1007D0009F0279CF909199029F5F90939902CE5793
:1007E000DF4F0FB6F894DEBF0FBECDBFDF91CF91C4
:1007F0001F910F91FF90EF90DF90CF90BF90AF903F
:100800009F908F907F9008951F93CF93DF93EC017B
:10081000162F613079F06230D1F440E16DE00E9432
:10082000B2024D814F546EE0CE010E94B2024E8161
:100830004A5719C042E26DE00E94B2024D814F5406
:100840006EE0CE010E94B2024E81455C0CC041E2D6
:100850006DE00E94B2024D814E596EE0CE010E94C1
:10086000B2024E814A586FE0CE010E94B2021C8350
:10087000DF91CF911F9108950F931F93CF93DF9333
:10088000FC0127812617A1F0D42FC62F8C01462FFB
:100890006AE00E94B202F801C783DD2349F06C2FA1
:1008A00080E090E0DF91CF911F910F910C948F0227
:1008B000DF91CF911F910F9108950F931F93CF93C5
:1008C000DF93CDB7DEB7CB54D1090FB6F894DEBFB6
:1008D0000FBECDBFE091A502F091A602DB019C9175
:1008E0008081981709F443C08B019091A702209151
:1008F000A40223961FAE23978091960224968FAF71
:10090000249725961FAE259727961FAE27972896E2
:100910008FAF289729962FAF29972C969FAF2C97AA
:100920002B967FAF6EAF2B97CE0101960E94C70228
:1009300041E0F80160818CE892E00E943C04109252
:100940009B020FB6F894A89580916000886180930F
:100950006000109260000FBE98E088E10FB6F89436
:10096000A895809360000FBE90936000FFCFC55B99
:10097000DF4F0FB6F894DEBF0FBECDBFDF91CF9132
:100980001F910F910895FF920F931F93CF93DF93C1
:10099000EC018885861303C08985841701F1F22E46
:1009A000142F062F462F64E0CE010E94B202412F81
:1009B00065E0CE010E94B20208871987FF2079F016
:1009C000602F82E090E00E948F02612F83E090E030
:1009D000DF91CF911F910F91FF900C948F02DF91C7
:1009E000CF911F910F91FF9008950F931F93CF9375
:1009F000DF93CDB7DEB7CB54D1090FB6F894DEBF85
:100A00000FBECDBFE0917F02F0918002DB019C918F
:100A10008081981305C011969C918181981761F18E
:100A20008B019091810220917E0223961FAE239725
:100A30008091960224968FAF249725961FAE259716
:100A400027961FAE279728968FAF289729962FAF06
:100A500029972C969FAF2C972B967FAF6EAF2B9735
:100A6000CE0101960E94C70221E0F8014181608118
:100A70008CE892E00E94C304C55BDF4F0FB6F89488
:100A8000DEBF0FBECDBFDF91CF911F910F910895B3
:100A9000CF93FB01C081CC23C9F0E0917702F091A4
:100AA00078028081C81791F0809196028C1771F0BE
:100AB0004C2F69E08CE892E00E94B202C09396024B
:100AC0006C2F84E090E0CF910C948F02CF91089529
:100AD0003FB7F8948091AD029091AE02A091AF0221
:100AE000B091B00226B5A89B05C02F3F19F0019622
:100AF000A11DB11D3FBFBA2FA92F982F8827820FA4
:100B0000911DA11DB11DBC01CD0142E0660F771FF3
:100B1000881F991F4A95D1F70895009769F0FC0145
:100B200001900020E9F73197AF01481B590BBC0138
:100B30008DEC91E00C94880080E090E00895CF93D4
:100B4000DF930E948D05EC018FE491E00E948D05FA
:100B50008C0F9D1FDF91CF9108950C948D058F927E
:100B60009F92AF92BF920F931F93CF93DF93CDB716
:100B7000DEB7A1970FB6F894DEBF0FBECDBF19A2A6
:100B8000423008F44AE08E010F5D1F4F842E912CF5
:100B9000A12CB12CA50194010E94520DE62FB901A0
:100BA000CA0101501109EA3014F4E05D01C0E95CAA
:100BB000D801EC93232B242B252B61F7C8010E942D
:100BC0008D05A1960FB6F894DEBF0FBECDBFDF91A5
:100BD000CF911F910F91BF90AF909F908F900895EC
:100BE0008EBD0DB407FEFDCF8EB5089522E931E02C
:100BF0003093010120930001E9E6F0E090819C7FB1
:100C0000892B8083E89A0895CF93DF938DEB91E051
:100C10000E94AD05C2E8D2E0698970E080E090E012
:100C20004AE00E94AF0581EC91E00E94AD056F851E
:100C300070E080E090E040E10E94AF0585EC91E03B
:100C40000E94AD05688970E080E090E040E10E947C
:100C5000AF058FE491E0DF91CF910C948D0590E08A
:100C6000FC01EC55FF4F3491FC01E057FF4F2491FC
:100C7000FC01E458FF4FE491EE2309F43BC0332319
:100C800039F1333091F038F43130A9F0323001F5D8
:100C900084B58F7D12C0373091F03830A1F03430F8
:100CA000B9F4809180008F7D03C0809180008F77A0
:100CB000809380000DC084B58F7784BD09C080917A
:100CC000B0008F7703C08091B0008F7D8093B0001B
:100CD000F0E0EE0FFF1FEE58FF4FA591B4918FB7D4
:100CE000F894EC91611103C020952E2301C02E2BA6
:100CF0002C938FBF0895CF93DF9390E0FC01E057D2
:100D0000FF4F2491FC01E458FF4F8491882361F147
:100D100090E0880F991FFC01E859FF4FC591D491CD
:100D2000FC01EE58FF4FA591B491611109C09FB726
:100D3000F8948881209582238883EC912E230BC020
:100D4000623061F49FB7F8943881822F80958323B5
:100D50008883EC912E2B2C939FBF06C08FB7F894FD
:100D6000E8812E2B28838FBFDF91CF9108958F923A
:100D70009F92AF92BF92CF92DF92EF92FF926B0160
:100D80007C010E9468054B015C01C114D104E1049F
:100D9000F104F1F00E946805DC01CB018819990982
:100DA000AA09BB09883E9340A105B10570F321E073
:100DB000C21AD108E108F10888EE880E83E0981E77
:100DC000A11CB11CC114D104E104F10419F7DDCF59
:100DD000FF90EF90DF90CF90BF90AF909F908F905B
:100DE00008951F920F920FB60F9211242F933F93E5
:100DF0008F939F93AF93BF938091A9029091AA0282
:100E0000A091AB02B091AC023091A80223E0230F75
:100E10002D3720F40196A11DB11D05C026E8230F32
:100E20000296A11DB11D2093A8028093A902909360
:100E3000AA02A093AB02B093AC028091AD02909154
:100E4000AE02A091AF02B091B0020196A11DB11DFA
:100E50008093AD029093AE02A093AF02B093B00224
:100E6000BF91AF919F918F913F912F910F900FBEA6
:100E70000F901F901895CF93DF93CDB7DEB7CC546A
:100E8000D1090FB6F894DEBF0FBECDBF789484B5FC
:100E9000826084BD84B5816084BD85B5826085BD76
:100EA00085B5816085BD80916E00816080936E0004
:100EB00010928100809181008260809381008091F6
:100EC00081008160809381008091800081608093A7
:100ED00080008091B10084608093B1008091B00067
:100EE00081608093B00080917A00846080937A0062
:100EF00080917A00826080937A0080917A0081608C
:100F000080937A0080917A00806880937A001092B2
:100F1000C100E091DD01F091DE0182E08083E0918B
:100F2000DD01F091DE011082E091D901F091DA014A
:100F30001082E091DB01F091DC0180E1808310926E
:100F4000E501E091E101F091E20186E08083E0912A
:100F5000DF01F091E001808180618083E091DF0119
:100F6000F091E001808188608083E091DF01F09161
:100F7000E001808180688083E091DF01F091E001F1
:100F800080818F7D808361E084E00E947B0660E049
:100F900084E00E942F0661E084E00E942F066EE14B
:100FA00070E080E090E00E94B70660E084E00E947C
:100FB0002F0664E170E080E090E00E94B70661E0F7
:100FC00084E00E942F066EE170E080E090E00E94D5
:100FD000B70660E084E00E942F0664E170E080E0E4
:100FE00090E00E94B706E091660020918000309169
:100FF00081008FE38093660010926F001092700062
:1010000080E28093B600109280001092B00081E0E0
:101010008093B10080938100B09A10928500109265
:10102000840080E444E650E060E070E0F1E081504C
:10103000A9F1B89A1092B2009091B600937191F014
:10104000B09BFACFB09A1092850010928400415064
:1010500051096109710981F71092B600E0936600A9
:1010600080E02DC0F09381001092850010928400E2
:10107000B89BFECF10928100A0918400B0918500B2
:10108000A735B44F20F090916600915015C0A09103
:101090008400B0918500A23FB34F58F01092B60083
:1010A000B89A1092B200209380003093810081E0C2
:1010B00006C0909166009F5F90936600B8CF8093C2
:1010C0008B0261E08AE00E942F0661E08AE00E94C4
:1010D0007B0661E08BE00E947B0660E08CE00E9472
:1010E0007B0661E08DE00E947B0661E08DE00E945E
:1010F0002F0660E08BE00E942F0681E58CBD60E04A
:1011000082E00E947B062A9A8FE090E00197F1F737
:101110002A9883E290E00197F1F72A9A8FE990E00C
:101120000197F1F72A981C99FECF80E30E94F00501
:101130001C99FECF2A9A49E260E08CE892E00E9476
:10114000B2024EE261E08CE892E00E94B20246E018
:1011500062E08CE892E00E94B20247E063E08CE833
:1011600092E00E94B2024FEF66E08CE892E00E94AB
:10117000B20246E067E08CE892E00E94B20245E0ED
:1011800068E08CE892E00E94B20220E047E465EB60
:101190008CE892E00E94C304809196028F3F49F050
:1011A0004FEF69E08CE892E00E94B2028FEF8093EB
:1011B000960240E060E08CE892E00E943C0448E047
:1011C0006BE08CE892E00E94B20240E06CE08CE8B8
:1011D00092E00E94B20260E08CE892E00E94040477
:1011E0004AEC60E18CE892E00E94B20243E861E1DF
:1011F0008CE892E00E94B20243E962E18CE892E05E
:101200000E94B20242E263E18CE892E00E94B202E4
:1012100048EF64E18CE892E00E94B20245E365E1A8
:101220008CE892E00E94B20247E066E18CE892E02E
:101230000E94B20240E267E18CE892E00E94B202B2
:1012400048E168E18CE892E00E94B20246E169E17F
:101250008CE892E00E94B2024CE66AE18CE892E0EF
:101260000E94B20243E46BE18CE892E00E94B20279
:1012700040E46CE18CE892E00E94B20241E96DE149
:101280008CE892E00E94B20247E86EE18CE892E0BE
:101290000E94B2024BE66FE18CE892E00E94B2023B
:1012A0004BEF60E28CE892E00E94B20246E561E218
:1012B0008CE892E00E94B20240E162E28CE892E0A7
:1012C0000E94B20249EE63E28CE892E00E94B20210
:1012D0004AE264E28CE892E00E94B20240E065E2F9
:1012E0008CE892E00E94B2024FE166E28CE892E064
:1012F0000E94B20241E467E28CE892E00E94B202EE
:1013000040E068E28CE892E00E94B20249E569E2BE
:101310008CE892E00E94B2024FE76AE28CE892E029
:101320000E94B2024FE36BE28CE892E00E94B202AC
:1013300041E86CE28CE892E00E94B20245E36DE283
:101340008CE892E00E94B20249E06EE28CE892E002
:101350000E94B20286E090E00E9491028093910286
:1013600087E090E00E9491028093920280E090E0FA
:101370000E9491028A3030F440E0682F8CE892E0BD
:101380000E943C0482E090E00E949102682F83E07A
:1013900090E02D966FAF2D970E9491022D966FAD24
:1013A0002D979FEF960F9E3F20F09FEF980F9E3F47
:1013B00030F420E0482F8CE892E00E94C30484E0DF
:1013C00090E00E949102182F882361F0809196028C
:1013D000811741F0412F69E08CE892E00E94B2024F
:1013E0001093960240918E026EE38CE892E00E9488
:1013F000B202809192028F3FE1F4809191028F3F7F
:10140000C1F486E291E00E94AD0510929102109223
:10141000920260E086E090E00E948F0260E087E048
:1014200090E00E948F02609190028CE892E00E940E
:10143000040421E047E465EB8CE892E00E94C304D9
:10144000809196028F3F49F04FEF69E08CE892E07F
:101450000E94B2028FEF8093960262E08CE892E0E5
:101460000E94040444E067E08CE892E00E94B2022B
:1014700085E090E00E943C0D80939C0286E090E025
:101480000E943C0D80939D0283EC90E00197F1F760
:101490008CE892E00E94A70282E090E00E94F605AC
:1014A0001092990210929A0283E080939B028FE33C
:1014B00091E00E94AD0540EC60E38CE892E00E9470
:1014C0009302682F70E080E090E04AE00E94AF0550
:1014D0008FE491E00E948D0582E591E00E94AD05C8
:1014E00040EC61E38CE892E00E949302682F70E088
:1014F00080E090E04AE00E94AF058FE491E00E9416
:101500008D0582E691E00E94AD0540EC65E38CE834
:1015100092E00E9493028F71682F70E080E090E06B
:101520004AE00E94AF058FE491E00E948D0584E7B8
:1015300091E00E949F0584EB482E8BE2582E81E1BA
:10154000682E712C7E01E2E0EE0EF11C8091870284
:101550008A3008F447C0109287028CE791E00E941D
:10156000AD058EE480937C0062E070E080E090E066
:101570000E94B70680917A00806480937A008091FF
:101580007A0086FDFCCF209178008091790030E0D0
:10159000382B032E000C440B550BC301B2010E94E3
:1015A000740D2430F0E13F074105510554F08AE8FD
:1015B00091E00E94AD0586E991E00E949F0560E000
:1015C0000EC02D3A3D404105510564F48AE891E092
:1015D0000E94AD058AE991E00E949F0561E080E1EB
:1015E0000E942F068DEC91E00E94E8001816190663
:1015F0000CF0A2C08DEC91E00E94C6008B329105E8
:1016000021F4809191028F5F06C08D32910549F4DB
:101610008091910281508093910281E08093CB016F
:1016200068C08633910521F4809192028F5F06C0D5
:101630008433910531F4809192028150809392021B
:10164000ECCF8833910521F4609193026F5F06C05F
:101650008233910561F460919302615041E08CE81E
:1016600092E00E943C0481E08093CA0142C083372B
:10167000910561F58DE991E00E949F0523961FAECB
:1016800023978091960224968FAF249725961FAEBC
:10169000259781E027968FAF279728961FAE28972A
:1016A00085E029968FAF29972B961FAE1EAE2B97FC
:1016B0002C961FAE2C97CE0101960E94C70288235C
:1016C000C1F082EA91E00E949F0513C08137910525
:1016D00021F481E0809385020CC08737910519F4CD
:1016E0001092850206C08434910519F481E080933C
:1016F00086028091CA01882321F01092CA010E94BB
:1017000004068091CB018823B9F010919202609178
:10171000910286E090E00E948F02612F87E090E0C6
:101720000E948F02609190028CE892E00E94040473
:101730001092CB010E94040680918802882309F44C
:101740007CC087EA91E00E94AD051092880262E0B9
:1017500070E080E090E00E94B70640EC6BE38CE81C
:1017600092E00E949302982F9F7781F187FD2EC00F
:1017700040E86FE38CE892E00E949302082F8E33DA
:1017800028F52A981C99FECF8FEF0E94F00567017B
:101790008C2D8E19801738F480E00E94F005F60138
:1017A00081936F01F5CF2A9A40E86FE38CE892E0CD
:1017B0000E94930240E86FE38CE892E00E9493025B
:1017C000982F991F9927991F992E01C000E066E371
:1017D0008CE892E00E949F026AE38CE892E00E940B
:1017E0009F028CE892E00E94A702002311F1911061
:1017F00004C089EA91E00E949F05809186028823B7
:10180000E1F081EB91E00E94AD055701C12CD12C94
:1018100010E0C016D1068CF4F50161915F0170E013
:1018200080E090E040E10E94AF05FFEFCF1ADF0AB1
:10183000F0CF85EB91E00E949F058091CC01882339
:1018400041F06CE271E080E090E00E94B7061092F7
:10185000CC0182E090E00E94F60580918502882309
:1018600019F18091600088618093600086E0809328
:1018700060008091600080648093600083B7816025
:1018800083BF81E090E00E94F60583B7817F84608A
:1018900083BFF89485B7806685BF8F7D85BF7894B8
:1018A000889583B78E7F83BF0E9488014FCEEDEC71
:1018B000F1E01382128288EE93E0A0E0B0E084832E
:1018C0009583A683B78388E191E09183808385EC3B
:1018D00090E09587848784EC90E09787868780ECFA
:1018E00090E0918B808B81EC90E0938B828B82ECEB
:1018F00090E0958B848B86EC90E0978B868B118E95
:10190000128E138E148EE2E8F2E088EC8487158E36
:10191000148E108617821682138215821282148208
:10192000E4EEF2E011821082138212828091E302CF
:1019300084832CE031E03683258398E09783EBEDB8
:10194000F2E0118210821382128291E0980F948348
:1019500028E031E03683258394E09783E3EDF2E0DD
:10196000118210821382128222E0280F248324E045
:1019700031E0368325839783E0EAF2E0118210821A
:101980002DE534E03383228393E0980F948323E999
:1019900032E03683258321E02783EAE7F2E01182F3
:1019A000108245EF54E05383428394E0980F948370
:1019B00044E952E05683458392E09783E2E7F2E000
:1019C0001182108248E455E05383428335E0380F9A
:1019D000348346E952E0568345832783EAE6F2E002
:1019E0001182108226EA31E03383228326E0280F19
:1019F00024832CE932E0368325839783EBECF2E0F5
:101A000023EA31E0318320831382128227E0280FFA
:101A1000248329EC32E0368325839783E1ECF2E0DE
:101A200042EA51E0518340831382128248E0480F1A
:101A30004483368325839783E9EBF2E041EA51E062
:101A4000518340831382128249E0480F44833683D6
:101A500025839783E1EBF2E040EA51E05183408334
:101A6000138212824BE0480F4093E302865F848327
:101A70003683258397830895F999FECF92BD81BD62
:101A8000F89A992780B50895262FF999FECF1FBAA5
:101A900092BD81BD20BD0FB6F894FA9AF99A0FBE97
:101AA00001960895A1E21A2EAA1BBB1BFD010DC0D1
:101AB000AA1FBB1FEE1FFF1FA217B307E407F507FE
:101AC00020F0A21BB30BE40BF50B661F771F881FDA
:101AD000991F1A9469F760957095809590959B0170
:101AE000AC01BD01CF010895052E97FB1EF40094B3
:101AF0000E948B0D57FD07D00E94520D07FC03D0AA
:101B00004EF40C948B0D50954095309521953F4F98
:101B10004F4F5F4F089590958095709561957F4FD9
:101B20008F4F9F4F0895EE0FFF1F0590F491E02D0A
:101B3000099481E090E0F8940C949E0DF894FFCF06
:101B40008700870000000101000002000000000182
:101B500000000001000000001F018800B7006601BE
:101B6000E800C600DA00526573657474696E672018
:101B700066726571207265677320746F2030004350
:101B800043313130315F504152544E554D20000D9C
:101B90000A004343313130315F56455253494F4E6D
:101BA00020004343313130315F4D41524353544162
:101BB000544520004E6F206164647200436B2062C4
:101BC000617474207374617465004220434841520B
:101BD00047494E4720004F4646004F4E0050696E21
:101BE000670053656E740021006372632065727232
:101BF00000443A20004E6F20646174610043682005
:0A1C000000204D3A00206D3A00006C
:00000001FF
