:100000000C949F000C9481020C945A020C94C7002B
:100010000C94C7000C94C7000C940A030C94C700FE
:100020000C94C7000C9400030C94C7000C94C700F8
:100030000C94C7000C94C7000C94C7000C94C70024
:100040000C9491080C94C7000C94CE020C94A80256
:100050000C94C7000C94C7000C94C7000C94C70004
:100060000C94C7000C94C7007265205265737461CC
:1000700072740D0A73612053657420726164696F34
:1000800020616464726573730D0A66732052657330
:10009000657420656570726F6D20746F2066616392
:1000A000746F72792073657474696E67730D0A6476
:1000B0006420456E61626C65206465627567206FBF
:1000C00075747075740D0A70692050696E670D0A39
:1000D00073742044756D70207374617475730D0AA8
:1000E0003F3F2048454C500D0A0D0A00000000001B
:1000F000240027002A0000000000250028002B0013
:1001000004040404040404040202020202020303BD
:1001100003030303010204081020408001020408C5
:100120001020010204081020000000080002010055
:100130000003040700000000000000008C0E1124E2
:100140001FBECFEFD8E0DEBFCDBF23E0A8E4B2E012
:1001500001C01D92A43DB207E1F712E0A0E0B1E0BA
:10016000E6EDF2E202C005900D92A834B107D9F78E
:1001700010E0CFE9D0E004C02197FE010E945E119B
:10018000CE39D107C9F70E94DB080C9469110C9491
:1001900000000895CF92DF92EF92FF920F931F938A
:1001A000CF93DF936C017A018B01C0E0D0E0CE15D4
:1001B000DF0589F0D8016D918D01D601ED91FC919B
:1001C0000190F081E02DC6010995892B11F47E0183
:1001D00002C02196ECCFC701DF91CF911F910F9103
:1001E000FF90EF90DF90CF900895089580E090E029
:1001F0000895FC01538D448D252F30E0842F90E02D
:10020000821B930B541710F0CF9608950197089511
:10021000FC01918D828D981761F0828DDF01A80F0E
:10022000B11D5D968C91928D9F5F9F73928F90E030
:1002300008958FEF9FEF0895FC01918D828D98179F
:1002400031F0828DE80FF11D858D90E008958FEFDC
:100250009FEF0895FC01918D228D892F90E0805CA5
:100260009F4F821B91098F739927089583EB92E02A
:100270000E942A0121E0892B09F420E0822F0895B1
:10028000FC01848DDF01A80FB11DA35ABF4F2C9133
:10029000848D90E001968F739927848FA689B78902
:1002A0002C93A089B1898C9180648C93938D848DDB
:1002B000981306C00288F389E02D80818F7D8083AA
:1002C0000895EF92FF920F931F93CF93DF93EC016A
:1002D00081E0888F9B8D8C8D981305C0E889F98902
:1002E000808185FD24C0F62E0B8D10E00F5F1F4F1F
:1002F0000F731127E02E8C8DE8120CC00FB607FC8F
:10030000FACFE889F989808185FFF5CFCE010E9477
:100310004001F1CF8B8DFE01E80FF11DE35AFF4F35
:10032000F0820B8FEA89FB898081806207C0EE89A9
:10033000FF896083E889F98980818064808381E016
:1003400090E0DF91CF911F910F91FF90EF90089572
:10035000CF93DF93EC01888D8823C9F0EA89FB896C
:10036000808185FD05C0A889B9898C9186FD0FC063
:100370000FB607FCF5CF808185FFF2CFA889B98938
:100380008C9185FFEDCFCE010E944001E7CFDF9138
:10039000CF91089580E090E0892B29F00E943601EA
:1003A00081110C940000089583B78E7F83BFE89875
:1003B00089EC90E0909301018093000181E08093AB
:1003C0008E03089508950895089508950E94641174
:1003D00081EE91E00E94EA06E0E0F0E009940895E1
:1003E0000C94AE1088EE91E00E94EA0665EB82E084
:1003F00090E00E94F00167E483E090E00E94F00149
:100400006FEF84E090E00E94F00160E080E090E017
:100410000E94F0016FEF85E090E00E94F0016FEF25
:1004200086E090E00E94F001E0E0F0E00994089599
:10043000CF93DF93EB01E0917503F0917603988100
:100440008081981304C099818181981791F08881E7
:1004500099819093A3038093A203688185E090E043
:100460000E94AE10698186E090E0DF91CF910C94FC
:10047000AE10DF91CF91089587EF91E00E94F806CA
:10048000E8E8F3E0948181E08927848390E00C948C
:100490009E071F93CF93DF93C8E6D0E0FE0114912F
:1004A000812F0E94930721961111F8CFDF91CF91F0
:1004B0001F9108951F920F920FB60F9211242F9340
:1004C0003F934F935F936F937F938F939F93AF93DC
:1004D000BF93EF93FF93E0910201F091030109951F
:1004E000FF91EF91BF91AF919F918F917F916F910C
:1004F0005F914F913F912F910F900FBE0F901F90E2
:1005000018951F920F920FB60F9211242F933F93BD
:100510004F935F936F937F938F939F93AF93BF930B
:10052000EF93FF93E0910001F09101010995FF9194
:10053000EF91BF91AF919F918F917F916F915F915B
:100540004F913F912F910F900FBE0F901F901895D4
:100550001F920F920FB60F9211242F933F934F9338
:100560005F936F937F938F939F93AF93BF93EF931B
:10057000FF9383EB92E00E944001FF91EF91BF91C6
:10058000AF919F918F917F916F915F914F913F912B
:100590002F910F900FBE0F901F9018951F920F92E2
:1005A0000FB60F9211242F938F939F93EF93FF9386
:1005B000E091C302F091C4028081E091C902F09100
:1005C000CA0282FD12C090818091CC028F5F8F732E
:1005D0002091CD02821751F0E091CC02F0E0ED5471
:1005E000FD4F958F8093CC0201C08081FF91EF91E8
:1005F0009F918F912F910F900FBE0F901F90189584
:100600001F920F920FB60F9211240F900FBE0F90F2
:100610001F9018951F920F920FB60F9211248F936F
:10062000EF93FF93E8E8F3E085818F5F8583FF9187
:10063000EF918F910F900FBE0F901F9018950C9413
:10064000A610862F842B2A981C99FECF0E943B0768
:1006500080E00E943B072A9A08958CEF91E00E9467
:10066000F80640EC65E382E993E00E9421038F7174
:1006700090E00E949E0788E092E00E94F80640EC1D
:1006800064E382E993E00E942103682F87FD60956F
:100690006695665B70E080E090E04AE00E94FA06B2
:1006A0008EE092E00E94F80640EC63E382E993E07A
:1006B0000E9421038095682F6F7370E080E090E0C6
:1006C0004AE00E94FA0684E192E00E94F80640ECBB
:1006D00068E382E993E00E942103682F70E080E0E4
:1006E00090E042E00E94FA068BE991E00C94D80673
:1006F000862F2A981C99FECF0E943B072A9A0895BC
:10070000CF93DF93EC0164E30E94780381E0898357
:10071000DF91CF910895CF93DF931F92CDB7DEB7CE
:10072000862F2A981C99FECF49830E943B07498156
:10073000842F0E943B072A9A0F90DF91CF91089552
:100740003F924F925F926F927F928F929F92AF9261
:10075000BF92CF92DF92EF92FF920F931F93CF93AE
:10076000DF93CDB7DEB7C258D1090FB6F894DEBF1C
:100770000FBECDBFFC01E65BFF4F408117E0140FB9
:100780003997208124962FAF249731962081259682
:100790002FAF25973196208150E1259F900111249C
:1007A00026962FAF269720919F0327962FAF279746
:1007B0003296208128962FAF28973196208129964E
:1007C0002FAF2997319620812A962FAF2A9762E47E
:1007D00070E06C0F7D1F685F7F4F20E030E0319646
:1007E000241758F4A081B181A20FB31F8C91DB01B3
:1007F0008D93BD012F5F3F4FF3CF03E081E4382E8F
:1008000092E0592E2BECA22E27E0B22E6E01B2E020
:10081000CB0ED11C812E912C4424439423961FAFE0
:100820002397FE01EE5BFF4FDE011196832D0190B1
:100830000D928A95E1F75092930382E993E00E942A
:100840008003E12CF12CEFEFEE1AFE0AF9EEEF1621
:10085000F3E0FF0679F140EC65E382E993E00E9462
:100860002103982F9F719D3009F08EC02EC02A9AC7
:1008700065E382E993E00E9478035092930340EC91
:1008800065E382E993E00E9421038F7183518330F5
:1008900008F459C066E382E993E00E9478036BE3B1
:1008A00082E993E00E94780382E993E00E9480034A
:1008B00040929303015039F062E370E080E090E0F1
:1008C0000E945708ABCF80E068C0F8EEEF16F3E067
:1008D000FF0681F3C5010197F1F73601E12CF12CF8
:1008E000E814F904A4F4E114F10421F087ED91E097
:1008F0000E94F806D3016D913D0170E080E090E028
:1009000040E10E94FA06BFEFEB1AFB0AE9CF87EC41
:1009100091E00E94EA06412F6FE382E993E00E9492
:100920008B032A981C99FECF8FE70E943B07760124
:100930008E2D8C19811708F09ACFF70181917F01D4
:100940000E943B07F5CF4A9BFECF4A99FECF40EC71
:100950006AE382E993E00E942103F82E66E382E9CC
:1009600093E00E9478036BE382E993E00E947803AE
:1009700082E993E00E948003409293038F2D8F774A
:1009800009F098CF81E009C0813109F05CCF6AE3BA
:1009900082E993E00E94780356CF90919F039F5F76
:1009A00090939F03CE57DF4F0FB6F894DEBF0FBE74
:1009B000CDBFDF91CF911F910F91FF90EF90DF900E
:1009C000CF90BF90AF909F908F907F906F905F90EF
:1009D0004F903F900895CF93DF93CDB7DEB7CB54C0
:1009E000D1090FB6F894DEBF0FBECDBFFC019781D1
:1009F00025813681448123961FAE239780919C03E5
:100A000024968FAF249725961FAE259727961FAE65
:100A1000279728968FAF289729964FAF29972C961E
:100A20009FAF2C972B963FAF2EAF2B97CE01019601
:100A30000E94A003C55BDF4F0FB6F894DEBF0FBE68
:100A4000CDBFDF91CF910895CF93DF93CDB7DEB7C0
:100A5000CB54D1090FB6F894DEBF0FBECDBF8DE1E8
:100A600092E00E94EA0623961FAE239780919C0392
:100A700024968FAF249725961FAE259781E0279661
:100A80008FAF279728961FAE289785E029968FAFBE
:100A900029972B961FAE1EAE2B972C961FAE2C9728
:100AA000CE0101960E94A003882321F082E292E009
:100AB0000E94EA06C55BDF4F0FB6F894DEBF0FBE9B
:100AC000CDBFDF91CF9108950F931F93CF93DF9305
:100AD000FC0122852617A1F0D42FC62F8C01462FAA
:100AE00069E00E948B03F801C287DD2349F06C2F77
:100AF00084E090E0DF91CF911F910F910C94AE10A4
:100B0000DF91CF911F910F910895FB0160816623C2
:100B100061F0E0917D03F0917E038081681729F0F8
:100B200041E082E993E00C946405089580914802C5
:100B3000909149028F3F910529F020F087E292E0E1
:100B40000C94EA0684E392E00E94F8066091480261
:100B50007091490280E090E04AE00E94FA068BE939
:100B600091E00E94D806609148027091490241E0EC
:100B700082E993E00C946405FF920F931F93CF9347
:100B8000DF93EC018885861303C08985841701F102
:100B9000F22E142F062F462F64E0CE010E948B0305
:100BA000412F65E0CE010E948B0308871987FF2043
:100BB00079F0602F82E090E00E94AE10612F83E018
:100BC00090E0DF91CF911F910F91FF900C94AE10A8
:100BD000DF91CF911F910F91FF9008950F931F9375
:100BE000CF93DF93CDB7DEB7CB54D1090FB6F894CE
:100BF000DEBF0FBECDBFE0918503F0918603DB0120
:100C00009C918081981305C011969C9181819817C1
:100C100061F18B01909187032091840323961FAE8D
:100C2000239780919C0324968FAF249725961FAE1F
:100C3000259727961FAE279728968FAF2897299636
:100C40002FAF29972C969FAF2C972B967FAF6EAF27
:100C50002B97CE0101960E94A00321E0F80141816B
:100C6000608182E993E00E94BC05C55BDF4F0FB64F
:100C7000F894DEBF0FBECDBFDF91CF911F910F91D2
:100C800008950F931F93CF93DF93CDB7DEB7CB5467
:100C9000D1090FB6F894DEBF0FBECDBFE091AB0314
:100CA000F091AC03DB019C918081981709F44FC04F
:100CB0008B019091AD032091AA0323961FAE239739
:100CC00080919C0324968FAF249725961FAE25977D
:100CD00027961FAE279728968FAF289729962FAF74
:100CE00029972C969FAF2C972B967FAF6EAF2B97A3
:100CF000CE0101960E94A003F80110818091990312
:100D0000811769F0412F6AE082E993E00E948B032A
:100D100010939903612F80E090E00E94AE10109232
:100D2000A1030FB6F894A895809160008861809324
:100D30006000109260000FBE98E088E10FB6F89452
:100D4000A895809360000FBE90936000FFCFC55BB5
:100D5000DF4F0FB6F894DEBF0FBECDBFDF91CF914E
:100D60001F910F9108953FB7F8948091CB03909114
:100D7000CC03A091CD03B091CE0326B5A89B05C0AE
:100D80002F3F19F00196A11DB11D3FBFBA2FA92F0A
:100D9000982F8827820F911DA11DB11DBC01CD0187
:100DA00042E0660F771F881F991F4A95D1F7089573
:100DB000009769F0FC0101900020E9F73197AF013D
:100DC000481B590BBC0183EB92E00C94CA0080E0F5
:100DD00090E00895CF93DF930E94D806EC018BE951
:100DE00091E00E94D8068C0F9D1FDF91CF9108954E
:100DF0000C94D8068F929F92AF92BF920F931F933D
:100E0000CF93DF93CDB7DEB7A1970FB6F894DEBFCF
:100E10000FBECDBF19A2423008F44AE08E010F5D2B
:100E20001F4F842E912CA12CB12CA50194010E945E
:100E3000CC10E62FB901CA0101501109EA3014F4AF
:100E4000E05D01C0E95CD801EC93232B242B252B1A
:100E500061F7C8010E94D806A1960FB6F894DEBFCC
:100E60000FBECDBFDF91CF911F910F91BF90AF907B
:100E70009F908F9008958EBD0DB407FEFDCF8EB567
:100E8000089524ED31E03093010120930001E9E65B
:100E9000F0E090819C7F892B8083E89A0895CF931E
:100EA000C82F8130A1F0823021F540E16DE082E968
:100EB00093E00E948B03409197034F546EE082E9C8
:100EC00093E00E948B03409198034A5723C042E26B
:100ED0006DE082E993E00E948B03409197034F54A9
:100EE0006EE082E993E00E948B0340919803455C99
:100EF00011C041E26DE082E993E00E948B034091D2
:100F000097034E596EE082E993E00E948B03409173
:100F100098034A586FE082E993E00E948B03C093E4
:100F20009603CF910895E091B302F091B40201903D
:100F3000F081E02D682F83EB92E00994CF92DF924D
:100F4000EF92FF92CF93DF936C01990FEE08FF08A9
:100F5000F7FE12C08DE20E949307EC016627772707
:100F6000CB016C197D098E099F094AE00E94FA069F
:100F70007C01EC0EFD1E06C04AE0C701B6010E94CE
:100F8000FA067C018BE991E00E94D8068E0D9F1D28
:100F9000DF91CF91FF90EF90DF90CF90089590E098
:100FA000FC01E85DFE4F3491FC01EC5EFE4F2491A4
:100FB000FC01E050FF4FE491EE2309F43BC03323E2
:100FC00039F1333091F038F43130A9F0323001F595
:100FD00084B58F7D12C0373091F03830A1F03430B5
:100FE000B9F4809180008F7D03C0809180008F775D
:100FF000809380000DC084B58F7784BD09C0809137
:10100000B0008F7703C08091B0008F7D8093B000D7
:10101000F0E0EE0FFF1FEA50FF4FA591B4918FB79C
:10102000F894EC91611103C020952E2301C02E2B62
:101030002C938FBF0895CF93DF9390E0FC01EC5E7B
:10104000FE4F2491FC01E050FF4F8491882361F111
:1010500090E0880F991FFC01E451FF4FC591D49196
:10106000FC01EA50FF4FA591B491611109C09FB7EF
:10107000F8948881209582238883EC912E230BC0DD
:10108000623061F49FB7F8943881822F8095832372
:101090008883EC912E2B2C939FBF06C08FB7F894BA
:1010A000E8812E2B28838FBFDF91CF9108958F92F7
:1010B0009F92AF92BF92CF92DF92EF92FF926B011D
:1010C0007C010E94B3064B015C01C114D104E10410
:1010D000F104F1F00E94B306DC01CB0188199909F3
:1010E000AA09BB09883E9340A105B10570F321E030
:1010F000C21AD108E108F10888EE880E83E0981E34
:10110000A11CB11CC114D104E104F10419F7DDCF15
:10111000FF90EF90DF90CF90BF90AF909F908F9017
:1011200008951F920F920FB60F9211242F933F93A1
:101130008F939F93AF93BF938091C7039091C80300
:10114000A091C903B091CA033091C60323E0230FD5
:101150002D3720F40196A11DB11D05C026E8230FEF
:101160000296A11DB11D2093C6038093C7039093DF
:10117000C803A093C903B093CA038091CB03909195
:10118000CC03A091CD03B091CE030196A11DB11D5A
:101190008093CB039093CC03A093CD03B093CE0365
:1011A000BF91AF919F918F913F912F910F900FBE63
:1011B0000F901F901895CF93DF93CDB7DEB7C25431
:1011C000D1090FB6F894DEBF0FBECDBF789484B5B9
:1011D000826084BD84B5816084BD85B5826085BD33
:1011E00085B5816085BD80916E00816080936E00C1
:1011F00010928100809181008260809381008091B3
:101200008100816080938100809180008160809363
:1012100080008091B10084608093B1008091B00023
:1012200081608093B00080917A00846080937A001E
:1012300080917A00826080937A0080917A00816048
:1012400080937A0080917A00806880937A0010926F
:10125000C100E091C302F091C40282E08083E0917A
:10126000C302F091C4021082E091BF02F091C0026B
:101270001082E091C102F091C20280E1808310925D
:10128000CB02E091C702F091C80286E08083E09132
:10129000C502F091C602808180618083E091C50221
:1012A000F091C602808188608083E091C502F09150
:1012B000C602808180688083E091C502F091C602F9
:1012C00080818F7D808361E084E00E941B0860E064
:1012D00084E00E94CF0761E084E00E94CF076EE1C6
:1012E00070E080E090E00E94570860E084E00E9497
:1012F000CF0764E170E080E090E00E94570861E071
:1013000084E00E94CF076EE170E080E090E00E94F0
:10131000570860E084E00E94CF0764E170E080E05D
:1013200090E00E945708E091660020918000309183
:1013300081008FE38093660010926F00109270001E
:1013400080E28093B600109280001092B00081E09D
:101350008093B10080938100B09A10928500109222
:10136000840080E444E650E060E070E0F1E0815009
:10137000A9F1B89A1092B2009091B600937191F0D1
:10138000B09BFACFB09A1092850010928400415021
:1013900051096109710981F71092B600E093660066
:1013A00080E02DC0F093810010928500109284009F
:1013B000B89BFECF10928100A0918400B09185006F
:1013C000A735B44F20F090916600915015C0A091C0
:1013D0008400B0918500A23FB34F58F01092B60040
:1013E000B89A1092B200209380003093810081E07F
:1013F00006C0909166009F5F90936600B8CF80937F
:10140000910361E08AE00E94CF0761E08AE00E94D8
:101410001B0861E08BE00E941B0860E08CE00E94EA
:101420001B0861E08DE00E941B0861E08DE00E94D6
:10143000CF0760E08BE00E94CF0781E58CBD60E0C4
:1014400082E00E941B082A9A8FE090E00197F1F752
:101450002A9883E290E00197F1F72A9A8FE990E0C9
:101460000197F1F72A981C99FECF80E30E943B0771
:101470001C99FECF2A9A49E260E082E993E00E943B
:101480008B034EE261E082E993E00E948B0346E029
:1014900062E082E993E00E948B0347E063E082E927
:1014A00093E00E948B034FEF66E082E993E00E9495
:1014B0008B0346E067E082E993E00E948B0345E0FE
:1014C00068E082E993E00E948B0320E047E465EB4B
:1014D00082E993E00E94BC0540E06FEF82E993E06F
:1014E0000E94640580919903882341F040E06AE0FE
:1014F00082E993E00E948B031092990348E06BE02D
:1015000082E993E00E948B0340E06CE082E993E083
:101510000E948B0380E00E944F074AEC60E182E961
:1015200093E00E948B0343E861E182E993E00E942B
:101530008B0343E962E182E993E00E948B0342E27C
:1015400063E182E993E00E948B0348EF64E182E962
:1015500093E00E948B0345E365E182E993E00E94FA
:101560008B0347E066E182E993E00E948B0340E24F
:1015700067E182E993E00E948B0348E168E182E938
:1015800093E00E948B0346E169E182E993E00E94C7
:101590008B034CE66AE182E993E00E948B0343E40B
:1015A0006BE182E993E00E948B0340E46CE182E905
:1015B00093E00E948B0341E96DE182E993E00E9490
:1015C0008B0347E86EE182E993E00E948B034BE6D0
:1015D0006FE182E993E00E948B034BEF60E282E9C6
:1015E00093E00E948B0346E561E282E993E00E946A
:1015F0008B0340E162E282E993E00E948B0349EEB3
:1016000063E282E993E00E948B034AE264E282E9AA
:1016100093E00E948B0340E065E282E993E00E9440
:101620008B034FE166E282E993E00E948B0341E481
:1016300067E282E993E00E948B0340E068E282E97E
:1016400093E00E948B0349E569E282E993E00E94FE
:101650008B034FE76AE282E993E00E948B034FE33A
:101660006BE282E993E00E948B0341E86CE282E93D
:1016700093E00E948B0345E36DE282E993E00E94D0
:101680008B0349E06EE282E993E00E948B0386E0DF
:1016900090E00E941F038093970387E090E00E94F0
:1016A0001F038093980380E090E00E941F03182F8F
:1016B0008A3060F480919903811741F0412F6AE0EC
:1016C00082E993E00E948B031093990382E090E0FB
:1016D0000E941F03682F83E090E023966FAF23974B
:1016E0000E941F0323966FAD23979FEF960F9E3F97
:1016F00020F09FEF980F9E3F30F420E0482F82E9C2
:1017000093E00E94BC0584E090E00E941F038823C0
:1017100031F040E0682F82E993E00E946405409137
:1017200094036EE382E993E00E948B038091980317
:101730008F3FD1F4809197038F3FB1F484E791E01C
:101740000E94EA06109297031092980360E086E0E8
:1017500090E00E94AE1060E087E090E00E94AE1042
:10176000809196030E944F0721E047E465EB82E9F0
:1017700093E00E94BC0584E090E00E94A61040E047
:10178000682F82E993E00E94640582E00E944F077F
:1017900044E067E082E993E00E948B0385E090E0FB
:1017A0000E94A6108093A20386E090E00E94A610FB
:1017B0008093A30383EC90E00197F1F782E993E033
:1017C0000E94800382E090E00E94410710929F03F4
:1017D0001092A00383E08093A1038DE891E00E9422
:1017E000F80640EC60E382E993E00E942103682F51
:1017F00070E080E090E04AE00E94FA0687E991E01C
:101800000E94F80640EC61E382E993E00E94210324
:10181000682F70E080E090E04AE00E94FA068BE9D1
:1018200091E00E94D8068EE991E00E94EA0624EB3E
:10183000222E2BE2322E21E1422E512C37E0F32EC4
:101840004EE4642E42E0742E5E01A9E0AA0EB11CA3
:101850006E01B2E0CB0ED11C56E0E52E80918D03D7
:101860008A3008F447C010928D0386EA91E00E9406
:10187000F806EEE4E0937C0062E070E080E090E047
:101880000E94570880917A00806480937A0080914A
:101890007A0086FDFCCF209178008091790030E0BD
:1018A000382B032E000C440B550BC201B1010E94D2
:1018B0003F112430F0E13F074105510554F084EB1E
:1018C00091E00E94F8068CEB91E00E94EA0660E04D
:1018D0000EC02D3A3D404105510564F484EB91E082
:1018E0000E94F80680EC91E00E94EA0661E080E147
:1018F0000E94CF0783EB92E00E942A01892B09F412
:10190000A5C083EB92E00E940801182F0E94930764
:1019100011160CF09BC01D3031F0103209F496C046
:101920001A30B9F493C080914C0290914D021092FC
:101930004D0210924C02181619060CF087C087EC65
:1019400091E00E94EA0690915E0240915F0280E081
:1019500025C020914C0230914D02223031055CF4BB
:10196000C901019690934D0280934C02F901E25A0D
:10197000FD4F10836BC0213131050CF067C0C901E8
:10198000825B9D4FFC0132971083319610822F5F4E
:101990003F4F30934D0220934C0258C0082F10E067
:1019A000F09EF001F19EF00D1124EC5EFE4F2081BF
:1019B000291303C02181241779F08F5FF89EF0016D
:1019C0001124EC5EFE4F23813481232B39F783EC05
:1019D00091E00E94EA063AC080914E02811109C04E
:1019E000109249021092480210924B0210924A0241
:1019F00022C07A82698265EC71E0CE0101960E9474
:101A00008B1040E050E060E070E00E94710F709336
:101A100049026093480265EC71E0CE0101960E9494
:101A20008B1040E050E060E070E00E94710F709316
:101A30004B0260934A02F09EF001F19EF00D1124DA
:101A4000EC5EFE4F0380F481E02D099580918E03BA
:101A5000882309F431C189EC91E00E94F8061092C4
:101A60008E0362E070E080E090E00E94570840EC56
:101A70006BE382E993E00E942103982F9F7761F046
:101A800087FD0AC040E86FE382E993E00E942103EA
:101A9000182F89838E3310F019822CC02A981C9934
:101AA000FECF8FEF0E943B074601882D8C198117CE
:101AB00038F480E00E943B07D4018D934D01F5CFAF
:101AC0002A9A40E86FE382E993E00E94210321967D
:101AD0008FAF219740E86FE382E993E00E942103F2
:101AE000982F9F7722969FAF2297982F991F99271B
:101AF000991F9FAF66E382E993E00E9478036AE34F
:101B000082E993E00E94780382E993E00E948003D7
:101B10008981882309F4CCC08FAD811104C08BEC7E
:101B200091E00E94EA0680918C03882331F189813B
:101B3000882319F183ED91E00E94F806460100E048
:101B400010E0898190E0081719079CF40115110530
:101B500021F087ED91E00E94F806F40161914F01B8
:101B600070E080E090E040E10E94FA060F5F1F4FB6
:101B7000E8CF87EC91E00E94EA068091AB028111E8
:101B800003C081E08093AB028A816B814C814295D6
:101B90004F705D819E812F81E88539813750809318
:101BA000A1026093A2024093A3025093A4029093D7
:101BB000A5022093A602E093A702B092A902A092E8
:101BC000A8023093AA02913009F443C008F466C019
:101BD0009230D1F0933009F06FC090919C03891737
:101BE00079F08091A103813041F480919F035813D3
:101BF00063C0F2E0F093A1035FC01092A0035CC049
:101C000081E08093A00358C090919C03891354C035
:101C1000821352C0EB3008F04FC0F0E0EE0FFF1F10
:101C2000E45BFE4F008111810115110509F444C0E8
:101C3000D80117968C91179738132CC01296ED91F6
:101C4000FC911397309731F1B50114968C91099559
:101C500021C0811104C0EE2309F45BC02DC0909116
:101C60009C03891329C0821327C0EB3028F5F0E0CC
:101C7000EE0FFF1FE45BFE4F00811181011511057E
:101C8000D9F0D801ED91FC911197309719F0149685
:101C90008C910995C8010E94EB040EC0E091A40349
:101CA000F091A503309741F080E692E0099504C0D9
:101CB00089ED91E00E94EA0682E090E00E944107EF
:101CC00080918B03882311F180916000886180935B
:101CD0006000E0926000809160008064809360000A
:101CE00083B7816083BF81E090E00E94410783B7A2
:101CF000817F846083BFF89485B7806685BF8F7DC0
:101D000085BF7894889583B78E7F83BF0E94CA0170
:101D1000A5CD2111D1CFABCFE3EBF2E0138212823C
:101D200088EE93E0A0E0B0E084839583A683B78338
:101D300086E691E09183808385EC90E095878487A7
:101D400084EC90E09787868780EC90E0918B808B85
:101D500081EC90E0938B828B82EC90E0958B848B6E
:101D600086EC90E0978B868B118E128E138E148EDC
:101D7000E8E8F3E088EC8487158E148E10861782CD
:101D800016821382158212821482EEEBF3E0118226
:101D90001082138212828091D10384832CE031E07F
:101DA0003683258398E09783E6EBF3E01182108277
:101DB0001382128291E0980F948328E031E03683F9
:101DC000258394E09783EEEAF3E011821082138278
:101DD000128222E0280F248324E031E03683258319
:101DE0009783E6EAF3E01182108221E436E0338340
:101DF000228393E0980F948329E933E03683258387
:101E000021E02783E0E8F3E0118210824EEE55E0F6
:101E10005383428394E0980F94834AE953E05683B6
:101E2000458392E09783E8E7F3E01182108245E86A
:101E300055E05383428335E0380F34834CE953E057
:101E4000568345832783E0E7F3E01182108228E17F
:101E500032E03383228326E0280F248322EA33E012
:101E6000368325839783E8E6F3E025EE31E031837E
:101E700020831382128227E0280F24832FEC33E083
:101E8000368325839783E0E6F3E044EE51E0518307
:101E900040831382128248E0480F448336832583AF
:101EA0009783E8E5F3E043EE51E0518340831382EA
:101EB000128249E0480F4483368325839783E0E507
:101EC000F3E042EE51E051834083138212824BE0F3
:101ED000480F4093D103865F84833683258397839D
:101EE0000895A0E0B0E0E7E7FFE00C94F9105C0192
:101EF0006B017A016115710519F0FB0191838083F3
:101F0000E114F10429F0C7010297839708F0F1C0AA
:101F1000E5012196F5011081812F90E00E94821049
:101F2000892B11F05E01F4CF1D3229F42196F501C1
:101F3000118101E007C01B3221F4E5012296F50171
:101F4000118100E0E114F10459F1F0E1EF16F10420
:101F500061F41033E1F488818F7D883569F519814A
:101F60002296026070E1E72EF12C88E0E816F10479
:101F700039F12CF4F2E0EF16F104C9F12AC08AE03D
:101F8000E816F10479F0E0E1EE16F10411F550E104
:101F9000E52EF12C812C912CA12C68E0B62E2CC0C2
:101FA0001033C9F23AE0E32EF12C4CEC842E982C3D
:101FB000A82C4CE0B42E20C010E3E114F104A9F6E3
:101FC00098E0E92EF12C812C912CA12C20E1B22E4D
:101FD00013C060E070E080E090E897010F2C000CE7
:101FE000440B550B0E94CC1049015A0105C0812CAD
:101FF000912CA12C80E4B82E60E020E030E0A90113
:1020000027010F2C000C660877081E01E0EDE10F98
:10201000EA3060F08FEB810F8A3110F4E9EC05C0F3
:102020008FE9810F8A3128F5E9EAE10F8E2F90E0E0
:102030008E159F05F4F467FD18C082169306A4065A
:10204000B50690F0C301B2010E94BC109B01AC0127
:102050002E0F311D411D511D213031054105F0E884
:102060005F0710F461E001C06FEF2196F10110816C
:10207000CCCF802F8170C114D10471F0662329F078
:102080002197F601D183C08307C001FF19C02297B1
:10209000F601D183C08314C067FF12C0811105C04F
:1020A0002FEF3FEF4FEF5FE704C020E030E040E06C
:1020B00050E882E290E09093D3038093D20316C05D
:1020C000882341F050954095309521953F4F4F4FD3
:1020D0005F4F0CC057FF0AC082E290E09093D30399
:1020E0008093D2032FEF3FEF4FEF5FE7B901CA01B3
:1020F00004C060E070E080E090E0CDB7DEB7E2E1E0
:102100000C94151191110C94A310803219F0895080
:102110008550C8F70895FC01A081B181AD011096EA
:1021200081F03D91FB01019003160110E1F7C9F721
:10213000002011F4D00102C01E921196FC01A08370
:10214000B183CA010895992788270895F999FECF88
:1021500092BD81BDF89A992780B50895262FF999E7
:10216000FECF1FBA92BD81BD20BD0FB6F894FA9A7A
:10217000F99A0FBE01960895DB018F939F930E94F9
:10218000EE10BF91AF91A29F800D911DA39F900D66
:10219000B29F900D11240895A1E21A2EAA1BBB1B19
:1021A000FD010DC0AA1FBB1FEE1FFF1FA217B30723
:1021B000E407F50720F0A21BB30BE40BF50B661F39
:1021C000771F881F991F1A9469F7609570958095FD
:1021D00090959B01AC01BD01CF0108950E94301183
:1021E000A59F900DB49F900DA49F800D911D11246B
:1021F00008952F923F924F925F926F927F928F92AB
:102200009F92AF92BF92CF92DF92EF92FF920F9385
:102210001F93CF93DF93CDB7DEB7CA1BDB0B0FB68F
:10222000F894DEBF0FBECDBF09942A88398848884C
:102230005F846E847D848C849B84AA84B984C884E2
:10224000DF80EE80FD800C811B81AA81B981CE0FD9
:10225000D11D0FB6F894DEBF0FBECDBFED010895BE
:10226000A29FB001B39FC001A39F700D811D1124D7
:10227000911DB29F700D811D1124911D0895052E91
:1022800097FB1EF400940E94561157FD07D00E9440
:10229000CC1007FC03D04EF40C9456115095409589
:1022A000309521953F4F4F4F5F4F08959095809502
:1022B000709561957F4F8F4F9F4F0895EE0FFF1FD1
:1022C0000590F491E02D099481E090E0F8940C944D
:0622D0006911F894FFCF34
:1022D600C900C90000000101000002000000000161
:1022E60000000001726500E8010000667300F2015B
:1022F6000000736100960500006464003C02000063
:10230600706900240500007374002D0300003F3F30
:10231600004902000000000000000000BE03B603F2
:10232600AE03A603800378037003680360035803B3
:102336005003000000006101CA00F900A8012A014B
:1023460008011C01526573657474696E67206672B4
:102356006571207265677320746F203000434331C6
:1023660031303120502000205620000D0A004E6FDB
:10237600206164647200436B20626174742073741C
:102386006174650043484152474520004F46460068
:102396004F4E003F002E2C20002100435243204583
:1023A600525200443A20003A004E6F206461746134
:1023B600005265626F6F740052737420746F2066EA
:1023C6006163746F72790044626720004D41524325
:1023D6002053544154452000525353492000094C80
:1023E6005149200020097073746174200050696E91
:1023F600670053656E7400496E76616C696420618E
:102406006464720053657420726164696F2061644C
:08241600647220746F200000C5
:00000001FF
