:100000000C94C7000C948D040C9466040C94EF00BF
:100010000C94EF000C94EF000C9416050C94EF0078
:100020000C94EF000C940C050C94EF000C94A908B0
:100030000C94EF000C94EF000C94EF000C94EF0084
:100040000C944B0D0C94EF000C94DA040C94B40453
:100050000C94EF000C94EF000C94EF000C94EF0064
:100060000C94EF000C94EF0072652052657374617C
:1000700072740D0A73612053657420726164696F34
:1000800020616464726573730D0A73632053657431
:1000900020726164696F206368616E6E656C0D0A21
:1000A000667320526573657420656570726F6D208C
:1000B000746F20666163746F7279207365747469FC
:1000C0006E67730D0A646420456E61626C6520641E
:1000D00065627567206F75747075740D0A7069209C
:1000E00050696E670D0A616120416C61726D0D0A85
:1000F00073742044756D70207374617475730D0A88
:1001000073642053656E6420646576696365206955
:10011000640D0A736C2041637469766174652073A1
:100120006C6565700D0A3F3F2048454C500D0A0D27
:100130000A0000000000240027002A000000000040
:10014000250028002B0000000000230026002900C5
:10015000040404040404040402020202020203036D
:100160000303030301020408102040800102040875
:100170001020010204081020000000080002010005
:100180000003040700000000000000001614112402
:100190001FBECFEFD8E0DEBFCDBF24E0A8E1B3E0C3
:1001A00001C01D92A53EB207E1F713E0A0E0B1E067
:1001B000E8E1F2E302C005900D92A831B107D9F74A
:1001C00010E0C7ECD0E004C02197FE010E94C316E6
:1001D000C63CD107C9F70E94950D0C940A190C94DE
:1001E00000000895CF92DF92EF92FF920F931F933A
:1001F000CF93DF936C017A018B01C0E0D0E0CE1584
:10020000DF0589F0D8016D918D01D601ED91FC914A
:100210000190F081E02DC6010995892B11F47E0132
:1002200002C02196ECCFC701DF91CF911F910F91B2
:10023000FF90EF90DF90CF900895089580E090E0D8
:100240000895FC01538D448D252F30E0842F90E0DC
:10025000821B930B541710F0CF96089501970895C1
:10026000FC01918D828D981761F0828DDF01A80FBE
:10027000B11D5D968C91928D9F5F9F73928F90E0E0
:1002800008958FEF9FEF0895FC01918D828D98174F
:1002900031F0828DE80FF11D858D90E008958FEF8C
:1002A0009FEF0895FC01918D228D892F90E0805C55
:1002B0009F4F821B91098F73992708958AE993E0D4
:1002C0000E94520121E0892B09F420E0822F089539
:1002D000FC01848DDF01A80FB11DA35ABF4F2C91E3
:1002E000848D90E001968F739927848FA689B789B2
:1002F0002C93A089B1898C9180648C93938D848D8B
:10030000981306C00288F389E02D80818F7D808359
:100310000895EF92FF920F931F93CF93DF93EC0119
:1003200081E0888F9B8D8C8D981305C0E889F989B1
:10033000808185FD24C0F62E0B8D10E00F5F1F4FCE
:100340000F731127E02E8C8DE8120CC00FB607FC3E
:10035000FACFE889F989808185FFF5CFCE010E9427
:100360006801F1CF8B8DFE01E80FF11DE35AFF4FBD
:10037000F0820B8FEA89FB898081806207C0EE8959
:10038000FF896083E889F98980818064808381E0C6
:1003900090E0DF91CF911F910F91FF90EF90089522
:1003A000CF93DF93EC01888D8823C9F0EA89FB891C
:1003B000808185FD05C0A889B9898C9186FD0FC013
:1003C0000FB607FCF5CF808185FFF2CFA889B989E8
:1003D0008C9185FFEDCFCE010E946801E7CFDF91C0
:1003E000CF91089580E090E0892B29F00E945E0172
:1003F00081110C94000008950E9405190F931F931A
:10040000CF93DF93CDB7DEB7C154D1090FB6F894BF
:10041000DEBF0FBECDBF8C0162E370E080E090E0F4
:100420000E94110DF801E65BFF4F208187E0820FEB
:100430008983399780818A83319680818B83319635
:10044000808130E1839FC00111248C8339963081F3
:10045000332311F082608C83F801E35BFF4F8081CE
:10046000882319F08C8184608C83F801EC5BFF4F4A
:1004700080818D83319680818E83319680818F83B8
:10048000319680818887AE01475F5F4F80E090E0C2
:100490003196821750F4A081B181A80FB91F3C9109
:1004A000DA013D93AD010196F4CF13E001E42DB7DD
:1004B0003EB7215431090FB6F8943EBF0FBE2DBF91
:1004C000ADB7BEB71196FE013196802F01900D9207
:1004D0008A95E1F70E94540A0FB6F894DEBF0FBE6A
:1004E000CDBF811109C0115039F062E370E080E0A6
:1004F00090E00E94110DDBCFCF5BDF4F0FB6F89479
:10050000DEBF0FBECDBFDF91CF911F910F91089538
:1005100083B78E7F83BFE89881EF90E090930101CD
:100520008093000180918004823019F081E08093F3
:100530007B0461E084E00E94A50C84E080931C03AE
:1005400080916F00826080936F001092770408950D
:100550000C9413168AE791E00E94CC0965EB82E0C7
:1005600090E00E94A80267E483E090E00E94A80265
:100570006FEF84E090E00E94A80260E080E090E0ED
:100580000E94A8026FEF85E090E00E94A8026FEF42
:1005900086E090E00E94A802E0E0F0E0099408956F
:1005A00089E891E00E94CC0981E080937804089565
:1005B0000F931F93CF93DF93CDB7DEB7CF54D109FD
:1005C0000FB6F894DEBF0FBECDBF80911D03909192
:1005D0001E03811101C081E0182F01E08BE991E039
:1005E0000E94CC092E961FAE2E9760961FAE609784
:1005F00023961FAE23978091890424968FAF24976A
:1006000025961FAE259727960FAF279728961FAEE2
:10061000289782E029968FAF29972B961FAE1EAEA2
:100620002B972C961FAE2C972F960FAF2F97CE019E
:1006300001960E94FE01882321F080EA91E00E9449
:10064000CC0964EF71E080E090E00E94110D115040
:1006500029F6C15BDF4F0FB6F894DEBF0FBECDBFEA
:10066000DF91CF911F910F91089585EA91E00E944B
:10067000CC091092CF048CEA91E00E94CC09E0E012
:10068000F0E009940895CF93C82F80912703882321
:1006900021F060E086E00E94A50C83EB91E00E94CF
:1006A0004C0A61E06C2786E00E94A50CCC2319F06F
:1006B00089EB91E002C08CEB91E0CF910C94CC09D6
:1006C000109226031092250385E00E947C0C892B52
:1006D00011F484E00CC060E085E00E94A50C60E0AD
:1006E00086E00E94A50C81E08093270388E2809336
:1006F0001B0380916F00826080936F0010927704DB
:10070000089580EC91E00E944C0A6AE070E08091CC
:1007100053040E94350B8091530408951F93CF9387
:10072000DF93182FEB018AEC91E00E944C0A809134
:100730004B04181307C068818FE00E94A50C8881C4
:1007400080934A0480914204181307C0688180E1B5
:100750000E94A50C8881809341046AE070E0888142
:100760000E94350B80E0DF91CF911F910895CF93C8
:10077000DF93EB0184ED91E00E944C0AC8816C2F5D
:1007800070E080E090E04AE00E94DA098DED91E0AF
:100790000E944C0A6AE070E0809153040E94350B7D
:1007A000C23029F480915304823039F43CC0C11125
:1007B00004C0809153048823C9F110927804C13099
:1007C000A9F048F0C230F1F0C33079F560E085E07F
:1007D0000E94A50C28C00E94600380EC93E09093D7
:1007E0001A03809319031092210316C00E9460031C
:1007F00080EC93E090931A03809319038FEF80931A
:1008000021030AC00E94600380EC93E090931A03D6
:1008100080931903C093210380916F0082608093BD
:100820006F001092770480E001C086E0DF91CF91E5
:100830000895CF93DF93EB01E0915D04F0915E04A6
:1008400098818081981304C099818181981781F0E3
:10085000888199819093D2048093D104688185E046
:1008600090E00E941316698186E090E00E941316C2
:1008700080E0DF91CF91089583EE91E00E944C0AD1
:10088000E4E7F4E0958181E08927858390E00C948A
:100890001B0A1F93CF93DF93C8E6D0E0FE011491AB
:1008A000812F0E94AF0921961111F8CFDF91CF91CE
:1008B0001F91089521E040E061E085E00C94FC0A7E
:1008C00021E040E061E085E00C94FC0A1F920F9269
:1008D0000FB60F9211242F933F934F935F936F9313
:1008E0007F938F939F93AF93BF93EF93FF93E09189
:1008F0000201F09103010995FF91EF91BF91AF9132
:100900009F918F917F916F915F914F913F912F9127
:100910000F900FBE0F901F9018951F920F920FB659
:100920000F9211242F933F934F935F936F937F9375
:100930008F939F93AF93BF93EF93FF93E091000149
:10094000F09101010995FF91EF91BF91AF919F91B6
:100950008F917F916F915F914F913F912F910F9068
:100960000FBE0F901F9018951F920F920FB60F9207
:1009700011242F933F934F935F936F937F938F93A4
:100980009F93AF93BF93EF93FF938AE993E00E9405
:100990006801FF91EF91BF91AF919F918F917F91EE
:1009A0006F915F914F913F912F910F900FBE0F90DC
:1009B0001F9018951F920F920FB60F9211242F932C
:1009C0008F939F93EF93FF93E091AA03F091AB0372
:1009D0008081E091B003F091B10382FD12C090815B
:1009E0008091B3038F5F8F732091B403821751F00E
:1009F000E091B303F0E0E656FC4F958F8093B3038C
:100A000001C08081FF91EF919F918F912F910F9065
:100A10000FBE0F901F9018951F920F920FB60F9256
:100A200011240F900FBE0F901F9018951F920F92D8
:100A30000FB60F9211248F93EF93FF93E4E7F4E046
:100A400086818F5F8683FF91EF918F910F900FBE0C
:100A50000F901F901895E0E6F0E080818861808318
:100A600086E080838081806480830895FF920F9365
:100A70001F93CF93DF93CDB7DEB7C055D1090FB623
:100A8000F894DEBF0FBECDBF8C01F62E62E370E09E
:100A900080E090E061964FAF61970E94110DF801E0
:100AA00093812181328150812E961FAE2E972F96F1
:100AB0001FAE2F9760961FAE609780918904249691
:100AC0008FAF249725961FAE259727961FAE2797A1
:100AD00028968FAF289729965FAF29972C969FAFBE
:100AE0002C972B963FAF2EAF2B972396FFAE2397D5
:100AF00061964FAD619726964FAF2697CE0101962E
:100B00000E94FE01C05BDF4F0FB6F894DEBF0FBE40
:100B1000CDBFDF91CF911F910F91FF9008950C945D
:100B20000B16862F842B2A981C99FECF0E944E0A02
:100B300080E00E944E0A2A9A0895862F2A981C99CE
:100B4000FECF0E944E0A2A9A0895CF93DF93EC01BC
:100B500064E30E949D0581E08983DF91CF91089530
:100B6000CF93DF931F92CDB7DEB7862F2A981C99BB
:100B7000FECF49830E944E0A4981842F0E944E0A6B
:100B80002A9A0F90DF91CF9108950F931F93CF93DF
:100B9000DF93FC0127812617A1F0D42FC62F8C01EB
:100BA000462F6AE00E94B005F801C783DD2349F0B3
:100BB0006C2F80E090E0DF91CF911F910F910C940A
:100BC0001316DF91CF911F910F9108950F931F93EB
:100BD000CF93DF93CDB7DEB7CF54D1090FB6F894DA
:100BE000DEBF0FBECDBFE091D604F091D704DB018C
:100BF0009C918081981709F43DC08B019091D80495
:100C00002091D5042E961FAE2E972F961FAE2F97AC
:100C100060961FAE609723961FAE2397809189043C
:100C200024968FAF249725961FAE259727961FAE43
:100C3000279728968FAF289729962FAF29972C961C
:100C40009FAF2C972B967FAF6EAF2B97CE0101965F
:100C50000E94FE0141E0F80160818FE794E00E946C
:100C6000C5051092CF048CEA91E00E94CC09E0E027
:100C7000F0E0099480E0C15BDF4F0FB6F894DEBF6F
:100C80000FBECDBFDF91CF911F910F91089580913D
:100C90001D0390911E038F3F910529F020F088EEEF
:100CA00091E00C94CC0988EF91E00E944C0A60918D
:100CB0001D0370911E0380E090E04AE00E94DA0973
:100CC00088E092E00E94BA0960911D0370911E03B2
:100CD00041E08FE794E00C94C5050F931F93CF93E9
:100CE000DF93FC0122852617A1F0D42FC62F8C019B
:100CF000462F69E00E94B005F801C287DD2349F064
:100D00006C2F84E090E0DF91CF911F910F910C94B4
:100D10001316DF91CF911F910F9108950F931F9399
:100D2000CF93DF93CDB7DEB7CF54D1090FB6F89488
:100D3000DEBF0FBECDBFFB0180818823D9F1E091DA
:100D40006504F091660490818917A1F18B0190915F
:100D50006704209164042E961FAE2E972F961FAE27
:100D60002F9760961FAE609723961FAE23978091B2
:100D7000890424968FAF249725961FAE2597279632
:100D80001FAE279728968FAF289729962FAF2997C0
:100D90002C969FAF2C972B967FAF6EAF2B97CE01E3
:100DA00001960E94FE0141E0F80160818FE794E026
:100DB0000E946D0680E0C15BDF4F0FB6F894DEBF86
:100DC0000FBECDBFDF91CF911F910F9108958091FC
:100DD0001D0390911E038F3F910529F020F08BE0B9
:100DE00092E00C94CC0988E192E00E944C0A609158
:100DF0001D0370911E0380E090E04AE00E94DA0932
:100E000088E092E00E94BA0960911D0370911E0370
:100E100041E08FE794E00C946D06FF920F931F93CF
:100E2000CF93DF93EC018885861303C089858417EF
:100E300001F1F22E142F062F462F64E0CE010E94FE
:100E4000B005412F65E0CE010E94B00508871987E3
:100E5000FF2079F0602F82E090E00E941316612F4E
:100E600083E090E0DF91CF911F910F91FF900C9460
:100E70001316DF91CF911F910F91FF9008950F935B
:100E80001F93CF93DF93CDB7DEB7CF54D1090FB601
:100E9000F894DEBF0FBECDBFE0916D04F0916E04FB
:100EA000DB019C918081981305C011969C918181F2
:100EB0009817A9F18B0190916F0420916C042E96E4
:100EC0001FAE2E972F961FAE2F9760961FAE60977E
:100ED00023961FAE23978091890424968FAF249781
:100EE00025961FAE259727961FAE279728968FAF7A
:100EF000289729962FAF29972C969FAF2C972B9642
:100F00007FAF6EAF2B97CE0101960E94FE0121E0CC
:100F1000F801418160818FE794E00E940D0780E035
:100F2000C15BDF4F0FB6F894DEBF0FBECDBFDF91C0
:100F3000CF911F910F9108951F93CF93DF938EE46C
:100F400080937C0062E070E080E090E00E94110DF0
:100F500080917A00806480937A0080917A0086FD87
:100F6000FCCF209178008091790030E0382B40E070
:100F700050E064EB7BE281E190E00E94A416122F26
:100F8000C22FD32FC83680E1D80710F080E005C00B
:100F9000CD338FE0D80718F481E00E944303D0934B
:100FA00038041093370480912A03882319F0815064
:100FB00080932A03CE01DF91CF911F9108958BE298
:100FC00092E00E944C0A6091860470E080E090E01C
:100FD0004AE00E94DA098FE292E00E944C0A609196
:100FE000840470E080E090E040E10E94DA0983E34D
:100FF00092E00E944C0A60E170E0809185040E94BA
:10100000350B87E392E00E944C0A40EC65E38FE7E2
:1010100094E00E9491058F7190E00E941B0A83E486
:1010200092E00E944C0A40EC64E38FE794E00E9457
:101030009105282F682F70E080E090E027FF09C01D
:101040000E94DC1720E030E040E853E40E94C9161B
:1010500002C00E94DC1720E030E040E05FE30E9425
:10106000931820E030E044E952E40E94C91642E0BF
:101070000E94560B89E492E00E944C0A40EC63E324
:101080008FE794E00E9491058095682F6F7370E060
:1010900080E090E04AE00E94DA098EE492E00E944B
:1010A0004C0A40EC68E38FE794E00E94910562E00F
:1010B00070E00E94350B87E592E00E944C0A6AE0DE
:1010C00070E0809189040E94350B8DE592E00E94CA
:1010D0004C0A6AE070E0809186040E94350B86E637
:1010E00092E00E944C0A0E949C07BC0180E090E0C4
:1010F0004AE00E94DA098CE692E00C94CC0988E080
:101100000E947C0C892B39F087E00E947C0C892B93
:1011100021F081E003C080E001C082E0909153049F
:101120009817A9F0809353042FE632E030932303FD
:101130002093220390912103981306C081E08093AD
:10114000290380932803089581E08093290380E098
:1011500008951F920F920FB60F9211242F933F9371
:101160004F935F936F937F938F939F93AF93BF93AF
:10117000EF93FF93609118036F5F60931803809162
:101180001C03882349F0617084E00E94A50C8091C3
:101190001C03815080931C0380911C03811104C0A7
:1011A00060E084E00E94A50C80911B03882361F01D
:1011B00080911B03833019F461E00E94A50C80919B
:1011C0001B03815080931B0380911B03811104C07A
:1011D00060E083E00E94A50C809125039091260396
:1011E000019739F461E085E00E94A50C81E08093CD
:1011F00078048091250390912603892B49F08091F2
:10120000250390912603019790932603809325034D
:101210008091190390911A03892B31F10E947F0864
:10122000882329F010921A031092190309C08091A3
:10123000190390911A03019790931A03809319034D
:101240008091190390911A03019771F48091210301
:101250008F3F19F083E08093240310921A031092B9
:10126000190381E0809378048091190390911A0307
:10127000892BB1F480911C03811112C080911B0352
:1012800081110EC08091250390912603892B41F492
:1012900080916F008D7F80936F0081E08093770451
:1012A000FF91EF91BF91AF919F918F917F916F913E
:1012B0005F914F913F912F910F900FBE0F901F9014
:1012C0001895833081F028F4813099F08230A1F0B4
:1012D00008958730A9F08830B9F08430D1F4809136
:1012E00080008F7D03C0809180008F778093800085
:1012F000089584B58F7702C084B58F7D84BD08952D
:101300008091B0008F7703C08091B0008F7D809373
:10131000B00008953FB7F894809196039091970399
:10132000A0919803B091990326B5A89B05C02F3FC3
:1013300019F00196A11DB11D3FBFBA2FA92F982FFB
:101340008827820F911DA11DB11DBC01CD0142E076
:10135000660F771F881F991F4A95D1F70895E0916E
:101360009A03F0919B030190F081E02D682F8AE9A8
:1013700093E00994009769F0FC0101900020E9F7DF
:101380003197AF01481B590BBC018AE993E00C94DB
:10139000F20080E090E00895CF93DF930E94BA09B5
:1013A000EC0188E092E00E94BA098C0F9D1FDF914A
:1013B000CF9108958F929F92AF92BF920F931F93F8
:1013C000CF93DF93CDB7DEB7A1970FB6F894DEBF0A
:1013D0000FBECDBF19A2423008F44AE08E010F5D66
:1013E0001F4F842E912CA12CB12CA50194010E9499
:1013F0003116E62FB901CA0101501109EA3014F47F
:10140000E05D01C0E95CD801EC93232B242B252B54
:1014100061F7C8010E94BA09A1960FB6F894DEBF21
:101420000FBECDBFDF91CF911F910F91BF90AF90B5
:101430009F908F900895CF92DF92EF92FF92CF937B
:10144000DF936C01990FEE08FF08F7FE12C08DE2E2
:101450000E94AF09EC0166277727CB016C197D0943
:101460008E099F094AE00E94DA097C01EC0EFD1EFC
:1014700006C04AE0C701B6010E94DA097C0188E093
:1014800092E00E94BA098E0D9F1DDF91CF91FF90CF
:10149000EF90DF90CF9008950C94BA098EBD0DB4F3
:1014A00007FEFDCF8EB50895CF92DF92FF920F9386
:1014B0001F93CF93DF93CDB7DEB782E08093800494
:1014C0008FE794E00E94A50500E010E00F5F1F4F3A
:1014D000093E83E0180781F140EC65E38FE794E073
:1014E0000E949105982F9F719D3041F52FC02A9A37
:1014F00065E38FE794E00E949D0582E0809380047D
:1015000040EC65E38FE794E00E9491058F71835171
:10151000833008F449C066E38FE794E00E949D059C
:101520006BE38FE794E00E949D058FE794E00E94B3
:10153000A50581E08093800410E055C0813131F62B
:101540006AE38FE794E00E949D05C0CF083E1340F8
:1015500099F38BEC97E00197F1F783E50E94AF09CF
:101560008AE30E94AF098AE092E00E94CC09FA84E3
:101570004F2D6FE38FE794E00E94B0052A981C99E5
:10158000FECF8FE70E944E0A6E01EBE0CE0ED11C1B
:101590008601802F8C198F1508F0A9CFF801819151
:1015A0008F010E944E0AF5CF4A9BFECF4A99FECF8B
:1015B00040EC6AE38FE794E00E9491058F7711E099
:1015C00009F010E066E38FE794E00E949D056BE36D
:1015D0008FE794E00E949D058FE794E00E94A505A7
:1015E00081E080938004812FDF91CF911F910F9133
:1015F000FF90DF90CF900895CF93DF93CDB7DEB704
:10160000C154D1090FB6F894DEBF0FBECDBF96E02E
:1016100099836A83909189049B831C824D838E8376
:101620002F838DB79EB7815491090FB6F8949EBF52
:101630000FBE8DBFADB7BEB7119681E4FE013196E6
:1016400001900D928A95E1F70E94540A0FB6F89422
:10165000DEBF0FBECDBFCF5BDF4F0FB6F894DEBF4E
:101660000FBECDBFDF91CF910895CF93DF93AB0134
:10167000672B61F4E0919A03F0919B030190F08154
:10168000E02D682F8AE993E0099506C0682F70E085
:1016900080E090E00E94DA09EC0188E092E00E948C
:1016A000BA098C0F9D1FDF91CF9108954F925F92E1
:1016B0006F927F928F929F92AF92BF92CF92DF9262
:1016C000EF92FF926B017C01B42E9B01AC010E9452
:1016D0000019882319F08CE093E027C02601370118
:1016E000E89477F82FEF3FEF4FE75FE7C301B201D0
:1016F0000E94001981110DC02FEF3FEF4FE75FE708
:10170000C301B2010E94361718161CF480E193E061
:101710000CC02FEF3FEF4FE75FE4C701B6010E9417
:101720008E18181684F484E193E0FF90EF90DF9018
:10173000CF90BF90AF909F908F907F906F905F9071
:101740004F900C94BA092FEF3FEF4FE75FECC701C2
:10175000B6010E94361787FDE6CF20E030E0A901F0
:10176000C701B6010E94361787FF09C08DE20E94AB
:10177000AF094C01F7FAF094F7F8F09402C0812C0D
:10178000912CA12C60E070E080E09FE3AB1441F06D
:1017900020E030E040E251E40E943B17A394F6CFF2
:1017A0009B01AC01C701B6010E94CA162B013C0186
:1017B0000E94AD176B017C010E94DC179B01AC01FC
:1017C000C301B2010E94C9162B013C014AE0C701C6
:1017D000B6010E94DA097C01E80CF91CBB2029F053
:1017E0008EE20E94AF09E80EF91EDB2CDD2021F10C
:1017F00020E030E040E251E4C301B2010E949318BE
:101800002B013C010E94AD174B01A12CB12C4AE0E9
:10181000C501B4010E94DA09E80EF91EC501B40140
:101820000E94DC179B01AC01C301B2010E94C916E2
:101830002B013C01DA94DACFC701FF90EF90DF90E3
:10184000CF90BF90AF909F908F907F906F905F9060
:101850004F90089528E832E0309301012093000171
:10186000E9E6F0E090819C7F892B8083E89A0895D7
:10187000CF93C82F8130A1F0823021F540E16DE097
:101880008FE794E00E94B005409184044F546EE0CD
:101890008FE794E00E94B005409185044A5723C029
:1018A00042E26DE08FE794E00E94B005409184042D
:1018B0004F546EE08FE794E00E94B005409185049C
:1018C000455C11C041E26DE08FE794E00E94B005F5
:1018D000409184044E596EE08FE794E00E94B00579
:1018E000409185044A586FE08FE794E00E94B0056C
:1018F000C0938304CF910895CF93DF93282F30E0D6
:10190000F901E858FE4F8491F901EC59FE4FD4914A
:10191000F901E05BFE4FC491CC2391F081110E944C
:101920006109EC2FF0E0EE0FFF1FEA5BFE4FA5917F
:10193000B491EC91ED2381E090E021F480E002C0CD
:1019400080E090E0DF91CF9108951F93CF93DF93D4
:10195000282F30E0F901E858FE4F8491F901EC5945
:10196000FE4FD491F901E05BFE4FC491CC23C9F046
:10197000162F81110E946109EC2FF0E0EE0FFF1F7E
:10198000E45CFE4FA591B4918FB7F894111105C096
:101990009C91ED2FE095E92302C0EC91ED2BEC93A7
:1019A0008FBFDF91CF911F910895CF93DF9390E088
:1019B000FC01EC59FE4F2491FC01E05BFE4F849149
:1019C000882361F190E0880F991FFC01EE5CFE4FC7
:1019D000C591D491FC01E45CFE4FA591B4916111D5
:1019E00009C09FB7F8948881209582238883EC9161
:1019F0002E230BC0623061F49FB7F8943881822F98
:101A0000809583238883EC912E2B2C939FBF06C057
:101A10008FB7F894E8812E2B28838FBFDF91CF9169
:101A200008958F929F92AF92BF92CF92DF92EF92E2
:101A3000FF926B017C010E948A094B015C01C11479
:101A4000D104E104F104F1F00E948A09DC01CB0128
:101A500088199909AA09BB09883E9340A105B105D7
:101A600070F321E0C21AD108E108F10888EE880E6F
:101A700083E0981EA11CB11CC114D104E104F1043F
:101A800019F7DDCFFF90EF90DF90CF90BF90AF9030
:101A90009F908F9008951F920F920FB60F9211246E
:101AA0002F933F938F939F93AF93BF938091DF04C6
:101AB0009091E004A091E104B091E2043091DE0441
:101AC00023E0230F2D3720F40196A11DB11D05C081
:101AD00026E8230F0296A11DB11D2093DE048093FA
:101AE000DF049093E004A093E104B093E2048091BA
:101AF000960390919703A0919803B0919903019652
:101B0000A11DB11D8093960390939703A093980312
:101B1000B0939903BF91AF919F918F913F912F9176
:101B20000F900FBE0F901F901895CF93DF9300D0AA
:101B30001F92CDB7DEB7789484B5826084BD84B53A
:101B4000816084BD85B5826085BD85B5816085BDB8
:101B500080916E00816080936E0010928100809170
:101B600081008260809381008091810081608093F8
:101B70008100809180008160809380008091B1001D
:101B800084608093B1008091B00081608093B00048
:101B900080917A00846080937A0080917A008260DC
:101BA00080937A0080917A00816080937A0080919E
:101BB0007A00806880937A001092C100E091AA03B5
:101BC000F091AB0382E08083E091AA03F091AB0334
:101BD0001082E091A603F091A7031082E091A80380
:101BE000F091A90380E180831092B203E091AE03EB
:101BF000F091AF0386E08083E091AC03F091AD03F8
:101C0000808180618083E091AC03F091AD0380819D
:101C100088608083E091AC03F091AD03808180689F
:101C20008083E091AC03F091AD0380818F7D808350
:101C300061E084E00E94D50C0E949C07E091660060
:101C400020918000309181008FE380936600109294
:101C50006F001092700080E28093B60010928000B6
:101C60001092B00081E08093B10080938100B09A1F
:101C7000109285001092840080E444E650E060E019
:101C800070E0F1E08150A9F1B89A1092B200909101
:101C9000B600937191F0B09BFACFB09A1092850084
:101CA00010928400415051096109710981F7109225
:101CB000B600E093660080E02DC0F09381001092A2
:101CC000850010928400B89BFECF10928100A091F5
:101CD0008400B0918500A735B44F20F09091660044
:101CE000915015C0A0918400B0918500A23FB34FE0
:101CF00058F01092B600B89A1092B200209380006B
:101D00003093810081E006C0909166009F5F9093C0
:101D10006600B8CF80937E0461E08AE00E94A50C43
:101D200061E08AE00E94D50C61E08BE00E94D50C56
:101D300060E08CE00E94D50C61E08DE00E94D50C43
:101D400061E08DE00E94A50C60E08BE00E94A50C94
:101D500081E58CBD60E082E00E94D50C2A9A8FE07C
:101D600090E00197F1F72A9883E290E00197F1F76C
:101D70002A9A8FE990E00197F1F72A981C99FECFF3
:101D800080E30E944E0A1C99FECF2A9A49E260E045
:101D90008FE794E00E94B0054EE261E08FE794E0A7
:101DA0000E94B00546E062E08FE794E00E94B00533
:101DB00047E063E08FE794E00E94B0054DE366E002
:101DC0008FE794E00E94B00546E067E08FE794E07B
:101DD0000E94B00545E068E08FE794E00E94B005FE
:101DE00020E047E465EB8FE794E00E940D0740E0B8
:101DF0006FEF8FE794E00E946D0640E060E08FE7B0
:101E000094E00E94C50548E06BE08FE794E00E94F3
:101E1000B00540E06CE08FE794E00E94B00582E0FE
:101E20000E94380C4AEC60E18FE794E00E94B00514
:101E300043E861E18FE794E00E94B00543E962E185
:101E40008FE794E00E94B00542E263E18FE794E0FF
:101E50000E94B00548EF64E18FE794E00E94B0056E
:101E600045E365E18FE794E00E94B00547E066E155
:101E70008FE794E00E94B00540E267E18FE794E0CD
:101E80000E94B00548E168E18FE794E00E94B00548
:101E900046E169E18FE794E00E94B0054CE66AE113
:101EA0008FE794E00E94B00543E46BE18FE794E094
:101EB0000E94B00540E46CE18FE794E00E94B00519
:101EC00041E96DE18FE794E00E94B00547E86EE1DB
:101ED0008FE794E00E94B0054BE66FE18FE794E056
:101EE0000E94B0054BEF60E28FE794E00E94B005DE
:101EF00046E561E28FE794E00E94B00540E162E2CE
:101F00008FE794E00E94B00549EE63E28FE794E02A
:101F10000E94B0054AE264E28FE794E00E94B005B7
:101F200040E065E28FE794E00E94B0054FE166E291
:101F30008FE794E00E94B00541E467E28FE794E008
:101F40000E94B00540E068E28FE794E00E94B0058F
:101F500049E569E28FE794E00E94B0054FE76AE245
:101F60008FE794E00E94B0054FE36BE28FE794E0C7
:101F70000E94B00541E86CE28FE794E00E94B00552
:101F800045E36DE28FE794E00E94B00549E06EE220
:101F90008FE794E00E94B00586E090E00E948F05F4
:101FA0008093840487E090E00E948F0580938504ED
:101FB00080E090E00E948F058A3030F440E0682F86
:101FC0008FE794E00E94C50582E090E00E948F05B3
:101FD000682F83E090E06B830E948F056B819FEFF9
:101FE000960F9E3F20F09FEF980F9E3F30F420E029
:101FF000482F8FE794E00E940D0784E090E00E9454
:102000008F05882331F040E0682F8FE794E00E942D
:102010006D06409181046EE38FE794E00E94B00565
:10202000809185048F3FD1F4809184048F3FB1F477
:1020300087E792E00E94CC091092840410928504F4
:1020400060E086E090E00E94131660E087E090E098
:102050000E941316809183040E94380C21E047E40B
:1020600065EB8FE794E00E940D0784E090E00E940A
:102070000B1640E0682F8FE794E00E946D0682E027
:102080000E94380C44E067E08FE794E00E94B005BE
:1020900085E090E00E940B168093D10486E090E0EA
:1020A0000E940B168093D20483EC90E00197F1F725
:1020B0008FE794E00E94A50582E090E00E942A0C40
:1020C0001092CE0483E08093CF040E942B0580E918
:1020D00092E00E944C0A40EC60E38FE794E00E949B
:1020E0009105682F70E080E090E04AE00E94DA09F4
:1020F00087E992E00E944C0A40EC61E38FE794E0AC
:102100000E9491056AE070E00E94350BF8941092ED
:102110001C0310921B0310921A03109219031092C1
:1021200026031092250314BE1092800010928100A5
:1021300081EA97E0909389008093880080918100E4
:10214000886080938100809181008160809381000C
:102150008091810084608093810080916F00826013
:1021600080936F00789461E085E00E94D50C61E077
:1021700086E00E94D50C61E08FE00E94D50C61E002
:1021800083E00E94D50C61E080E10E94D50C60E004
:1021900088E00E94D50C61E088E00E94A50C60E018
:1021A00087E00E94D50C61E087E00E94A50C0E94A8
:1021B0007F0861E084E00E94A50C84E080931C030A
:1021C00080916F00826080936F001092770437E0F7
:1021D000932E0DE213E042E0842E50E5E52EF12C23
:1021E00068E7562E73E9C72E74E0D72EECE8AE2EC2
:1021F000E4E0BE2E80917A04837011F40E947F087F
:1022000080917A048A3020F010927A040E949C0710
:102210008AE993E00E945201892B09F4B3C08AE94C
:1022200093E00E94300118160CF0ACC08D3039F0EC
:10223000803219F08A30C1F4A5C080E23BC06090C2
:102240002B0370902C0310922C0310922B038DE023
:102250000E94AF09161417040CF094C090913D032E
:1022600040913E0380E029C020912B0330912C0344
:102270002230310574F4A9014F5F5F4F50932C0356
:1022800040932B03F901E35CFC4F808310922D03F4
:1022900011C02131310574F4A901435D5C4FFA018D
:1022A00032978083319610822F5F3F4F30932C03FB
:1022B00020932B030E94AF0965C0682E712C969C59
:1022C000F001979CF00D1124EC5FFE4F2081291343
:1022D00003C02181241779F08F5F989EF0011124AB
:1022E000EC5FFE4F23813481232B39F78BE992E099
:1022F0000E94CC0947C080912D03811109C0109222
:102300001E0310921D031092200310921F0322C07F
:102310001A8309836DE972E0CE0101960E94F015DF
:1023200040E050E060E070E00E94D61470931E031D
:1023300060931D036DE972E0CE0101960E94F015D5
:1023400040E050E060E070E00E94D61470932003FB
:1023500060931F0361E084E00E94A50C80921C033F
:1023600080916F00826080936F0010927704969C3A
:10237000F001979CF00D1124EC5FFE4F0380F48177
:10238000E02D099580912903882341F040E061E028
:1023900084E594E00E943605109229038091280379
:1023A0008823B1F085E00E947C0C892B79F4809120
:1023B000530481110BC010922703F0922603E09280
:1023C000250380916F00826080936F001092280334
:1023D00020912403222339F040E061E084E00E9450
:1023E000FC0A10922403809122039091230300970A
:1023F000E1F00E944C0A81EA92E00E944C0A60914E
:10240000530470E080E090E04AE00E94DA098AEA32
:1024100092E00E944C0A6AE070E0809121030E94E1
:10242000350B109223031092220380912A0381110D
:1024300008C050922A0340E061E089E394E00E94E2
:10244000360580917B04882309F49DC11092D00445
:1024500080EB92E00E944C0A10927B0462E070E0F4
:1024600080E090E00E94110D40EC6BE38FE794E078
:102470000E94910510928A0487FF02C081E018C073
:10248000882309F447C040E86FE38FE794E00E9497
:102490009105782E80938B04811104C084E0809391
:1024A0008A0409C0ADE3A81730F410928B0483E0CE
:1024B00080938A0433C02A981C99FECF8FEF0E9424
:1024C0004E0A2CE8222E24E0322E822D8A198715FE
:1024D00038F480E00E944E0AF10181931F01F5CF8C
:1024E0002A9A40E86FE38FE794E00E949105809379
:1024F000CA0440E86FE38FE794E00E949105982FAB
:102500009F779093CB04982F991F9927991F9093A9
:10251000C90404C010928B0480928A0466E38FE79A
:1025200094E00E949D056AE38FE794E00E949D0578
:1025300063E38FE794E00E949D058FE794E00E949B
:10254000A50580918A04811115C08091C90481116B
:1025500004C081E08093D00429C082E50E94AF09C5
:102560008AE30E94AF098AE092E00E94CC097724B6
:1025700073941DC083EB92E00E944C0A80918A0400
:10258000823069F028F4813089F48EEB92E00CC03F
:10259000833041F0843051F48AED92E005C086EC3E
:1025A00092E002C08DEC92E00E94CC09712C8091E7
:1025B000D004882321F089EE92E00E94CC0983E4C4
:1025C00092E00E944C0A2091CA04622F70E080E0E1
:1025D00090E027FF09C00E94DC1720E030E040E8CF
:1025E00053E40E94C91602C00E94DC1720E030E0CC
:1025F00040E05FE30E94931820E030E044E952E4B9
:102600000E94C91642E00E94560B88E092E00E94A8
:10261000BA09772009F4B7C080918E03811103C0F5
:1026200081E080938E0360918D0480918E0450919F
:102630008F044091900430919104209192049091E4
:102640008B04975070918C04709380036093810386
:10265000682F62956F706093820350938303409359
:1026600084033093850320938603D0928803C0921D
:10267000870390938903982F917090938A0386958E
:10268000817080938B0310928C0310928D0381EFE5
:1026900092E00E944C0A6091810370E080E090E03B
:1026A0004AE00E94DA0986EF92E00E944C0A6AE052
:1026B00070E0809180030E94350B80918003882315
:1026C00009F461C09091890489135DC0209184034D
:1026D000213061F108F450C0223009F046C0E09189
:1026E0008603E83008F043C0F0E0EE0FFF1FE85A21
:1026F000FE4F6080718061147104C9F1909189036B
:10270000D30113968C911397981333C0609187036C
:10271000709188031696ED91FC911797309759F1B7
:102720008C910995282F811127C017C0E09186034D
:10273000E83010F5F0E0EE0FFF1FE85AFE4F608022
:10274000718061147104C1F0D3011496ED91FC9174
:102750001597309711F08C91099540918303609102
:102760008103C3010E9436050EC022E005C021E0AE
:1027700003C025E001C027E04091830360918103FD
:1027800083E00E94FC0A712C7394B5E67B1649F134
:1027900040EC65E38FE794E00E949105982F9F71CC
:1027A0009D3091F4E4E67E16E1F082E090E00E9434
:1027B0002A0C80917804882321F08091770481117C
:1027C00018C00E94F20116CD813129F46AE38FE727
:1027D00094E00E949D0564E38FE794E00E949D05CC
:1027E000D3CF8DEF92E00E94CC09E0E0F0E00994B5
:1027F000DCCF60E084E00E94A50C0E942B0583B72B
:10280000816083BF81E090E00E942A0C83B7817FC2
:10281000846083BFF89485B7806685BF8F7D85BF50
:102820007894889583B78E7F83BFCBCFEAE9F3E0B6
:102830001382128288EE93E0A0E0B0E08483958357
:10284000A683B7838CE691E09183808385EC90E04A
:102850009587848784EC90E09787868780EC90E06A
:10286000918B808B81EC90E0938B828B82EC90E05B
:10287000958B848B86EC90E0978B868B118E128ED5
:10288000138E148EE4E7F4E080EC85871092D40474
:102890001092D30411861086178213821482168236
:1028A000128215828091DD04E5EDF4E0808326E854
:1028B00034E03283218391E093831582148226EEE3
:1028C00035E037832683ECE6F4E021E0280F20830F
:1028D00027E834E03283218322E0238315821482A7
:1028E0004FE357E057834683E4E6F4E032E0380FE5
:1028F000308349E854E052834183938315821482E4
:102900004EE856E057834683ECE5F4E033E0380FB9
:10291000308341ED54E05283418323831582148236
:1029200049E154E057834683E4E5F4E034E0380FAE
:10293000308343E554E052834183938341E853E07D
:102940005583448347EB53E057834683EBE4F4E03D
:1029500035E0380F30834AE454E052834183938357
:10296000158214824EE853E057834683E2E4F4E094
:1029700036E0380F308361E474E0728361839383BF
:10298000158214825783468398E0980F9093DD0454
:10299000E9E3F4E0895F808387E394E092838183B5
:1029A000238315821482178216820895A0E0B0E076
:1029B000ECEDF4E10C945E165C016B017A0161159B
:1029C000710519F0FB0191838083E114F10429F072
:1029D000C7010297839708F0F1C0E5012196F50140
:1029E0001081812F90E00E94E715892B11F05E0184
:1029F000F4CF1D3229F42196F501118101E007C0C1
:102A00001B3221F4E5012296F501118100E0E11469
:102A1000F10459F1F0E1EF16F10461F41033E1F43F
:102A200088818F7D883569F519812296026070E171
:102A3000E72EF12C88E0E816F10439F12CF4F2E0ED
:102A4000EF16F104C9F12AC08AE0E816F10479F022
:102A5000E0E1EE16F10411F550E1E52EF12C812CA8
:102A6000912CA12C68E0B62E2CC01033C9F23AE0AC
:102A7000E32EF12C4CEC842E982CA82C4CE0B42E98
:102A800020C010E3E114F104A9F698E0E92EF12C3E
:102A9000812C912CA12C20E1B22E13C060E070E0BB
:102AA00080E090E897010F2C000C440B550B0E941E
:102AB000311649015A0105C0812C912CA12C80E4CA
:102AC000B82E60E020E030E0A90127010F2C000CB7
:102AD000660877081E01E0EDE10FEA3060F08FEB49
:102AE000810F8A3110F4E9EC05C08FE9810F8A313A
:102AF00028F5E9EAE10F8E2F90E08E159F05F4F49A
:102B000067FD18C082169306A406B50690F0C301AF
:102B1000B2010E9421169B01AC012E0F311D411DF7
:102B2000511D213031054105F0E85F0710F461E0E7
:102B300001C06FEF2196F1011081CCCF802F817001
:102B4000C114D10471F0662329F02197F601D183D5
:102B5000C08307C001FF19C02297F601D183C0834B
:102B600014C067FF12C0811105C02FEF3FEF4FEF78
:102B70005FE704C020E030E040E050E882E290E00F
:102B80009093E4048093E30416C0882341F05095A9
:102B90004095309521953F4F4F4F5F4F0CC057FFE9
:102BA0000AC082E290E09093E4048093E3042FEF64
:102BB0003FEF4FEF5FE7B901CA0104C060E070E08A
:102BC00080E090E0CDB7DEB7E2E10C947A16911187
:102BD0000C940816803219F089508550C8F7089572
:102BE000FC01A081B181AD01109681F03D91FB0106
:102BF000019003160110E1F7C9F7002011F4D0018C
:102C000002C01E921196FC01A083B183CA010895EF
:102C1000992788270895F999FECF92BD81BDF89A2A
:102C2000992780B50895262FF999FECF1FBA92BD36
:102C300081BD20BD0FB6F894FA9AF99A0FBE01969D
:102C40000895DB018F939F930E945316BF91AF911C
:102C5000A29F800D911DA39F900DB29F900D1124F6
:102C60000895A1E21A2EAA1BBB1BFD010DC0AA1FCD
:102C7000BB1FEE1FFF1FA217B307E407F50720F0E5
:102C8000A21BB30BE40BF50B661F771F881F991F60
:102C90001A9469F760957095809590959B01AC01A9
:102CA000BD01CF0108950E949516A59F900DB49F78
:102CB000900DA49F800D911D112408952F923F9295
:102CC0004F925F926F927F928F929F92AF92BF923C
:102CD000CF92DF92EF92FF920F931F93CF93DF93E8
:102CE000CDB7DEB7CA1BDB0B0FB6F894DEBF0FBE45
:102CF000CDBF09942A88398848885F846E847D8492
:102D00008C849B84AA84B984C884DF80EE80FD8093
:102D10000C811B81AA81B981CE0FD11D0FB6F89409
:102D2000DEBF0FBECDBFED010895A29FB001B39FDE
:102D3000C001A39F700D811D1124911DB29F700DC4
:102D4000811D1124911D0895052E97FB1EF40094FA
:102D50000E94BB1657FD07D00E94311607FC03D016
:102D60004EF40C94BB1650954095309521953F4FED
:102D70004F4F5F4F089590958095709561957F4F67
:102D80008F4F9F4F0895EE0FFF1F0590F491E02D98
:102D900009945058BB27AA270E94E1160C94541896
:102DA0000E94461838F00E944D1820F039F49F3FD9
:102DB00019F426F40C9443180EF4E095E7FB0C94F8
:102DC0003D18E92F0E94651858F3BA176207730778
:102DD0008407950720F079F4A6F50C9487180EF473
:102DE000E0950B2EBA2FA02D0B01B90190010C011B
:102DF000CA01A0011124FF27591B99F0593F50F433
:102E0000503E68F11A16F040A22F232F342F44278A
:102E1000585FF3CF469537952795A795F040539582
:102E2000C9F77EF41F16BA0B620B730B840BBAF052
:102E30009150A1F0FF0FBB1F661F771F881FC2F7BD
:102E40000EC0BA0F621F731F841F48F487957795D1
:102E50006795B795F7959E3F08F0B0CF9395880F8B
:102E600008F09927EE0F9795879508950E941918F5
:102E700008F481E008950E944F170C9454180E94A2
:102E80004D1858F00E94461840F029F45F3F29F091
:102E90000C943D1851110C9488180C9443180E94FE
:102EA000651868F39923B1F3552391F3951B550BDE
:102EB000BB27AA2762177307840738F09F5F5F4F0D
:102EC000220F331F441FAA1FA9F335D00E2E3AF04C
:102ED000E0E832D091505040E695001CCAF72BD064
:102EE000FE2F29D0660F771F881FBB1F26173707B5
:102EF0004807AB07B0E809F0BB0B802DBF01FF27E7
:102F000093585F4F3AF09E3F510578F00C943D186E
:102F10000C9488185F3FE4F3983ED4F38695779538
:102F20006795B795F7959F5FC9F7880F911D96959F
:102F3000879597F90895E1E0660F771F881FBB1FFB
:102F4000621773078407BA0720F0621B730B840BA8
:102F5000BA0BEE1F88F7E09508950E946D1888F06F
:102F60009F5798F0B92F9927B751B0F0E1F0660F4D
:102F7000771F881F991F1AF0BA95C9F714C0B1308E
:102F800091F00E948718B1E008950C948718672F7C
:102F9000782F8827B85F39F0B93FCCF386957795BD
:102FA0006795B395D9F73EF49095809570956195A6
:102FB0007F4F8F4F9F4F0895E89409C097FB3EF4D1
:102FC00090958095709561957F4F8F4F9F4F992376
:102FD000A9F0F92F96E9BB279395F69587957795F4
:102FE0006795B795F111F8CFFAF4BB0F11F460FFB4
:102FF0001BC06F5F7F4F8F4F9F4F16C0882311F00C
:1030000096E911C0772321F09EE8872F762F05C01F
:10301000662371F096E8862F70E060E02AF09A95BA
:10302000660F771F881FDAF7880F9695879597F9AF
:103030000895990F0008550FAA0BE0E8FEEF161649
:103040001706E807F907C0F012161306E407F5079C
:1030500098F0621B730B840B950B39F40A2661F010
:10306000232B242B252B21F408950A2609F4A140B3
:10307000A6958FEF811D811D089597F99F6780E8C0
:1030800070E060E008959FEF80EC089500240A94BA
:103090001616170618060906089500240A94121633
:1030A0001306140605060895092E0394000C11F466
:1030B000882352F0BB0F40F4BF2B11F460FF04C013
:1030C0006F5F7F4F8F4F9F4F089557FD9058440F6C
:1030D000551F59F05F3F71F04795880F97FB991F77
:1030E00061F09F3F79F08795089512161306140634
:1030F000551FF2CF4695F1DF08C0161617061806C1
:10310000991FF1CF86957105610508940895E8949B
:10311000BB2766277727CB0197F908950E941918D6
:1031200008F48FEF08950E94A6180C9454180E947A
:10313000461838F00E944D1820F0952311F00C9499
:103140003D180C94431811240C9488180E9465189B
:1031500070F3959FC1F3950F50E0551F629FF001EA
:10316000729FBB27F00DB11D639FAA27F00DB11D03
:10317000AA1F649F6627B00DA11D661F829F22278C
:10318000B00DA11D621F739FB00DA11D621F839F13
:10319000A00D611D221F749F3327A00D611D231FE9
:1031A000849F600D211D822F762F6A2F11249F5737
:1031B00050409AF0F1F088234AF0EE0FFF1FBB1F3A
:1031C000661F771F881F91505040A9F79E3F5105F9
:1031D00080F00C943D180C9488185F3FE4F3983EFF
:1031E000D4F3869577956795B795F795E7959F5FA3
:1031F000C1F7FE2B880F911D9695879597F9089535
:103200000E941918880B990B089581E090E0F894BA
:083210000C940A19F894FFCF99
:10321800F100F10072650035030000667300AA0230
:103228000000736100E706000073630047060000B2
:103238006464003C040000706900D8020000616109
:10324800005A040000737400DF0700007364006014
:10325800040000736C00D00200003F3F00490400E6
:103268000000000000000000D5046C0464045C0445
:1032780054044B0442043904000000008901F200A0
:103288002101D00152013001440152737420746F3E
:1032980020666163746F727900536C656570206D88
:1032A8006F6465206163746976650050696E6700B4
:1032B80053656E74005265626F6F740052535420E8
:1032C8005251004348524720004F4E004F46460097
:1032D80047455420535441542000535352205354CB
:1032E80041542000525120535441543A0020414344
:1032F800543A004462672000496E76616C69642024
:103308006368616E6E656C00536574206368616EF6
:103318006E656C20746F20000D0A00496E76616C32
:103328006964206164647200536574207261646921
:103338006F206164647220746F200043683A002033
:103348004D3A00206D3A004D4152432053544154A8
:103358004520005253534920004C51492000200970
:103368007073746174200041444452200043484102
:103378004E4E454C20004241545420006D56005397
:1033880054415420434800526573657474696E67EC
:103398002066726571207265677320746F20300033
:1033A8000A535441525400205620003F002E2C202E
:1033B800002053746174653A2000206578702000FD
:1033C800210A004343525820504B543A2000204FC2
:1033D8005652464C57002030204C454E0020494E4E
:1033E80056414C4944204C454E0020425546462003
:1033F8004C454E20495320300043524320455252F9
:10340800002053524300204445535420003F535456
:103418004154453F20524553455421006E616E008A
:08342800696E66006F76660014
:00000001FF
