:100000000C945D000C9478020C9451020C948500C1
:100010000C9485000C9485000C94F9020C948500D6
:100020000C9485000C9485000C9485000C9485003C
:100030000C9485000C9485000C9485000C9485002C
:100040000C9494050C9485000C94C5020C949F02AA
:100050000C9485000C9485000C9485000C9485000C
:100060000C9485000C9485000000000024002700FB
:100070002A0000000000250028002B0004040404CE
:100080000404040402020202020203030303030342
:10009000010204081020408001020408102001021F
:1000A00004081020000000080002010000030407FB
:1000B0000000000000000000130A11241FBECFEF53
:1000C000D8E0DEBFCDBF11E0A0E0B1E0EEE4F5E1A5
:1000D00002C005900D92AC3CB107D9F722E0ACEC20
:1000E000B1E001C01D92A938B207E1F710E0CDE5FB
:1000F000D0E004C02197FE010E949A0ACC35D107B6
:10010000C9F70E94DE050C94A50A0C94000008951E
:10011000CF92DF92EF92FF920F931F93CF93DF93D3
:100120006C017A018B01C0E0D0E0CE15DF0589F0CB
:10013000D8016D918D01D601ED91FC910190F08176
:10014000E02DC6010995892B11F47E0102C021968C
:10015000ECCFC701DF91CF911F910F91FF90EF90EE
:10016000DF90CF900895089580E090E00895FC011D
:10017000538D448D252F30E0842F90E0821B930B0C
:10018000541710F0CF96089501970895FC01918DB2
:10019000828D981761F0828DDF01A80FB11D5D96E9
:1001A0008C91928D9F5F9F73928F90E008958FEF57
:1001B0009FEF0895FC01918D828D981731F0828D0B
:1001C000E80FF11D858D90E008958FEF9FEF089562
:1001D000FC01918D228D892F90E0805C9F4F821BC6
:1001E00091098F739927089588ED91E00E94E800A6
:1001F00021E0892B09F420E0822F0895FC01848DF1
:10020000DF01A80FB11DA35ABF4F2C91848D90E040
:1002100001968F739927848FA689B7892C93A0891B
:10022000B1898C9180648C93938D848D981306C0D2
:100230000288F389E02D80818F7D80830895EF927D
:10024000FF920F931F93CF93DF93EC0181E0888F90
:100250009B8D8C8D981305C0E889F989808185FD77
:1002600024C0F62E0B8D10E00F5F1F4F0F73112768
:10027000E02E8C8DE8120CC00FB607FCFACFE8898F
:10028000F989808185FFF5CFCE010E94FE00F1CF74
:100290008B8DFE01E80FF11DE35AFF4FF0820B8FAB
:1002A000EA89FB898081806207C0EE89FF896083CB
:1002B000E889F98980818064808381E090E0DF9122
:1002C000CF911F910F91FF90EF900895CF93DF93FF
:1002D000EC01888D8823C9F0EA89FB89808185FD3E
:1002E00005C0A889B9898C9186FD0FC00FB607FC9F
:1002F000F5CF808185FFF2CFA889B9898C9185FFE0
:10030000EDCFCE010E94FE00E7CFDF91CF9108959F
:1003100080E090E0892B29F00E94F40081110C9478
:100320000000089583B78E7F83BFE89887E890E048
:10033000909301018093000181E08093D50108959D
:10034000EF92FF920F931F93CF93DF93CDB7DEB75A
:10035000C154D1090FB6F894DEBF0FBECDBF409196
:10036000CC015091CD016091CE017091CF018A01F5
:100370009B010F5F1F4F2F4F3F4F0093CC011093F6
:10038000CD012093CE013093CF019A838B834C8390
:1003900081E08D831E8282E0809376020E945E035C
:1003A00000E010E00F5F1F4F093E83E0180709F4DB
:1003B00043C060EC85E30E946503982F9F719D30D8
:1003C00009F04BC0083E1340B9F18BEC97E0019760
:1003D000F1F76AE08FE30E9470032A981C99FECF20
:1003E0008FE70E9451038E010E5F1F4F7E01ECE0EC
:1003F000EE0EF11CF80181918F010E9451030E1540
:100400001F05C1F72A9A85E30E94570382E0809373
:10041000760260EC85E30E9465038F71835183301F
:1004200018F186E30E9457038BE30E9457030E9452
:100430005E0381E0809376028BE191E0CF5BDF4F3A
:100440000FB6F894DEBF0FBECDBFDF91CF911F91E5
:100450000F91FF90EF900C944103813109F0A2CFEE
:100460008AE30E9457039ECF4A9BFECF4A99FECF54
:1004700060EC8AE30E946503182F86E30E9457030D
:100480008BE30E9457030E945E0381E08093760213
:100490001F7791F686E191E0D1CF0E94A00A0C94DB
:1004A000430A1F920F920FB60F9211242F933F937E
:1004B0004F935F936F937F938F939F93AF93BF936C
:1004C000EF93FF93E0910201F09103010995FF91F1
:1004D000EF91BF91AF919F918F917F916F915F91BC
:1004E0004F913F912F910F900FBE0F901F90189535
:1004F0001F920F920FB60F9211242F933F934F9399
:100500005F936F937F938F939F93AF93BF93EF937B
:10051000FF93E0910001F09101010995FF91EF91A6
:10052000BF91AF919F918F917F916F915F914F910B
:100530003F912F910F900FBE0F901F9018951F9213
:100540000F920FB60F9211242F933F934F935F9307
:100550006F937F938F939F93AF93BF93EF93FF938B
:1005600088ED91E00E94FE00FF91EF91BF91AF9165
:100570009F918F917F916F915F914F913F912F91BB
:100580000F900FBE0F901F9018951F920F920FB6ED
:100590000F9211242F938F939F93EF93FF93E091EA
:1005A000E801F091E9018081E091EE01F091EF0125
:1005B00082FD12C090818091F1018F5F8F73209135
:1005C000F201821751F0E091F101F0E0E852FE4FA4
:1005D000958F8093F10101C08081FF91EF919F91F0
:1005E0008F912F910F900FBE0F901F9018950C9424
:1005F0004B0A1F920F920FB60F9211248F93809186
:10060000D0018F5F8093D0018F910F900FBE0F901C
:100610001F9018953FB7F8948091850290918602BB
:10062000A0918702B091880226B5A89B05C02F3FF4
:1006300019F00196A11DB11D3FBFBA2FA92F982F08
:100640008827820F911DA11DB11DBC01CD0142E083
:10065000660F771F881F991F4A95D1F70895009755
:1006600069F0FC0101900020E9F73197AF01481BC8
:10067000590BBC0188ED91E00C94880080E090E07B
:100680000895CF93DF930E942F03EC0188EC91E053
:100690000E942F038C0F9D1FDF91CF9108950C9422
:1006A0002F038EBD0DB407FEFDCF8EB508952A9899
:1006B0001C99FECF0E9451032A9A089584E30E9458
:1006C000570381E0809376020895862B2A981C991F
:1006D000FECF0E94510380E00E9451032A9A0895A0
:1006E000CF93DF931F92CDB7DEB72A981C99FECF28
:1006F00069830E9451036981862F0E9451032A9ABF
:100700000F90DF91CF9108958F929F92AF92BF92F9
:100710000F931F93CF93DF93CDB7DEB7A1970FB69B
:10072000F894DEBF0FBECDBF19A2423008F44AE0F4
:100730008E010F5D1F4F842E912CA12CB12CA50191
:1007400094010E94590AE62FB901CA01015011090A
:10075000EA3014F4E05D01C0E95CD801EC93232B8E
:10076000242B252B61F7C8010E942F03A1960FB6F9
:10077000F894DEBF0FBECDBFDF91CF911F910F91D7
:10078000BF90AF909F908F90089522E931E0309311
:10079000010120930001E9E6F0E090819C7F892B24
:1007A0008083E89A0895CF92DF92EF92FF92CF93E1
:1007B000DF936C01990FEE08FF08F7FE1AC0E09175
:1007C000D801F091D9010190F081E02D6DE288ED22
:1007D00091E00995EC0166277727CB016C197D091B
:1007E0008E099F094AE00E9484037C01EC0EFD1EE5
:1007F00006C04AE0C701B6010E9484037C0188EC70
:1008000091E00E942F038E0D9F1DDF91CF91FF90ED
:10081000EF90DF90CF900895CF93DF93AB01672BDC
:1008200061F4E091D801F091D9010190F081E02DBF
:10083000682F88ED91E0099506C0682F70E080E090
:1008400090E00E948403EC0188EC91E00E942F0369
:100850008C0F9D1FDF91CF910895CF93C82F8130CA
:1008600081F08230E1F460E18DE00E9470036091DC
:100870007A026F548EE00E94700360917B026A5787
:100880001BC062E28DE00E94700360917A026F5497
:100890008EE00E94700360917B02655C0DC061E296
:1008A0008DE00E94700360917A026E598EE00E9482
:1008B000700360917B026A588FE00E947003C093BE
:1008C0007902CF9108951F93CF93DF9390917D028A
:1008D000981304C090917E029617F1F0142FC62F42
:1008E000D82F682F84E00E9470036C2F85E00E944F
:1008F0007003D0937D02C0937E02112369F06D2FA7
:1009000082E090E00E94F7026C2F83E090E0DF919C
:10091000CF911F910C94F702DF91CF911F91089511
:10092000CF93DF9390917C02981789F0D62FC82F30
:10093000682F8AE00E947003C0937C02DD2339F0A7
:100940006C2F80E090E0DF91CF910C94F702DF9163
:10095000CF91089590E0FC01EC55FF4F3491FC01DC
:10096000E057FF4F2491FC01E458FF4FE491EE2340
:1009700009F43BC0332339F1333091F038F431308E
:10098000A9F0323001F584B58F7D12C0373091F077
:100990003830A1F03430B9F4809180008F7D03C0ED
:1009A000809180008F77809380000DC084B58F7711
:1009B00084BD09C08091B0008F7703C08091B000E2
:1009C0008F7D8093B000F0E0EE0FFF1FEE58FF4FD9
:1009D000A591B4918FB7F894EC91611103C0209563
:1009E0002E2301C02E2B2C938FBF0895CF93DF931E
:1009F00090E0FC01E057FF4F2491FC01E458FF4FC9
:100A00008491882361F190E0880F991FFC01E859D7
:100A1000FF4FC591D491FC01EE58FF4FA591B491C1
:100A2000611109C09FB7F89488812095822388833B
:100A3000EC912E230BC0623061F49FB7F89438819B
:100A4000822F809583238883EC912E2B2C939FBF3C
:100A500006C08FB7F894E8812E2B28838FBFDF91D3
:100A6000CF9108958F929F92AF92BF92CF92DF92D3
:100A7000EF92FF926B017C010E940A034B015C0123
:100A8000C114D104E104F104F1F00E940A03DC0175
:100A9000CB0188199909AA09BB09883E9340A10591
:100AA000B10570F321E0C21AD108E108F10888EE1F
:100AB000880E83E0981EA11CB11CC114D104E1046E
:100AC000F10419F7DDCFFF90EF90DF90CF90BF904A
:100AD000AF909F908F90089561E084E00E94AA04F7
:100AE0006EE170E080E090E00E94320560E084E01A
:100AF0000E94AA0464E170E080E090E00E94320568
:100B000061E084E00E94AA046EE170E080E090E081
:100B10000E94320560E084E00E94AA0464E170E073
:100B200080E090E00C9432051F920F920FB60F9266
:100B300011242F933F938F939F93AF93BF938091F3
:100B4000810290918202A0918302B091840230913F
:100B5000800223E0230F2D3720F40196A11DB11D43
:100B600005C026E8230F0296A11DB11D2093800227
:100B70008093810290938202A0938302B0938402B7
:100B80008091850290918602A0918702B09188029F
:100B90000196A11DB11D8093850290938602A093BA
:100BA0008702B0938802BF91AF919F918F913F913F
:100BB0002F910F900FBE0F901F901895CF93DF933A
:100BC000CDB7DEB7C154D1090FB6F894DEBF0FBE62
:100BD000CDBF789484B5826084BD84B5816084BDC6
:100BE00085B5826085BD85B5816085BD80916E00CB
:100BF000816080936E0010928100809181008260FC
:100C00008093810080918100816080938100809138
:100C100080008160809380008091B1008460809327
:100C2000B1008091B00081608093B00080917A0023
:100C3000846080937A0080917A00826080937A0049
:100C400080917A00816080937A0080917A00806838
:100C500080937A001092C100E091E801F091E901DF
:100C600082E08083E091E801F091E9011082E09157
:100C7000E401F091E5011082E091E601F091E701D5
:100C800080E180831092F001E091EC01F091ED01A0
:100C900086E08083E091EA01F091EB018081806140
:100CA0008083E091EA01F091EB018081886080838C
:100CB000E091EA01F091EB01808180688083E0910E
:100CC000EA01F091EB0180818F7D808361E084E017
:100CD0000E94F60460E084E00E94AA040E946C0571
:100CE00061E08AE00E94AA0461E08AE00E94F604C2
:100CF00061E08BE00E94F60460E08CE00E94F60464
:100D000061E08DE00E94F60461E08DE00E94AA049B
:100D100060E08BE00E94AA0481E58CBD60E082E087
:100D20000E94F6042A9A8FE090E00197F1F72A9842
:100D300083E290E00197F1F72A9A8FE990E001971A
:100D4000F1F72A981C99FECF80E30E9451031C9969
:100D5000FECF2A9A69E280E00E9470036EE281E091
:100D60000E94700366E082E00E94700367E083E007
:100D70000E9470036FEF86E00E94700366E087E0D8
:100D80000E94700365E088E00E94700340E067E421
:100D900085EB0E94630480917F028F3F39F06FEFF3
:100DA00089E00E9470038FEF80937F0260E080E013
:100DB0000E94900468E08BE00E94700360E08CE089
:100DC0000E94700380E00E942D046AEC80E10E9482
:100DD000700363E881E10E94700363E982E10E948D
:100DE000700362E283E10E94700368EF84E10E9475
:100DF000700365E385E10E94700367E086E10E946D
:100E0000700360E287E10E94700368E188E10E945C
:100E1000700366E189E10E9470036CE68AE10E943A
:100E2000700363E48BE10E94700360E48CE10E9434
:100E3000700361E98DE10E94700367E88EE10E9412
:100E400070036BE68FE10E9470036BEF80E20E94FB
:100E5000700366E581E20E94700360E182E20E9415
:100E6000700369EE83E20E9470036AE284E20E94EA
:100E7000700360E085E20E9470036FE186E20E94E9
:100E8000700361E487E20E94700360E088E20E94E0
:100E9000700369E589E20E9470036FE78AE20E94AD
:100EA00070036FE38BE20E94700361E88CE20E94A2
:100EB000700365E38DE20E94700369E08EE20E9498
:100EC000700386E090E00E944F0280937A0287E0F0
:100ED00090E00E944F0280937B0280E090E00E94AD
:100EE0004F028A3018F460E00E94900482E090E0A3
:100EF0000E944F02182F83E090E00E944F029FEF64
:100F0000910F9E3F20F09FEF980F9E3F28F440E006
:100F1000682F812F0E94630484E090E00E944F02BA
:100F2000182F882351F080917F02811731F0612FB3
:100F300089E00E94700310937F02609177028EE334
:100F40000E94700380917B028F3FD1F480917A02DE
:100F50008F3FB1F482E291E00E944F0310927A0237
:100F600010927B0260E086E090E00E94F70260E071
:100F700087E090E00E94F702809179020E942D04A0
:100F800041E067E485EB0E94630480917F028F3F1C
:100F900039F06FEF89E00E9470038FEF80937F023A
:100FA00082E00E942D0464E087E00E9470038BE3DE
:100FB00091E00E944F0360EC80E30E9465036AE0C9
:100FC00070E00E940C048BE491E00E944F0360ECFF
:100FD00081E30E9465036AE070E00E940C048BE5E7
:100FE00091E00E944F0360EC85E30E9465038F71DE
:100FF00090E00E94D30382E090E00E94C5038DE65A
:1010000091E00E9441038FEF90E00E94A0018EE4E6
:10101000E82E94EB492E9BE2592E91E1692E712C1A
:101020006E0182E0C80ED11C26E0322E8091D001E4
:101030008A3008F442C01092D001E0927C0062E055
:1010400070E080E090E00E94320580917A00806438
:1010500080937A0080917A0086FDFCCF2091780001
:101060008091790030E0382B032E000C440B550B97
:10107000C301B2010E947B0A2430E0E13E07410532
:10108000510554F08CE791E00E944F0388E891E00D
:101090000E94410360E00EC02D3A3D4041055105DC
:1010A00064F48CE791E00E944F038CE891E00E9489
:1010B000410361E080E10E94AA0488ED91E00E9472
:1010C000E800181619060CF0F8C088ED91E00E94AF
:1010D000C6008B32910521F480917A028F5F06C0A1
:1010E0008D32910549F480917A02815080937A0281
:1010F00081E08093D301A4C08633910521F48091CF
:101100007B028F5F06C08433910531F480917B02AE
:10111000815080937B02ECCF8833910529F4809134
:101120007C0261E08F5F07C08233910551F48091AA
:101130007C0261E081500E94900481E08093D201A2
:101140007FC08337910529F48FEF90E00E94A001C2
:1011500077C08936910509F473C08137910521F470
:1011600081E08093D6016CC08737910519F4109205
:10117000D60166C084369105D1F41092D1018091D8
:10118000D1018F3208F05CC060E80E9465036AE01C
:1011900070E00E940C0464E070E080E090E00E9447
:1011A00032058091D1018F5F8093D101E8CF8D36D8
:1011B000910549F460EC85E30E9465038F7190E02E
:1011C0000E94D3033DC08037910539F49091D4013A
:1011D00081E089278093D40133C08237910581F55E
:1011E0008FE891E00E944F0360EC84E30E94650366
:1011F000682F87FD60956695665B70E080E090E003
:101200004AE00E94840385E991E00E944F0360EC6C
:1012100083E30E9465038095682F6F7370E080E020
:1012200090E04AE00E9484038BE991E00E944F0322
:1012300060EC88E30E94650362E070E00E940C04A9
:101240008091D201882361F01092D20184EA91E06A
:101250000E944F036AE070E080917C020E940C04BF
:101260008091D301882349F110917B0260917A0229
:1012700086E090E00E94F702612F87E090E00E94F4
:10128000F702809179020E942D041092D3018AEA1C
:1012900091E00E944F0360917A0270E080E090E05C
:1012A00040E10E9484038EEA91E00E944F0360E1D6
:1012B00070E080917B020E940C048091D50188230C
:1012C00009F474C082EB91E00E944F031092D501A3
:1012D00062E070E080E090E00E94320560EC8BE319
:1012E0000E946503982F9F7751F187FD28C060E821
:1012F0008FE30E946503082F8E3308F52A981C9906
:10130000FECF8FEF0E94510356018A2D8C19801752
:1013100038F480E00E945103F50181935F01F5CF1D
:101320002A9A60E88FE30E94650360E88FE30E94D9
:101330006503982F991F9927991FF92E01C000E086
:1013400086E30E9457038AE30E9457030E945E03CC
:10135000002341F1F11004C084EB91E00E944103AD
:101360000E946C058091D401811104C081E08093BA
:10137000D7011CC08CEB91E00E944F034601A12CC9
:10138000B12C10E0A016B1068CF7F40161914F0169
:1013900070E080E090E040E10E948403FFEFAF1A2C
:1013A000BF0AF0CF80EC91E00E9441038091D70109
:1013B000882361F06CE271E080E090E00E943205E9
:1013C0008AEA90E00E94A0011092D70182E090E0AA
:1013D0000E94C5038091D601882311F1809160009D
:1013E000886180936000309260008091600080642A
:1013F0008093600083B7816083BF81E090E00E94AA
:10140000C50383B7817F846083BFF89485B7806606
:1014100085BF8F7D85BF7894889583B78E7F83BF86
:101420000E94880103CEE8EDF1E01382128288EE7B
:1014300093E0A0E0B0E084839583A683B78388E03F
:1014400091E09183808385EC90E09587848784EC9C
:1014500090E09787868780EC90E0918B808B81EC81
:1014600090E0938B828B82EC90E0958B848B86EC62
:1014700090E0978B868B118E128E138E148E88ECD3
:10148000809377020895F999FECF92BD81BDF89AB5
:10149000992780B50895262FF999FECF1FBA92BDDE
:1014A00081BD20BD0FB6F894FA9AF99A0FBE019645
:1014B0000895A1E21A2EAA1BBB1BFD010DC0AA1F95
:1014C000BB1FEE1FFF1FA217B307E407F50720F0AD
:1014D000A21BB30BE40BF50B661F771F881F991F28
:1014E0001A9469F760957095809590959B01AC0171
:1014F000BD01CF010895052E97FB1EF400940E94B4
:10150000920A57FD07D00E94590A07FC03D04EF4F7
:101510000C94920A50954095309521953F4F4F4F2E
:101520005F4F089590958095709561957F4F8F4F8F
:101530009F4F0895EE0FFF1F0590F491E02D099441
:0E15400081E090E0F8940C94A50AF894FFCF97
:10154E0087008700000000001F018800B7006601B9
:10155E00E800C600DA00533A4F4B00533A46414971
:10156E004C00526573657474696E6720667265719E
:10157E00207265677320746F203000434331313021
:10158E00315F504152544E554D200043433131305E
:10159E00315F56455253494F4E200043433131304F
:1015AE00315F4D4152435354415445200043433122
:1015BE0031303120696E6974206F6B0042204348D0
:1015CE00415247494E4720004F4646004F4E00526B
:1015DE005353492000094C5149200020097073745F
:1015EE00617420004368616E2000204D3A00206D2A
:1015FE003A0021006372632065727200443A200043
:0C160E004E6F2064617461000D0A000042
:00000001FF
