:100000000C945D000C9426020C94FF010C94850066
:100010000C9485000C9485000C94AF020C94850020
:100020000C9485000C94A5020C9485000C9485001A
:100030000C9485000C9485000C9485000C9485002C
:100040000C94D6050C9485000C9473020C944D020C
:100050000C9485000C9485000C9485000C9485000C
:100060000C9485000C9485000000000024002700FB
:100070002A0000000000250028002B0004040404CE
:100080000404040402020202020203030303030342
:10009000010204081020408001020408102001021F
:1000A00004081020000000080002010000030407FB
:1000B0000000000000000000BF0B11241FBECFEFA6
:1000C000D8E0DEBFCDBF11E0A0E0B1E0EAEBF8E19F
:1000D00002C005900D92AA3DB107D9F722E0AAED22
:1000E000B1E001C01D92AF3AB207E1F710E0CDE5F3
:1000F000D0E004C02197FE010E943A0CCC35D10714
:10010000C9F70E9420060C945B0C0C940000089523
:10011000CF92DF92EF92FF920F931F93CF93DF93D3
:100120006C017A018B01C0E0D0E0CE15DF0589F0CB
:10013000D8016D918D01D601ED91FC910190F08176
:10014000E02DC6010995892B11F47E0102C021968C
:10015000ECCFC701DF91CF911F910F91FF90EF90EE
:10016000DF90CF900895089580E090E00895FC011D
:10017000538D448D252F30E0842F90E0821B930B0C
:10018000541710F0CF96089501970895FC01918DB2
:10019000828D981761F0828DDF01A80FB11D5D96E9
:1001A0008C91928D9F5F9F73928F90E008958FEF57
:1001B0009FEF0895FC01918D828D981731F0828D0B
:1001C000E80FF11D858D90E008958FEF9FEF089562
:1001D000FC01918D228D892F90E0805C9F4F821BC6
:1001E00091098F739927089583EE91E00E94E800AA
:1001F00021E0892B09F420E0822F0895FC01848DF1
:10020000DF01A80FB11DA35ABF4F2C91848D90E040
:1002100001968F739927848FA689B7892C93A0891B
:10022000B1898C9180648C93938D848D981306C0D2
:100230000288F389E02D80818F7D80830895EF927D
:10024000FF920F931F93CF93DF93EC0181E0888F90
:100250009B8D8C8D981305C0E889F989808185FD77
:1002600024C0F62E0B8D10E00F5F1F4F0F73112768
:10027000E02E8C8DE8120CC00FB607FCFACFE8898F
:10028000F989808185FFF5CFCE010E94FE00F1CF74
:100290008B8DFE01E80FF11DE35AFF4FF0820B8FAB
:1002A000EA89FB898081806207C0EE89FF896083CB
:1002B000E889F98980818064808381E090E0DF9122
:1002C000CF911F910F91FF90EF900895CF93DF93FF
:1002D000EC01888D8823C9F0EA89FB89808185FD3E
:1002E00005C0A889B9898C9186FD0FC00FB607FC9F
:1002F000F5CF808185FFF2CFA889B9898C9185FFE0
:10030000EDCFCE010E94FE00E7CFDF91CF9108959F
:1003100080E090E0892B29F00E94F40081110C9478
:100320000000089583B78E7F83BFE89887E890E048
:10033000909301018093000181E0809380020895F1
:100340000F931F93CF93DF93CDB7DEB7C154D1097D
:100350000FB6F894DEBF0FBECDBF2AE029834091CF
:10036000DA015091DB016091DC017091DD018A01BD
:100370009B010F5F1F4F2F4F3F4F0093DA011093E8
:10038000DB012093DC013093DD019A838B834C8366
:1003900081E08D831E822DB73EB7215431090FB6FF
:1003A000F8943EBF0FBE2DBFADB7BEB7119681E426
:1003B000FE01319601900D928A95E1F788E892E06E
:1003C0000E94A0030FB6F894DEBF0FBECDBF8823F6
:1003D00019F086E191E002C08BE191E0CF5BDF4F45
:1003E0000FB6F894DEBF0FBECDBFDF91CF911F9146
:1003F0000F910C948A030C94450C0E94400C1F92A0
:100400000F920FB60F9211242F933F934F935F9348
:100410006F937F938F939F93AF93BF93EF93FF93CC
:10042000E0910201F09103010995FF91EF91BF91D5
:10043000AF919F918F917F916F915F914F913F917C
:100440002F910F900FBE0F901F9018951F920F9233
:100450000FB60F9211242F933F934F935F936F9397
:100460007F938F939F93AF93BF93EF93FF93E0910D
:100470000001F09101010995FF91EF91BF91AF91BA
:100480009F918F917F916F915F914F913F912F91AC
:100490000F900FBE0F901F9018951F920F920FB6DE
:1004A0000F9211242F933F934F935F936F937F93FA
:1004B0008F939F93AF93BF93EF93FF9383EE91E05E
:1004C0000E94FE00FF91EF91BF91AF919F918F919C
:1004D0007F916F915F914F913F912F910F900FBE40
:1004E0000F901F9018951F920F920FB60F92112424
:1004F0002F938F939F93EF93FF93E091F301F091EC
:10050000F4018081E091F901F091FA0182FD12C0BD
:1005100090818091FC018F5F8F732091FD01821784
:1005200051F0E091FC01F0E0ED51FE4F958F80938A
:10053000FC0101C08081FF91EF919F918F912F91DC
:100540000F900FBE0F901F9018951F920F920FB62D
:100550000F9211240F900FBE0F901F9018951F92AD
:100560000F920FB60F9211248F93EF93FF93E0E851
:10057000F2E084818F5F8483FF91EF918F910F90E0
:100580000FBE0F901F9018950C944D0C862F842B46
:100590002A981C99FECF0E949A0380E00E949A0339
:1005A0002A9A0895862F2A981C99FECF0E949A03B2
:1005B0002A9A0895CF93DF93EC0164E30E94D2025C
:1005C00081E08983DF91CF910895CF93DF931F92CC
:1005D000CDB7DEB7862F2A981C99FECF49830E949B
:1005E0009A034981842F0E949A032A9A0F90DF91DF
:1005F000CF9108951F93CF93DF93EC01162F6130B5
:1006000079F06230D1F440E16DE00E94E5024D8165
:100610004F546EE0CE010E94E5024E814A5719C048
:1006200042E26DE00E94E5024D814F546EE0CE0142
:100630000E94E5024E81455C0CC041E26DE00E94E3
:10064000E5024D814E596EE0CE010E94E5024E81D9
:100650004A586FE0CE010E94E5021C83DF91CF91E2
:100660001F9108950F931F93CF93DF93FC01278170
:100670002617A1F0D42FC62F8C01462F6AE00E94C6
:10068000E502F801C783DD2349F06C2F80E090E09C
:10069000DF91CF911F910F910C94C402DF91CF9104
:1006A0001F910F9108953FB7F8948091AB029091FC
:1006B000AC02A091AD02B091AE0226B5A89B05C0D8
:1006C0002F3F19F00196A11DB11D3FBFBA2FA92FD1
:1006D000982F8827820F911DA11DB11DBC01CD014E
:1006E00042E0660F771F881F991F4A95D1F708953A
:1006F000009769F0FC0101900020E9F73197AF0104
:10070000481B590BBC0183EE91E00C94880080E0FB
:1007100090E00895CF93DF930E947803EC0186ED7B
:1007200091E00E9478038C0F9D1FDF91CF91089577
:100730000C9478038EBD0DB407FEFDCF8EB50895E1
:10074000AF92BF92DF92EF92FF920F931F93CF93DE
:10075000DF93CDB7DEB78C0182E0F8018183C80159
:100760000E94DA02E12CF12CFFEFEF1AFF0A89EE6A
:10077000E81683E0F80649F140EC65E3C8010E9401
:10078000C602982F9F719D3011F528C02A9A65E303
:10079000C8010E94D20282E0F801818340EC65E347
:1007A000C8010E94C6028F7183518330E0F166E375
:1007B000C8010E94D2026BE3C8010E94D202C801A4
:1007C0000E94DA0281E0F8018183F12C48C0813176
:1007D00059F66AE3C8010E94D202C6CFF8EEEF16BE
:1007E000F3E0FF0691F38BEC97E00197F1F7DC84DF
:1007F0004D2D6FE3C8010E94E5022A981C99FECF97
:100800008FE70E949A035E01EDE0AE0EB11C750108
:100810008E2D8A198D1508F0B9CFF70181917F01CE
:100820000E949A03F5CF4A9BFECF4A99FECF40EC37
:100830006AE3C8010E94C6028F77FF24F3948111F6
:10084000F12C66E3C8010E94D2026BE3C8010E944A
:10085000D202C8010E94DA0281E0F80181838F2D63
:10086000DF91CF911F910F91FF90EF90DF90BF909C
:10087000AF9008958F929F92AF92BF920F931F9364
:10088000CF93DF93CDB7DEB7A1970FB6F894DEBF55
:100890000FBECDBF19A2423008F44AE08E010F5DB1
:1008A0001F4F842E912CA12CB12CA50194010E94E4
:1008B000F90BE62FB901CA0101501109EA3014F40D
:1008C000E05D01C0E95CD801EC93232B242B252BA0
:1008D00061F7C8010E947803A1960FB6F894DEBFB5
:1008E0000FBECDBFDF91CF911F910F91BF90AF9001
:1008F0009F908F900895CF92DF92EF92FF92CF93C7
:10090000DF936C01990FEE08FF08F7FE1AC0E09123
:10091000E301F091E4010190F081E02D6DE283EEBE
:1009200091E00995EC0166277727CB016C197D09C9
:100930008E099F094AE00E943A047C01EC0EFD1EDC
:1009400006C04AE0C701B6010E943A047C0186ED68
:1009500091E00E9478038E0D9F1DDF91CF91FF9053
:10096000EF90DF90CF900895CF93DF93AB01672B8B
:1009700061F4E091E301F091E4010190F081E02D58
:10098000682F83EE91E0099506C0682F70E080E043
:1009900090E00E943A04EC0186ED91E00E94780319
:1009A0008C0F9D1FDF91CF91089522E931E03093A4
:1009B000010120930001E9E6F0E090819C7F892B02
:1009C0008083E89A08951F93CF93DF9390919002CC
:1009D000981304C090919102961711F1142FC62F0D
:1009E000D82F482F64E088E892E00E94E5024C2F5F
:1009F00065E088E892E00E94E502D0939002C093FF
:100A00009102112369F06D2F82E090E00E94C402F0
:100A10006C2F83E090E0DF91CF911F910C94C40282
:100A2000DF91CF911F91089590E0FC01EC55FF4FAD
:100A30003491FC01E057FF4F2491FC01E458FF4F33
:100A4000E491EE2309F43BC0332339F1333091F0C4
:100A500038F43130A9F0323001F584B58F7D12C001
:100A6000373091F03830A1F03430B9F48091800003
:100A70008F7D03C0809180008F77809380000DC0B0
:100A800084B58F7784BD09C08091B0008F7703C093
:100A90008091B0008F7D8093B000F0E0EE0FFF1FDB
:100AA000EE58FF4FA591B4918FB7F894EC91611176
:100AB00003C020952E2301C02E2B2C938FBF0895A9
:100AC000CF93DF9390E0FC01E057FF4F2491FC01AE
:100AD000E458FF4F8491882361F190E0880F991FBB
:100AE000FC01E859FF4FC591D491FC01EE58FF4F2E
:100AF000A591B491611109C09FB7F89488812095A0
:100B000082238883EC912E230BC0623061F49FB75F
:100B1000F8943881822F809583238883EC912E2B43
:100B20002C939FBF06C08FB7F894E8812E2B2883A3
:100B30008FBFDF91CF9108958F929F92AF92BF9216
:100B4000CF92DF92EF92FF926B017C010E945303E0
:100B50004B015C01C114D104E104F104F1F00E94E5
:100B60005303DC01CB0188199909AA09BB09883E06
:100B70009340A105B10570F321E0C21AD108E10844
:100B8000F10888EE880E83E0981EA11CB11CC114E8
:100B9000D104E104F10419F7DDCFFF90EF90DF906D
:100BA000CF90BF90AF909F908F9008951F920F921B
:100BB0000FB60F9211242F933F938F939F93AF9370
:100BC000BF938091A7029091A802A091A902B09131
:100BD000AA023091A60223E0230F2D3720F40196BC
:100BE000A11DB11D05C026E8230F0296A11DB11D50
:100BF0002093A6028093A7029093A802A093A90233
:100C0000B093AA028091AB029091AC02A091AD0288
:100C1000B091AE020196A11DB11D8093AB029093DD
:100C2000AC02A093AD02B093AE02BF91AF919F9181
:100C30008F913F912F910F900FBE0F901F9018959D
:100C4000CF93DF93CDB7DEB7C258D1090FB6F89472
:100C5000DEBF0FBECDBF789484B5826084BD84B5FD
:100C6000816084BD85B5826085BD85B5816085BDA7
:100C700080916E00816080936E001092810080915F
:100C800081008260809381008091810081608093E7
:100C90008100809180008160809380008091B1000C
:100CA00084608093B1008091B00081608093B00037
:100CB00080917A00846080937A0080917A008260CB
:100CC00080937A0080917A00816080937A0080918D
:100CD0007A00806880937A001092C100E091F3015D
:100CE000F091F40182E08083E091F301F091F4014E
:100CF0001082E091EF01F091F0011082E091F1019A
:100D0000F091F20180E180831092FB01E091F70104
:100D1000F091F80186E08083E091F501F091F60111
:100D2000808180618083E091F501F091F6018081FE
:100D300088608083E091F501F091F6018081806800
:100D40008083E091F501F091F60180818F7D8083B1
:100D500061E084E00E94600560E084E00E94140588
:100D600061E084E00E9414056EE170E080E090E0B4
:100D70000E949C0560E084E00E94140564E170E03C
:100D800080E090E00E949C0561E084E00E941405F0
:100D90006EE170E080E090E00E949C0560E084E0FD
:100DA0000E94140564E170E080E090E00E949C05E0
:100DB000E091660020918000309181008FE3809364
:100DC000660010926F001092700080E28093B6006F
:100DD000109280001092B00081E08093B100809367
:100DE0008100B09A109285001092840080E444E65D
:100DF00050E060E070E0F1E08150A9F1B89A109203
:100E0000B2009091B600937191F0B09BFACFB09A76
:100E100010928500109284004150510961097109B6
:100E200081F71092B600E093660080E02DC0F09349
:100E300081001092850010928400B89BFECF109222
:100E40008100A0918400B0918500A735B44F20F0B7
:100E500090916600915015C0A0918400B0918500DA
:100E6000A23FB34F58F01092B600B89A1092B20059
:100E7000209380003093810081E006C0909166004D
:100E80009F5F90936600B8CF8093870261E08AE00D
:100E90000E94140561E08AE00E94600561E08BE039
:100EA0000E94600560E08CE00E94600561E08DE0DA
:100EB0000E94600561E08DE00E94140560E08BE017
:100EC0000E94140581E58CBD60E082E00E9460050F
:100ED0002A9A8FE090E00197F1F72A9883E290E058
:100EE0000197F1F72A9A8FE990E00197F1F72A9894
:100EF0001C99FECF80E30E949A031C99FECF2A9A88
:100F000049E260E088E892E00E94E5024EE261E09A
:100F100088E892E00E94E50246E062E088E892E01C
:100F20000E94E50247E063E088E892E00E94E50263
:100F30004FEF66E088E892E00E94E50246E067E055
:100F400088E892E00E94E50245E068E088E892E0E7
:100F50000E94E50240E067E485EB0E94E304809193
:100F600092028F3F49F04FEF69E088E892E00E94DB
:100F7000E5028FEF8093920240E060E088E892E023
:100F80000E94320348E06BE088E892E00E94E502AC
:100F900040E06CE088E892E00E94E50260E088E8CA
:100FA00092E00E94FA024AEC60E188E892E00E9436
:100FB000E50243E861E188E892E00E94E50243E946
:100FC00062E188E892E00E94E50242E263E188E89B
:100FD00092E00E94E50248EF64E188E892E00E9416
:100FE000E50245E365E188E892E00E94E50247E01A
:100FF00066E188E892E00E94E50240E267E188E865
:1010000092E00E94E50248E168E188E892E00E94EF
:10101000E50246E169E188E892E00E94E5024CE6DB
:101020006AE188E892E00E94E50243E46BE188E827
:1010300092E00E94E50240E46CE188E892E00E94C0
:10104000E50241E96DE188E892E00E94E50247E8A7
:101050006EE188E892E00E94E5024BE66FE188E8E5
:1010600092E00E94E5024BEF60E288E892E00E9485
:10107000E50246E561E288E892E00E94E50240E18F
:1010800062E288E892E00E94E50249EE63E288E8C5
:1010900092E00E94E5024AE264E288E892E00E945F
:1010A000E50240E065E288E892E00E94E5024FE157
:1010B00066E288E892E00E94E50241E467E288E89F
:1010C00092E00E94E50240E068E288E892E00E9437
:1010D000E50249E569E288E892E00E94E5024FE70F
:1010E0006AE288E892E00E94E5024FE36BE288E85A
:1010F00092E00E94E50241E86CE288E892E00E94FA
:10110000E50245E36DE288E892E00E94E50249E0ED
:101110006EE288E892E00E94E50286E090E00E949C
:10112000FB0180938D0287E090E00E94FB01809399
:101130008E0280E090E00E94FB018A3030F440E0B3
:10114000682F88E892E00E94320382E090E00E94DB
:10115000FB01182F83E090E00E94FB019FEF910FAD
:101160009E3F20F09FEF980F9E3F28F440E0682FAD
:10117000812F0E94E30484E090E00E94FB01182F7D
:10118000882361F080919202811741F0412F69E03C
:1011900088E892E00E94E5021093920240918A0250
:1011A0006EE388E892E00E94E50280918E028F3F14
:1011B000E1F480918D028F3FC1F482E291E00E94C0
:1011C000980310928D0210928E0260E086E090E00B
:1011D0000E94C40260E087E090E00E94C402609137
:1011E0008C0288E892E00E94FA0241E067E485EB15
:1011F0000E94E304809192028F3F49F04FEF69E033
:1012000088E892E00E94E5028FEF8093920262E00C
:1012100088E892E00E94FA0244E067E088E892E001
:101220000E94E5021092930285E090E00E94450C36
:101230008093960286E090E00E94450C809397028E
:1012400083EC90E00197F1F788E892E00E94DA02DF
:1012500082E090E00E94D5041092940281E0809395
:1012600095028BE391E00E94980340EC60E388E8EC
:1012700092E00E94C6026AE070E00E94B4048BE42F
:1012800091E00E94980340EC61E388E892E00E94BC
:10129000C6026AE070E00E94B4048BE591E00E940F
:1012A000980340EC65E388E892E00E94C6028F71E3
:1012B00090E00E947B048DE691E00E948A038FEF0C
:1012C00090E00E94A00184EB482E8BE2582E81E131
:1012D000682E712C7E01E3E4EE0EF11C90EF892E56
:1012E00021E4322E36E0232E809184028A3008F4E5
:1012F00047C0109284028CE791E00E949803FEE4BC
:10130000F0937C0062E070E080E090E00E949C0539
:1013100080917A00806480937A0080917A0086FDC3
:10132000FCCF209178008091790030E0382B032E9B
:10133000000C440B550BC301B2010E941B0C24305E
:1013400080E138074105510554F08AE891E00E9498
:10135000980386E991E00E948A0360E00EC02D3A6E
:101360003D404105510564F48AE891E00E949803EC
:101370008AE991E00E948A0361E080E10E941405FD
:1013800083EE91E00E94E800181619060CF005C1E2
:1013900083EE91E00E94C6008B32910521F480918A
:1013A0008D028F5F06C08D32910549F480918D02C8
:1013B000815080938D0281E08093E101AFC086333C
:1013C000910521F480918E028F5F06C084339105D0
:1013D00031F480918E02815080938E02ECCF88335D
:1013E000910521F460918F026F5F06C082339105F1
:1013F00061F460918F02615041E088E892E00E94C0
:10140000320381E08093E00189C08337910529F49C
:101410008FEF90E00E94A00181C08936910509F408
:101420007DC08137910521F481E08093820276C0EE
:101430008737910519F41092820270C084369105A5
:10144000E1F41092DF016091DF016F3208F066C0B5
:1014500040E888E892E00E94C6026AE070E00E94DC
:10146000B40464E070E080E090E00E949C0580910C
:10147000DF018F5F8093DF01E6CF8D36910559F450
:1014800040EC65E388E892E00E94C6028F7190E02C
:101490000E947B0443C08037910539F49091DE01AE
:1014A00081E089278093DE0139C082379105B1F54B
:1014B0008DE991E00E94980340EC64E388E892E0B3
:1014C0000E94C602682F87FD60956695665B70E096
:1014D00080E090E04AE00E943A0483EA91E00E94B2
:1014E000980340EC63E388E892E00E94C60280958E
:1014F000682F6F7370E080E090E04AE00E943A0449
:1015000089EA91E00E94980340EC68E388E892E061
:101510000E94C60262E070E00E94B4048091E00183
:10152000882361F01092E00182EB91E00E94980321
:101530006AE070E080918F020E94B4048091E10122
:10154000882359F110918E0260918D0286E090E01F
:101550000E94C402612F87E090E00E94C402609163
:101560008C0288E892E00E94FA021092E10188EB76
:1015700091E00E94980360918D0270E080E090E01D
:1015800040E10E943A048CEB91E00E94980360E1F4
:1015900070E080918E020E94B404809180028823C2
:1015A00009F4B0C080EC91E00E9498031092800290
:1015B00062E070E080E090E00E949C0540EC6BE30C
:1015C00088E892E00E94C602982F9F7781F187FDFC
:1015D0002EC040E86FE388E892E00E94C602082F20
:1015E0008E3328F52A981C99FECF8FEF0E949A031C
:1015F00067018C2D8E19801738F480E00E949A03C1
:10160000F60181936F01F5CF2A9A40E86FE388E8ED
:1016100092E00E94C60240E86FE388E892E00E94F0
:10162000C602982F991F9927991F992E01C000E093
:1016300066E388E892E00E94D2026AE388E892E0DA
:101640000E94D20288E892E00E94DA02002309F4A4
:1016500055C0911004C082EC91E00E948A038091F1
:101660008302811130C06CE271E080E090E00E9462
:101670009C058AE089831A828B82809181028C8307
:101680001D821E822DB73EB7215431090FB6F89442
:101690003EBF0FBE2DBFADB7BEB71196FE0131964E
:1016A000832D01900D928A95E1F788E892E00E94DF
:1016B000A0030FB6F894DEBF0FBECDBF8823D9F0CC
:1016C00086E191E01DC08AEC91E00E9498035701E9
:1016D000C12CD12C10E0C016D1062CF6F501619179
:1016E0005F0170E080E090E040E10E943A04FFEF8B
:1016F000CF1ADF0AF0CF8BE191E002C08EEC91E0CF
:101700000E948A038091E201882361F06CE271E01B
:1017100080E090E00E949C058AEA90E00E94A0018F
:101720001092E20182E090E00E94D5048091820252
:10173000882311F18091600088618093600020927D
:1017400060008091600080648093600083B7816056
:1017500083BF81E090E00E94D50483B7817F8460DD
:1017600083BFF89485B7806685BF8F7D85BF7894E9
:10177000889583B78E7F83BF0E948801B5CDE3EE45
:10178000F1E01382128288EE93E0A0E0B0E084835F
:101790009583A683B78388E091E09183808385EC6D
:1017A00090E09587848784EC90E09787868780EC2B
:1017B00090E0918B808B81EC90E0938B828B82EC1C
:1017C00090E0958B848B86EC90E0978B868B118EC6
:1017D000128E138E148EE0E8F2E088EC828715A258
:1017E00014A2168215821082128214821182138230
:1017F0000895A1E21A2EAA1BBB1BFD010DC0AA1F52
:10180000BB1FEE1FFF1FA217B307E407F50720F069
:10181000A21BB30BE40BF50B661F771F881F991FE4
:101820001A9469F760957095809590959B01AC012D
:10183000BD01CF010895052E97FB1EF400940E9470
:10184000320C57FD07D00E94F90B07FC03D04EF471
:101850000C94320C50954095309521953F4F4F4F49
:101860005F4F089590958095709561957F4F8F4F4C
:101870009F4F0895EE0FFF1F0590F491E02D0994FE
:1018800081E090E0F8940C945B0CF999FECF92BD46
:1018900081BDF89A992780B50895262FF999FECF32
:1018A0001FBA92BD81BD20BD0FB6F894FA9AF99A7D
:0A18B0000FBE01960895F894FFCFD3
:1018BA0087008700000000001F018800B70066014A
:1018CA00E800C600DA00533A4F4B00533A46414902
:1018DA004C00526573657474696E6720667265712F
:1018EA00207265677320746F2030004343313130B2
:1018FA00315F504152544E554D20004343313130EF
:10190A00315F56455253494F4E20004343313130DF
:10191A00315F4D41524353544154452000434331B2
:10192A0031303120696E6974206F6B00436B20621D
:10193A006174742073746174650042204348415293
:10194A0047494E4720004F4646004F4E00525353D8
:10195A00492000094C5149200020097073746174B0
:10196A0020004368616E2000204D3A00206D3A0045
:10197A0021006372632065727200443A20004E6F40
:0A198A002064617461000D0A000082
:00000001FF
