:100000000C94A9000C948A030C9463030C94D10003
:100010000C94D1000C94D1000C9413040C94D100D6
:100020000C94D1000C9409040C94D1000C942C066F
:100030000C94D1000C94D1000C94D1000C94D100FC
:100040000C940C0A0C94D1000C94D7030C94B103BB
:100050000C94D1000C94D1000C94D1000C94D100DC
:100060000C94D1000C94D1007265205265737461B8
:1000700072740D0A73612053657420726164696F34
:1000800020616464726573730D0A66732052657330
:10009000657420656570726F6D20746F2066616392
:1000A000746F72792073657474696E67730D0A6476
:1000B0006420456E61626C65206465627567206FBF
:1000C00075747075740D0A70692050696E670D0A39
:1000D00073742044756D70207374617475730D0AA8
:1000E000736C20416374697661746520736C656517
:1000F000700D0A3F3F2048454C500D0A0D0A000084
:10010000000000240027002A00000000002500282D
:10011000002B00040404040404040402020202028A
:1001200002030303030303010204081020408001BB
:10013000020408102001020408102000000008003A
:10014000020100000304070000000000000000009E
:100150002B1011241FBECFEFD8E0DEBFCDBF23E0B0
:10016000AEE7B2E001C01D92AD3FB207E1F712E089
:10017000A0E0B1E0ECEDF5E202C005900D92AE37E3
:10018000B107D9F710E0C9EAD0E004C02197FE0119
:100190000E94E112C83AD107C9F70E94560A0C948E
:1001A000EC120C9400000895CF92DF92EF92FF9230
:1001B0000F931F93CF93DF936C017A018B01C0E003
:1001C000D0E0CE15DF0589F0D8016D918D01D60103
:1001D000ED91FC910190F081E02DC6010995892BEC
:1001E00011F47E0102C02196ECCFC701DF91CF91BF
:1001F0001F910F91FF90EF90DF90CF900895089599
:1002000080E090E00895FC01538D448D252F30E06F
:10021000842F90E0821B930B541710F0CF96089513
:1002200001970895FC01918D828D981761F0828D60
:10023000DF01A80FB11D5D968C91928D9F5F9F731A
:10024000928F90E008958FEF9FEF0895FC01918DBC
:10025000828D981731F0828DE80FF11D858D90E029
:1002600008958FEF9FEF0895FC01918D228D892FC6
:1002700090E0805C9F4F821B91098F7399270895AE
:100280008DEE92E00E94340121E0892B09F420E0F8
:10029000822F0895FC01848DDF01A80FB11DA35AA0
:1002A000BF4F2C91848D90E001968F739927848F96
:1002B000A689B7892C93A089B1898C9180648C938D
:1002C000938D848D981306C00288F389E02D808178
:1002D0008F7D80830895EF92FF920F931F93CF93AA
:1002E000DF93EC0181E0888F9B8D8C8D981305C086
:1002F000E889F989808185FD24C0F62E0B8D10E0F8
:100300000F5F1F4F0F731127E02E8C8DE8120CC06A
:100310000FB607FCFACFE889F989808185FFF5CF10
:10032000CE010E944A01F1CF8B8DFE01E80FF11D35
:10033000E35AFF4FF0820B8FEA89FB89808180624C
:1003400007C0EE89FF896083E889F989808180642C
:10035000808381E090E0DF91CF911F910F91FF901A
:10036000EF900895CF93DF93EC01888D8823C9F037
:10037000EA89FB89808185FD05C0A889B9898C91AE
:1003800086FD0FC00FB607FCF5CF808185FFF2CF49
:10039000A889B9898C9185FFEDCFCE010E944A01D1
:1003A000E7CFDF91CF91089580E090E0892B29F08D
:1003B0000E94400181110C940000089583B78E7F44
:1003C00083BFE89883ED90E0909301018093000152
:1003D00081E08093B90384E080937F02EFE6F0E050
:1003E00080818260808308950E94E7120F931F939B
:1003F000CF93DF93CDB7DEB7C154D1090FB6F894D0
:10040000DEBF0FBECDBFFC01E65BFF4F408127E0A2
:10041000240F2983399720812A83319620812B83C9
:100420003196208150E1259F900111242C83209149
:10043000CA032D83329620812E83319620812F830B
:10044000319620812887BE01675F7F4F20E030E032
:100450003196241758F4A081B181A20FB31F8C915B
:10046000DB018D93BD012F5F3F4FF3CF13E001E41C
:100470002DB73EB7215431090FB6F8943EBF0FBED9
:100480002DBFADB7BEB71196FE013196802F0190FA
:100490000D928A95E1F70E9471080FB6F894DEBFBD
:1004A0000FBECDBF882389F09091CA039F5F9093C0
:1004B000CA03CF5BDF4F0FB6F894DEBF0FBECDBFD0
:1004C000DF91CF911F910F910895115069F361E071
:1004D00070E080E090E00E94D209CACF0C94311203
:1004E00086E080937F02EFE6F0E080818260808387
:1004F00087E791E00E9404086AE070E0809192032F
:100500000C94DD07CF93DF93EB0181E891E00E942B
:1005100004088881809392038881823038F060E0FB
:1005200085E00E944A0960E086E002C061E085E063
:100530000E944A096AE070E080919203DF91CF91B6
:100540000C94DD07CF93DF93EB01E091A003F091D2
:10055000A10398818081981304C0998181819817A3
:1005600091F0888199819093CE038093CD03688127
:1005700085E090E00E943112698186E090E0DF9191
:10058000CF910C943112DF91CF9108958BE891E0D7
:100590000E94580865EB82E090E00E946E0267E4DA
:1005A00083E090E00E946E026FEF84E090E00E9492
:1005B0006E0260E080E090E00E946E026FEF85E0E6
:1005C00090E00E946E026FEF86E090E00E946E0263
:1005D000E0E0F0E0099408958AE991E00E9458086B
:1005E00081E08093B6030895CF93DF93CDB7DEB754
:1005F000CD54D1090FB6F894DEBF0FBECDBF8CEA43
:1006000091E00E9458082E961FAE2E9723961FAE9B
:1006100023978091C70324968FAF249725961FAE0A
:10062000259781E027968FAF279728961FAE2897AA
:1006300085E029968FAF29972B961FAE1EAE2B977C
:100640002C961FAE2C97CE0101960E94F6018823AE
:1006500021F081EB91E00E945808C35BDF4F0FB699
:10066000F894DEBF0FBECDBFDF91CF91089586EB2A
:1006700091E00E9458081092CC038DEB91E00E940B
:100680005808E0E0F0E0099408951F93CF93DF93BA
:10069000C8E6D0E0FE011491812F0E9466082196E1
:1006A0001111F8CFDF91CF911F91089584EC91E063
:1006B0000E940408E3EBF3E0948181E089278483BE
:1006C00090E00C9419091F920F920FB60F9211240B
:1006D0002F933F934F935F936F937F938F939F934A
:1006E000AF93BF93EF93FF93E0910201F091030169
:1006F0000995FF91EF91BF91AF919F918F917F915C
:100700006F915F914F913F912F910F900FBE0F907E
:100710001F9018951F920F920FB60F9211242F93CE
:100720003F934F935F936F937F938F939F93AF9379
:10073000BF93EF93FF93E0910001F09101010995C0
:10074000FF91EF91BF91AF919F918F917F916F91A9
:100750005F914F913F912F910F900FBE0F901F907F
:1007600018951F920F920FB60F9211242F933F935B
:100770004F935F936F937F938F939F93AF93BF93A9
:10078000EF93FF938DEE92E00E944A01FF91EF916B
:10079000BF91AF919F918F917F916F915F914F9199
:1007A0003F912F910F900FBE0F901F9018951F92A1
:1007B0000F920FB60F9211242F938F939F93EF9365
:1007C000FF93E091FD02F091FE028081E09103032E
:1007D000F091040382FD12C09081809106038F5F27
:1007E0008F7320910703821751F0E0910603F0E028
:1007F000E351FD4F958F8093060301C08081FF91E7
:10080000EF919F918F912F910F900FBE0F901F909E
:1008100018951F920F920FB60F9211240F900FBED2
:100820000F901F9018951F920F920FB60F921124E0
:100830008F93EF93FF93E3EBF3E085818F5F8583E5
:10084000FF91EF918F910F900FBE0F901F90189511
:10085000E0E6F0E080818861808386E080838081AB
:10086000806480830895CF93DF93CDB7DEB7CD54F6
:10087000D1090FB6F894DEBF0FBECDBFFC01978142
:100880002581368144812E961FAE2E9723961FAE6A
:1008900023978091C70324968FAF249725961FAE88
:1008A000259727961FAE279728968FAF28972996CA
:1008B0004FAF29972C969FAF2C972B963FAF2EAF1B
:1008C0002B97CE0101960E94F601C35BDF4F0FB656
:1008D000F894DEBF0FBECDBFDF91CF9108950C9489
:1008E0002912862F842B2A981C99FECF0E94FE077E
:1008F00080E00E94FE072A9A0895862F2A981C9964
:10090000FECF0E94FE072A9A0895CF93DF93EC0151
:1009100064E30E947D0481E08983DF91CF91089593
:10092000CF93DF931F92CDB7DEB7862F2A981C99FD
:10093000FECF49830E94FE074981842F0E94FE0753
:100940002A9A0F90DF91CF9108950F931F93CF9321
:10095000DF93FC0122852617A1F0D42FC62F8C012E
:10096000462F69E00E949004F801C287DD2349F018
:100970006C2F84E090E0DF91CF911F910F910C9448
:100980003112DF91CF911F910F9108950F931F9313
:10099000CF93DF93CDB7DEB7CD54D1090FB6F8941E
:1009A000DEBF0FBECDBFFB0180818823A9F1E0919E
:1009B000A803F091A9039081891771F18B0190919F
:1009C000AA032091A7032E961FAE2E9723961FAE43
:1009D00023978091C70324968FAF249725961FAE47
:1009E000259727961FAE279728968FAF2897299689
:1009F0002FAF29972C969FAF2C972B967FAF6EAF7A
:100A00002B97CE0101960E94F60141E0F80160812A
:100A10008DEB93E00E94A504C35BDF4F0FB6F89403
:100A2000DEBF0FBECDBFDF91CF911F910F91089513
:100A300080918002909181028F3F910529F020F0F2
:100A400089EC91E00C94580886ED91E00E9404082E
:100A5000609180027091810280E090E04AE00E9403
:100A60009C0789EE91E00E948A0760918002709154
:100A7000810241E08DEB93E00C94A504FF920F936B
:100A80001F93CF93DF93EC018885861303C089857C
:100A9000841701F1F22E142F062F462F64E0CE01A9
:100AA0000E949004412F65E0CE010E9490040887C7
:100AB0001987FF2079F0602F82E090E00E943112C8
:100AC000612F83E090E0DF91CF911F910F91FF9014
:100AD0000C943112DF91CF911F910F91FF900895E7
:100AE0000F931F93CF93DF93CDB7DEB7CD54D109CA
:100AF0000FB6F894DEBF0FBECDBFE091B003F0910A
:100B0000B103DB019C918081981305C011969C91E3
:100B10008181981779F18B019091B2032091AF03F5
:100B20002E961FAE2E9723961FAE23978091C70354
:100B300024968FAF249725961FAE259727961FAE34
:100B4000279728968FAF289729962FAF29972C960D
:100B50009FAF2C972B967FAF6EAF2B97CE01019650
:100B60000E94F60121E0F801418160818DEB93E064
:100B70000E943E05C35BDF4F0FB6F894DEBF0FBE89
:100B8000CDBFDF91CF911F910F9108950F931F93C8
:100B9000CF93DF93CDB7DEB7CD54D1090FB6F8941C
:100BA000DEBF0FBECDBFE091D603F091D703DB01CE
:100BB0009C918081981709F443C08B019091D803D0
:100BC0002091D5032E961FAE2E9723961FAE239706
:100BD0008091C70324968FAF249725961FAE259743
:100BE00027961FAE279728968FAF289729962FAF65
:100BF00029972C969FAF2C972B967FAF6EAF2B9794
:100C0000CE0101960E94F601F80110818091C40383
:100C1000811769F0412F6AE08DEB93E00E94900408
:100C20001093C403612F80E090E00E943112109273
:100C3000CC038DEB91E00E945808E0E0F0E00994CD
:100C4000C35BDF4F0FB6F894DEBF0FBECDBFDF91A1
:100C5000CF911F910F9108951F920F920FB60F928F
:100C600011242F933F934F935F936F937F938F93B1
:100C70009F93AF93BF93EF93FF9360917E026F5F5B
:100C800060937E0280917F02882351F0617084E03E
:100C90000E944A0980917F02815080937F0209C09F
:100CA00060E084E00E944A0980916F008D7F80930C
:100CB0006F00FF91EF91BF91AF919F918F917F91C5
:100CC0006F915F914F913F912F910F900FBE0F90B9
:100CD0001F901895CF93DF9300D000D0CDB7DEB72B
:100CE0008EE480937C0062E070E080E090E00E94FF
:100CF000D20980917A00806480937A0080917A0092
:100D000086FDFCCF209178008091790030E0382B6F
:100D1000032E000C440B550B64EB7BE281E190E069
:100D20000E94C212243080E1380741055105ACF021
:100D30008CEE91E029833A834B835C830E94040804
:100D400061E086E00E944A0982EF91E00E94580823
:100D500029813A814B815C811AC02D3A8DE0380798
:100D600041055105A4F48CEE91E029833A834B832D
:100D70005C830E94040860E086E00E944A0986EFD6
:100D800091E00E9458085C814B813A812981CA0117
:100D9000B9010F900F900F900F90DF91CF910895B0
:100DA000CF92DF92EF92FF9289EF91E00E940408C8
:100DB0006091C40370E080E090E04AE00E949C07EC
:100DC0008DEF91E00E9404086091C20370E080E022
:100DD00090E040E10E949C0781E092E00E940408BC
:100DE00060E170E08091C3030E94DD0785E092E03E
:100DF0000E94040840EC65E38DEB93E00E947104CF
:100E00008F7190E00E94190981E192E00E9404082C
:100E100040EC64E38DEB93E00E947104682F87FD42
:100E200060956695665B70E080E090E04AE00E9425
:100E30009C0787E192E00E94040840EC63E38DEB9D
:100E400093E00E9471048095682F6F7370E080E0DA
:100E500090E04AE00E949C078CE192E00E94040826
:100E600040EC68E38DEB93E00E94710462E070E077
:100E70000E94DD0785E292E00E9404086AE070E0CB
:100E80008091C7030E94DD0785E392E00E94040879
:100E90000E946A066B017C0197FF0CC08DE20E94E4
:100EA000660866277727CB016C197D098E099F0993
:100EB0004AE001C04AE00E949C078BE392E0FF9069
:100EC000EF90DF90CF900C9404083FB7F894809196
:100ED000F6039091F703A091F803B091F90326B5BA
:100EE000A89B05C02F3F19F00196A11DB11D3FBF62
:100EF000BA2FA92F982F8827820F911DA11DB11DF0
:100F0000BC01CD0142E0660F771F881F991F4A95EB
:100F1000D1F70895009769F0FC0101900020E9F7EE
:100F20003197AF01481B590BBC018DEE92E00C9438
:100F3000D40080E090E008958F929F92AF92BF928C
:100F40000F931F93CF93DF93CDB7DEB7A1970FB663
:100F5000F894DEBF0FBECDBF19A2423008F44AE0BC
:100F60008E010F5D1F4F842E912CA12CB12CA50159
:100F700094010E944F12E62FB901CA0101501109D4
:100F8000EA3014F4E05D01C0E95CD801EC93232B56
:100F9000242B252B61F7C8010E948A07A1960FB662
:100FA000F894DEBF0FBECDBFDF91CF911F910F919F
:100FB000BF90AF909F908F900895CF93DF93AB0138
:100FC000672B61F4E091ED02F091EE020190F08167
:100FD000E02D682F8DEE92E0099506C0682F70E035
:100FE00080E090E00E949C07EC0189EE91E00E9475
:100FF0008A078C0F9D1FDF91CF9108958EBD0DB490
:1010000007FEFDCF8EB508950C948A072EED31E0D2
:101010003093010120930001E9E6F0E090819C7F8C
:10102000892B8083E89A0895CF93C82F8130A1F04F
:10103000823021F540E16DE08DEB93E00E94900459
:101040004091C2034F546EE08DEB93E00E949004F8
:101050004091C3034A5723C042E26DE08DEB93E019
:101060000E9490044091C2034F546EE08DEB93E0D8
:101070000E9490044091C303455C11C041E26DE0C1
:101080008DEB93E00E9490044091C2034E596EE0B4
:101090008DEB93E00E9490044091C3034A586FE0A7
:1010A0008DEB93E00E949004C093C103CF9108950B
:1010B000CF93DF930E948A07EC0189EE91E00E94B2
:1010C0008A078C0F9D1FDF91CF910895E091ED026B
:1010D000F091EE020190F081E02D682F8DEE92E00C
:1010E0000994CF92DF92FF920F931F93CF93DF93D8
:1010F000CDB7DEB782E08093BE038DEB93E00E9414
:10110000850400E010E00F5F1F4F093E83E01807E1
:1011100081F140EC65E38DEB93E00E947104982F20
:101120009F719D3041F52FC02A9A65E38DEB93E0C6
:101130000E947D0482E08093BE0340EC65E38DEB6A
:1011400093E00E9471048F718351833008F449C089
:1011500066E38DEB93E00E947D046BE38DEB93E0FF
:101160000E947D048DEB93E00E94850481E08093D2
:10117000BE0310E055C0813131F66AE38DEB93E098
:101180000E947D04C0CF083E134099F38BEC97E09A
:101190000197F1F783E50E9466088AE30E946608DA
:1011A0008BEE91E00E945808FA844F2D6FE38DEB8F
:1011B00093E00E9490042A981C99FECF8FE70E942A
:1011C000FE076E01EBE0CE0ED11C8601802F8C193C
:1011D0008F1508F0A9CFF80181918F010E94FE07B9
:1011E000F5CF4A9BFECF4A99FECF40EC6AE38DEBE8
:1011F00093E00E9471048F7711E009F010E066E33C
:101200008DEB93E00E947D046BE38DEB93E00E94F5
:101210007D048DEB93E00E94850481E08093BE0302
:10122000812FDF91CF911F910F91FF90DF90CF9091
:101230000895CF92DF92EF92FF92CF93DF936C01EC
:10124000990FEE08FF08F7FE12C08DE20E946608B3
:10125000EC0166277727CB016C197D098E099F0960
:101260004AE00E949C077C01EC0EFD1E06C04AE08D
:10127000C701B6010E949C077C0189EE91E00E94A3
:101280008A078E0D9F1DDF91CF91FF90EF90DF9029
:10129000CF90089590E0FC01E55CFE4F3491FC0195
:1012A000E95DFE4F2491FC01ED5EFE4FE491EE23DB
:1012B00009F43BC0332339F1333091F038F4313045
:1012C000A9F0323001F584B58F7D12C0373091F02E
:1012D0003830A1F03430B9F4809180008F7D03C0A4
:1012E000809180008F77809380000DC084B58F77C8
:1012F00084BD09C08091B0008F7703C08091B00099
:101300008F7D8093B000F0E0EE0FFF1FE75FFE4F90
:10131000A591B4918FB7F894EC91611103C0209519
:101320002E2301C02E2B2C938FBF0895CF93DF93D4
:1013300090E0FC01E95DFE4F2491FC01ED5EFE4F63
:101340008491882361F190E0880F991FFC01E1509E
:10135000FF4FC591D491FC01E75FFE4FA591B49179
:10136000611109C09FB7F8948881209582238883F2
:10137000EC912E230BC0623061F49FB7F894388152
:10138000822F809583238883EC912E2B2C939FBFF3
:1013900006C08FB7F894E8812E2B28838FBFDF918A
:1013A000CF9108958F929F92AF92BF92CF92DF928A
:1013B000EF92FF926B017C010E9465074B015C017B
:1013C000C114D104E104F104F1F00E946507DC01CD
:1013D000CB0188199909AA09BB09883E9340A10548
:1013E000B10570F321E0C21AD108E108F10888EED6
:1013F000880E83E0981EA11CB11CC114D104E10425
:10140000F10419F7DDCFFF90EF90DF90CF90BF9000
:10141000AF909F908F9008951F920F920FB60F92EA
:1014200011242F933F938F939F93AF93BF938091FA
:10143000F2039091F303A091F403B091F50330917E
:10144000F10323E0230F2D3720F40196A11DB11DD8
:1014500005C026E8230F0296A11DB11D2093F103BC
:101460008093F2039093F303A093F403B093F503F6
:101470008091F6039091F703A091F803B091F903DE
:101480000196A11DB11D8093F6039093F703A093DD
:10149000F803B093F903BF91AF919F918F913F9162
:1014A0002F910F900FBE0F901F901895CF93DF9341
:1014B000CDB7DEB7C358D1090FB6F894DEBF0FBE63
:1014C000CDBF789484B5826084BD84B5816084BDCD
:1014D00085B5826085BD85B5816085BD80916E00D2
:1014E000816080936E001092810080918100826003
:1014F0008093810080918100816080938100809140
:1015000080008160809380008091B100846080932E
:10151000B1008091B00081608093B00080917A002A
:10152000846080937A0080917A00826080937A0050
:1015300080917A00816080937A0080917A0080683F
:1015400080937A001092C100E091FD02F091FE02BA
:1015500082E08083E091FD02F091FE021082E09132
:10156000F902F091FA021082E091FB02F091FC0284
:1015700080E1808310920503E0910103F091020362
:1015800086E08083E091FF02F0910003808180611A
:101590008083E091FF02F091000380818860808366
:1015A000E091FF02F0910003808180688083E091E8
:1015B000FF02F091000380818F7D808361E084E0F1
:1015C0000E94960960E084E00E944A0961E085E09B
:1015D0000E94960961E086E00E94960961E08FE032
:1015E0000E94960961E080E10E9496090E946A06C5
:1015F000E091660020918000309181008FE380931C
:10160000660010926F001092700080E28093B60026
:10161000109280001092B00081E08093B10080931E
:101620008100B09A109285001092840080E444E614
:1016300050E060E070E0F1E08150A9F1B89A1092BA
:10164000B2009091B600937191F0B09BFACFB09A2E
:10165000109285001092840041505109610971096E
:1016600081F71092B600E093660080E02DC0F09301
:1016700081001092850010928400B89BFECF1092DA
:101680008100A0918400B0918500A735B44F20F06F
:1016900090916600915015C0A0918400B091850092
:1016A000A23FB34F58F01092B600B89A1092B20011
:1016B000209380003093810081E006C09091660005
:1016C0009F5F90936600B8CF8093BC0361E08AE08F
:1016D0000E944A0961E08AE00E94960961E08BE07D
:1016E0000E94960960E08CE00E94960961E08DE01E
:1016F0000E94960961E08DE00E944A0960E08BE05B
:101700000E944A0981E58CBD60E082E00E94960952
:101710002A9A8FE090E00197F1F72A9883E290E00F
:101720000197F1F72A9A8FE990E00197F1F72A984B
:101730001C99FECF80E30E94FE071C99FECF2A9AD7
:1017400049E260E08DEB93E00E9490044EE261E09C
:101750008DEB93E00E94900446E062E08DEB93E015
:101760000E94900447E063E08DEB93E00E949004B8
:101770004FEF66E08DEB93E00E94900446E067E057
:101780008DEB93E00E94900445E068E08DEB93E0E0
:101790000E94900420E047E465EB8DEB93E00E940B
:1017A0003E0540E06FEF8DEB93E00E94A504809131
:1017B000C403882341F040E06AE08DEB93E00E948F
:1017C00090041092C40348E06BE08DEB93E00E941C
:1017D000900440E06CE08DEB93E00E94900480E088
:1017E0000E9414084AEC60E18DEB93E00E949004A3
:1017F00043E861E18DEB93E00E94900443E962E1EC
:101800008DEB93E00E94900442E263E18DEB93E064
:101810000E94900448EF64E18DEB93E00E949004F5
:1018200045E365E18DEB93E00E94900447E066E1BB
:101830008DEB93E00E94900440E267E18DEB93E032
:101840000E94900448E168E18DEB93E00E949004CF
:1018500046E169E18DEB93E00E9490044CE66AE179
:101860008DEB93E00E94900443E46BE18DEB93E0F9
:101870000E94900440E46CE18DEB93E00E949004A0
:1018800041E96DE18DEB93E00E94900447E86EE141
:101890008DEB93E00E9490044BE66FE18DEB93E0BB
:1018A0000E9490044BEF60E28DEB93E00E94900465
:1018B00046E561E28DEB93E00E94900440E162E234
:1018C0008DEB93E00E94900449EE63E28DEB93E090
:1018D0000E9490044AE264E28DEB93E00E9490043F
:1018E00040E065E28DEB93E00E9490044FE166E2F8
:1018F0008DEB93E00E94900441E467E28DEB93E06E
:101900000E94900440E068E28DEB93E00E94900416
:1019100049E569E28DEB93E00E9490044FE76AE2AB
:101920008DEB93E00E9490044FE36BE28DEB93E02C
:101930000E94900441E86CE28DEB93E00E949004D9
:1019400045E36DE28DEB93E00E94900449E06EE286
:101950008DEB93E00E94900486E090E00E946F047B
:101960008093C20387E090E00E946F048093C303DA
:1019700080E090E00E946F04182F8A3060F480911C
:10198000C403811741F0412F6AE08DEB93E00E9480
:1019900090041093C40382E090E00E946F04682FCB
:1019A00083E090E0CD57DF4F6883C358D0400E945A
:1019B0006F04CD57DF4F6881C358D0409FEF960F1B
:1019C0009E3F20F09FEF980F9E3F30F420E0482F7D
:1019D0008DEB93E00E943E0584E090E00E946F044E
:1019E000882331F040E0682F8DEB93E00E94A5043E
:1019F0004091BF036EE38DEB93E00E9490048091D1
:101A0000C3038F3FD1F48091C2038F3FB1F48EE3C3
:101A100092E00E9458081092C2031092C30360E043
:101A200086E090E00E94311260E087E090E00E9442
:101A300031128091C1030E94140821E047E465EB54
:101A40008DEB93E00E943E0584E090E00E94291215
:101A500040E0682F8DEB93E00E94A50482E00E9495
:101A6000140844E067E08DEB93E00E94900485E069
:101A700090E00E9429128093CD0386E090E00E94BE
:101A800029128093CE0383EC90E00197F1F78DEB60
:101A900093E00E94850482E090E00E940608109284
:101AA000CA031092CB0383E08093CC030E942804E6
:101AB00087E592E00E94040840EC60E38DEB93E040
:101AC0000E947104682F70E080E090E04AE00E947C
:101AD0009C078AE692E00E94040840EC61E38DEBEB
:101AE00093E00E9471046AE070E00E94DD07F894C0
:101AF00010927F0214BE109280001092810080ED3F
:101B000093E09093890080938800809181008860A1
:101B10008093810080918100816080938100809119
:101B20008100816080938100809181008460809336
:101B3000810080916F00826080936F00789484E0D0
:101B400080937F0280916F00826080936F0017E026
:101B500026E8C22E22E0D22E02E032E4A32EB12CDF
:101B6000AC0EBD1EA8E0AA0EB11C9924939445E0CA
:101B7000842E53E0552E62E4E62EF12CEC0EFD1E71
:101B8000BFEFEB1AFB0A8091B8038A3020F0109265
:101B9000B8030E946A068DEE92E00E943401892B00
:101BA00009F4B9C08DEE92E00E941201482FCD5782
:101BB000DF4F4883C358D0400E946608CD57DF4F9F
:101BC0004881C358D04014160CF0A5C04D3031F0F8
:101BD000403209F4A0C04A30D1F49DC06090840224
:101BE0007090850210928502109284028DE00E940E
:101BF0006608161417040CF08EC082E792E00E946B
:101C00005808909196024091970280E025C020915B
:101C1000840230918502223031055CF4C9010196BD
:101C20009093850280938402F901EA56FD4F408328
:101C300072C0213131050CF06EC0C9018A579D4F29
:101C4000FC0132974083319610822F5F3F4F3093D3
:101C50008502209384025FC0682E712C169DF001CE
:101C6000179DF00D1124EC5EFE4F2081291303C057
:101C70002181241779F08F5F189FF0011124EC5E09
:101C8000FE4F23813481232B39F78EE692E00E94A8
:101C9000580841C080918602811109C010928102CA
:101CA00010928002109283021092820222C0DA8285
:101CB000C98260E772E0CE0101960E940E1240E0F8
:101CC00050E060E070E00E94F41070938102609335
:101CD000800260E772E0CE0101960E940E1240E0A1
:101CE00050E060E070E00E94F41070938302609313
:101CF000820200937F0280916F00826080936F0068
:101D0000169DF001179DF00D1124EC5EFE4F03802F
:101D1000F481E02D09958091B903882309F474C1F9
:101D200084E792E00E9404081092B90362E070E038
:101D300080E090E00E94D20940EC6BE38DEB93E0F1
:101D40000E947104982F9F7779F087FD0DC040E8BD
:101D50006FE38DEB93E00E947104782E23968FAF92
:101D60002397EDE3E81720F423961FAE239734C0A2
:101D70002A981C99FECF8FEF0E94FE071701822D33
:101D80008E19871538F480E00E94FE07D1018D93EB
:101D90001D01F5CF2A9A40E86FE38DEB93E00E9496
:101DA0007104CF57DF4F8883C158D04040E86FE3BC
:101DB0008DEB93E00E947104982F9F77CE57DF4FF1
:101DC0009883C258D040982F991F9927991FC058BF
:101DD000DF4F9883C058D04066E38DEB93E00E94BC
:101DE0007D046AE38DEB93E00E947D048DEB93E02C
:101DF0000E94850423968FAD2397882309F400C1A0
:101E0000C058DF4F8881C058D040811104C086E798
:101E100092E00E9458088091E502811102C09092E0
:101E2000E50224969FAD249725964FAD25972696DB
:101E30008FAD269727963FAD279728967FAD289799
:101E400029966FAD29972A965FAD2A9723962FADD5
:101E5000239727509093D9024093DA02E82FE29516
:101E6000EF70E093DB023093DC027093DD0260934D
:101E7000DE025093DF02B092E102A092E0022093D2
:101E8000E202282F21702093E302869581708093CF
:101E9000E4028091C703981320C089824A839B8300
:101EA0001C823D835E82EDB7FEB7E154F1090FB6A7
:101EB000F894FEBF0FBEEDBFADB7BEB7119681E47B
:101EC000FE01319601900D928A95E1F70E9471080A
:101ED0000FB6F894DEBF0FBECDBF8091DD0281301A
:101EE00009F450C008F47AC08230E1F0833009F080
:101EF0007EC09091D9028091C703981781F080919C
:101F0000CC03813049F49091DC028091CA0398138C
:101F10006EC00093CC036BC01092CB0368C090924C
:101F2000CB0365C08091D9029091C70389135FC02C
:101F30009091DE0289135BC0E091DF02E93008F086
:101F400056C0F0E0EE0FFF1FED5AFE4F608071802B
:101F50006114710409F44BC09091E202D301179609
:101F60008C911797981336C06091E0027091E1024E
:101F70001296ED91FC911397309761F114968C9124
:101F8000099528C08091D902811105C09091DF0286
:101F9000992329F02CC09091C703891328C09091F0
:101FA000DE02891324C0E091DF02E93000F5F0E0A1
:101FB000EE0FFF1FED5AFE4F6080718061147104B7
:101FC000B1F0D301ED91FC911197309719F014966F
:101FD0008C910995C3010E94330409C0E091CF039D
:101FE000F091D003309719F088E992E0099582E5E5
:101FF0000E9466088AE30E9466088BEE91E002C0A8
:102000008EE692E00E94580882E090E00E94060866
:102010008091B6038823E1F00E94280483B7816091
:1020200083BF81E090E00E94060883B7817F8460CF
:1020300083BFF89485B7806685BF8F7D85BF789410
:1020400060E084E00E944A09889583B78E7F83BF51
:102050000E94D40198CDEDEEF2E01382128288EE58
:1020600093E0A0E0B0E084839583A683B78389E6FC
:1020700091E09183808385EC90E09587848784EC60
:1020800090E09787868780EC90E0918B808B81EC45
:1020900090E0938B828B82EC90E0958B848B86EC26
:1020A00090E0978B868B118E128E138E148EE3EB3D
:1020B000F3E088EC8487158E148E108617821682C2
:1020C0001382158212821482E9EEF3E011821082EB
:1020D000138212828091FA0384832CE031E03683EC
:1020E000258398E09783E1EEF3E01182108213825A
:1020F000128291E0980F948328E031E036832583A3
:1021000094E09783E9EDF3E011821082138212824A
:1021100022E0280F248324E031E03683258397834F
:10212000E1EDF3E01182108226EC35E03383228367
:1021300093E0980F948324EC33E03683258391E079
:102140009783EBEAF3E01182108220E735E03383D6
:10215000228324E0280F248325EC33E03683258373
:1021600022E02783E3EAF3E01182108246EC54E098
:102170005383428335E0380F348347EC53E0568372
:1021800045839783EBE9F3E01182108242EA52E043
:102190005383428336E0380F34834DEC53E056834B
:1021A00045832783E3E9F3E040E752E0518340832E
:1021B00022E832E03383228327E0280F248322E9B8
:1021C00033E0368325839783EAE8F3E05183408345
:1021D0001382128249E0480F4093FA03885F848398
:1021E0003683258397830895A0E0B0E0EAEFF0E11D
:1021F0000C947C125C016B017A016115710519F078
:10220000FB0191838083E114F10429F0C701029757
:10221000839708F0F1C0E5012196F5011081812F27
:1022200090E00E940512892B11F05E01F4CF1D325F
:1022300029F42196F501118101E007C01B3221F438
:10224000E5012296F501118100E0E114F10459F154
:10225000F0E1EF16F10461F41033E1F488818F7D31
:10226000883569F519812296026070E1E72EF12C1C
:1022700088E0E816F10439F12CF4F2E0EF16F104ED
:10228000C9F12AC08AE0E816F10479F0E0E1EE161F
:10229000F10411F550E1E52EF12C812C912CA12CAB
:1022A00068E0B62E2CC01033C9F23AE0E32EF12CD0
:1022B0004CEC842E982CA82C4CE0B42E20C010E3BB
:1022C000E114F104A9F698E0E92EF12C812C912C6F
:1022D000A12C20E1B22E13C060E070E080E090E815
:1022E00097010F2C000C440B550B0E944F12490113
:1022F0005A0105C0812C912CA12C80E4B82E60E0FD
:1023000020E030E0A90127010F2C000C66087708B7
:102310001E01E0EDE10FEA3060F08FEB810F8A31B2
:1023200010F4E9EC05C08FE9810F8A3128F5E9EA5C
:10233000E10F8E2F90E08E159F05F4F467FD18C015
:1023400082169306A406B50690F0C301B2010E945E
:102350003F129B01AC012E0F311D411D511D21303B
:1023600031054105F0E85F0710F461E001C06FEF4F
:102370002196F1011081CCCF802F8170C114D1043E
:1023800071F0662329F02197F601D183C08307C03D
:1023900001FF19C02297F601D183C08314C067FFE3
:1023A00012C0811105C02FEF3FEF4FEF5FE704C070
:1023B00020E030E040E050E882E290E09093FC03BF
:1023C0008093FB0316C0882341F0509540953095CB
:1023D00021953F4F4F4F5F4F0CC057FF0AC082E21D
:1023E00090E09093FC038093FB032FEF3FEF4FEFC0
:1023F0005FE7B901CA0104C060E070E080E090E0EE
:10240000CDB7DEB7E2E10C94981291110C9426122C
:10241000803219F089508550C8F70895FC01A081D9
:10242000B181AD01109681F03D91FB010190031641
:102430000110E1F7C9F7002011F4D00102C01E928B
:102440001196FC01A083B183CA01089599278827BA
:102450000895F999FECF92BD81BDF89A992780B56C
:102460000895262FF999FECF1FBA92BD81BD20BDD8
:102470000FB6F894FA9AF99A0FBE01960895DB0107
:102480008F939F930E947112BF91AF91A29F800D75
:10249000911DA39F900DB29F900D11240895A1E26C
:1024A0001A2EAA1BBB1BFD010DC0AA1FBB1FEE1FCE
:1024B000FF1FA217B307E407F50720F0A21BB30B19
:1024C000E40BF50B661F771F881F991F1A9469F795
:1024D00060957095809590959B01AC01BD01CF01F1
:1024E00008950E94B312A59F900DB49F900DA49FD4
:1024F000800D911D112408952F923F924F925F926B
:102500006F927F928F929F92AF92BF92CF92DF9203
:10251000EF92FF920F931F93CF93DF93CDB7DEB768
:10252000CA1BDB0B0FB6F894DEBF0FBECDBF0994FC
:102530002A88398848885F846E847D848C849B8453
:10254000AA84B984C884DF80EE80FD800C811B8161
:10255000AA81B981CE0FD11D0FB6F894DEBF0FBE90
:10256000CDBFED010895A29FB001B39FC001A39F0D
:10257000700D811D1124911DB29F700D811D1124BC
:10258000911D0895052E97FB1EF400940E94D91208
:1025900057FD07D00E944F1207FC03D04EF40C9455
:1025A000D91250954095309521953F4F4F4F5F4F31
:1025B000089590958095709561957F4F8F4F9F4FAF
:1025C0000895EE0FFF1F0590F491E02D099481E02E
:0C25D00090E0F8940C94EC12F894FFCF0B
:1025DC00D300D30000000101000002000000000144
:1025EC000000000172650037030000667300C6022C
:1025FC0000007361001805000064640056030000BD
:10260C00706900F4020000737400D0060000736C53
:10261C0000EC0200003F3F004503000000000000FA
:10262C00000000E903E103D903D103AB03A3039B2F
:10263C000393038A03000000006B01D4000301B272
:10264C0001340112012601474554205354415420B2
:10265C000053455420535441542000527374207439
:10266C006F20666163746F727900536C65657020BE
:10267C006D6F6465206163746976650050696E677F
:10268C000053656E74005265626F6F740052535440
:10269C00205251004462672000496E76616C696477
:1026AC0020616464720053657420726164696F20E8
:1026BC006164647220746F20000D0A004348524715
:1026CC0020004F4646004F4E0043683A00204D3ADA
:1026DC0000206D3A004D4152432053544154452043
:1026EC00005253534920004C51492000200970736B
:1026FC00746174200044657669636520616464725A
:10270C0065737320004241545420006D560052658D
:10271C0073657474696E6720667265712072656783
:10272C007320746F2030000A5354415254200A20F5
:10273C0043433131303120502000205620003F00DF
:0E274C002E2C20002100435243204552520003
:00000001FF
