:100000000C94C8000C9497040C9470040C94F000A9
:100010000C94F0000C94F0000C9420050C94F0006B
:100020000C94F0000C9416050C94F0000C94D0077E
:100030000C94F0000C94F0000C94F0000C94F00080
:100040000C94550D0C94F0000C94E4040C94BE0434
:100050000C94F0000C94F0000C94F0000C94F00060
:100060000C94F0000C94F00072652052657374617A
:1000700072740D0A73612053657420726164696F34
:1000800020616464726573730D0A73632053657431
:1000900020726164696F206368616E6E656C0D0A21
:1000A000667320526573657420656570726F6D208C
:1000B000746F20666163746F7279207365747469FC
:1000C0006E67730D0A646420456E61626C6520641E
:1000D00065627567206F75747075740D0A7069209C
:1000E00050696E670D0A616120416C61726D0D0A85
:1000F00073742044756D70207374617475730D0A88
:10010000736C20416374697661746520736C6565F6
:10011000700D0A70752050756C7365206D6F746F6B
:100120007220756E69740D0A3F3F2048454C500D92
:100130000A0D0A0000000000240027002A00000029
:100140000000250028002B000000000023002600EE
:10015000290004040404040404040202020202024A
:10016000030303030303010204081020408001027B
:1001700004081020010204081020000000080002FA
:10018000010000030407000000000000000020142C
:1001900011241FBECFEFD8E0DEBFCDBF25E0ACE419
:1001A000B3E001C01D92A133B207E1F713E0A0E074
:1001B000B1E0E4E8F2E302C005900D92AC34B1077F
:1001C000D9F710E0C8ECD0E004C02197FE010E94EE
:1001D000F916C73CD107C9F70E949F0D0C9440192E
:1001E0000C9400000895CF92DF92EF92FF920F934C
:1001F0001F93CF93DF936C017A018B01C0E0D0E0B5
:10020000CE15DF0589F0D8016D918D01D601ED91F4
:10021000FC910190F081E02DC6010995892B11F424
:100220007E0102C02196ECCFC701DF91CF911F91D3
:100230000F91FF90EF90DF90CF900895089580E0A8
:1002400090E00895FC01538D448D252F30E0842FDC
:1002500090E0821B930B541710F0CF9608950197EE
:100260000895FC01918D828D981761F0828DDF01D8
:10027000A80FB11D5D968C91928D9F5F9F73928F99
:1002800090E008958FEF9FEF0895FC01918D828D8E
:10029000981731F0828DE80FF11D858D90E008955B
:1002A0008FEF9FEF0895FC01918D228D892F90E0B3
:1002B000805C9F4F821B91098F73992708958EEC64
:1002C00093E00E94530121E0892B09F420E0822F62
:1002D0000895FC01848DDF01A80FB11DA35ABF4F03
:1002E0002C91848D90E001968F739927848FA68935
:1002F000B7892C93A089B1898C9180648C93938D5C
:10030000848D981306C00288F389E02D80818F7D4B
:1003100080830895EF92FF920F931F93CF93DF9303
:10032000EC0181E0888F9B8D8C8D981305C0E88946
:10033000F989808185FD24C0F62E0B8D10E00F5FBA
:100340001F4F0F731127E02E8C8DE8120CC00FB6D3
:1003500007FCFACFE889F989808185FFF5CFCE01C6
:100360000E946901F1CF8B8DFE01E80FF11DE35A68
:10037000FF4FF0820B8FEA89FB898081806207C082
:10038000EE89FF896083E889F989808180648083B0
:1003900081E090E0DF91CF911F910F91FF90EF905E
:1003A0000895CF93DF93EC01888D8823C9F0EA8903
:1003B000FB89808185FD05C0A889B9898C9186FD5E
:1003C0000FC00FB607FCF5CF808185FFF2CFA8895B
:1003D000B9898C9185FFEDCFCE010E946901E7CFED
:1003E000DF91CF91089580E090E0892B29F00E9461
:1003F0005F0181110C94000008950E943B190F9336
:100400001F93CF93DF93CDB7DEB7C154D1090FB699
:10041000F894DEBF0FBECDBF8C0162E370E080E0D8
:1004200090E00E941B0DF801E65BFF4F208187E002
:10043000820F8983399780818A83319680818B836B
:100440003196808130E1839FC00111248C833996DD
:100450003081332311F082608C83F801E35BFF4F1E
:100460008081882319F08C8184608C83F801EC5B97
:10047000FF4F80818D83319680818E83319680817C
:100480008F83319680818887AE01475F5F4F80E020
:1004900090E03196821750F4A081B181A80FB91F66
:1004A0003C91DA013D93AD010196F4CF13E001E4F4
:1004B0002DB73EB7215431090FB6F8943EBF0FBE99
:1004C0002DBFADB7BEB71196FE013196802F0190BA
:1004D0000D928A95E1F70E94A00A0FB6F894DEBF4C
:1004E0000FBECDBF811109C0115039F062E370E039
:1004F00080E090E00E941B0DDBCFCF5BDF4F0FB69B
:10050000F894DEBF0FBECDBFDF91CF911F910F9149
:10051000089583B78E7F83BFE89882EF90E0909331
:100520000101809300018091B404823019F081E0D0
:100530008093AF0461E084E00E94AF0C84E080937C
:10054000500380916F00826080936F001092AB0423
:1005500008950C94491610925A031092590385E09D
:100560000E94860C892B11F484E00CC060E085E0C9
:100570000E94AF0C60E086E00E94AF0C81E08093A7
:100580005B0388E280934F0380916F0082608093C9
:100590006F001092AB04089580E991E00E94330A45
:1005A0006AE070E0809187040E940C0A80918704C1
:1005B00008951F93CF93DF93182FEB018AE991E001
:1005C0000E94330A80917F04181307C068818FE06E
:1005D0000E94AF0C888180937E048091760418136A
:1005E00007C0688180E10E94AF0C88818093750408
:1005F0006AE070E088810E940C0A80E0DF91CF9170
:100600001F91089584EA91E00E94330A84E0809368
:100610004F03EFE6F0E08081826080831092AB04AC
:100620000895CF93DF93EB0185EB91E00E94330AAD
:10063000C8816C2F70E080E090E04AE00E94CB0916
:100640008EEB91E00E94330A6AE070E080918704AB
:100650000E940C0AC23029F480918704823039F458
:100660003CC0C11104C0809187048823C9F1109255
:10067000AC04C130A9F048F0C230F1F0C33079F5D4
:1006800060E085E00E94AF0C28C00E94AB0280ECC5
:1006900093E090934E0380934D031092550316C040
:1006A0000E94AB0280EC93E090934E0380934D0345
:1006B0008FEF809355030AC00E94AB0280EC93E059
:1006C00090934E0380934D03C093550380916F0028
:1006D000826080936F001092AB0480E001C086E0DE
:1006E000DF91CF910895CF93DF93EB01E0919104D7
:1006F000F091920498818081981304C0998181813E
:10070000981781F08881998190930605809305055B
:10071000688185E090E00E944916698186E090E05A
:100720000E94491680E0DF91CF910895CF93C82FA2
:1007300080915B03882321F060E086E00E94AF0C8B
:1007400084EC91E00E94330A61E06C2786E00E940D
:10075000AF0CCC2319F08AEC91E002C08DEC91E053
:10076000CF910C94870A81ED91E00E94870A65EB96
:1007700082E090E00E94A90267E483E090E00E949A
:10078000A9026FEF84E090E00E94A90260E080E09F
:1007900090E00E94A9026FEF85E090E00E94A9021C
:1007A0006FEF86E090E00E94A902E0E0F0E009949B
:1007B000089580EE91E00E94870A81E08093AC0466
:1007C00008950F931F93CF93DF93CDB7DEB7CF5428
:1007D000D1090FB6F894DEBF0FBECDBF8091510393
:1007E00090915203811101C081E0182F01E082EF46
:1007F00091E00E94870A2E961FAE2E9760961FAE3C
:10080000609723961FAE23978091BD0424968FAFE7
:10081000249725961FAE259727960FAF27972896E2
:100820001FAE289785E029968FAF29972B961FAE8C
:100830001EAE2B972C961FAE2C972F960FAF2F978F
:10084000CE0101960E94FF01882321F087EF91E0FD
:100850000E94870A64EF71E080E090E00E941B0D27
:10086000115029F6C15BDF4F0FB6F894DEBF0FBE03
:10087000CDBFDF91CF911F910F9108958CEF91E043
:100880000E94870A1092030583E092E00E94870A83
:10089000E0E0F0E0099408958AE092E00E94330AD3
:1008A000E8EAF4E0958181E08927858390E00C9463
:1008B000550C1F93CF93DF93C8E6D0E0FE0114914F
:1008C000812F0E94950A21961111F8CFDF91CF91C7
:1008D0001F91089521E040E061E084E00C94480B12
:1008E0001F920F920FB60F9211242F933F934F93A5
:1008F0005F936F937F938F939F93AF93BF93EF9388
:10090000FF93E0910201F09103010995FF91EF91AE
:10091000BF91AF919F918F917F916F915F914F9117
:100920003F912F910F900FBE0F901F9018951F921F
:100930000F920FB60F9211242F933F934F935F9313
:100940006F937F938F939F93AF93BF93EF93FF9397
:10095000E0910001F09101010995FF91EF91BF91A4
:10096000AF919F918F917F916F915F914F913F9147
:100970002F910F900FBE0F901F9018951F920F92FE
:100980000FB60F9211242F933F934F935F936F9362
:100990007F938F939F93AF93BF93EF93FF938EECCF
:1009A00093E00E946901FF91EF91BF91AF919F91F8
:1009B0008F917F916F915F914F913F912F910F9008
:1009C0000FBE0F901F9018951F920F920FB60F92A7
:1009D00011242F938F939F93EF93FF93E091DE0366
:1009E000F091DF038081E091E403F091E50382FD63
:1009F00012C090818091E7038F5F8F732091E8038D
:100A0000821751F0E091E703F0E0E253FC4F958F3D
:100A10008093E70301C08081FF91EF919F918F91B7
:100A20002F910F900FBE0F901F9018951F920F924D
:100A30000FB60F9211240F900FBE0F901F901895B4
:100A40001F920F920FB60F9211248F93EF93FF9383
:100A5000E8EAF4E086818F5F8683FF91EF918F91C2
:100A60000F900FBE0F901F901895E0E6F0E0808188
:100A70008861808386E0808380818064808308959C
:100A8000FF920F931F93CF93DF93CDB7DEB7C0557F
:100A9000D1090FB6F894DEBF0FBECDBF8C01F62E84
:100AA00062E370E080E090E061964FAF61970E9452
:100AB0001B0DF80193812181328150812E961FAE4A
:100AC0002E972F961FAE2F9760961FAE609780913E
:100AD000BD0424968FAF249725961FAE25972796A1
:100AE0001FAE279728968FAF289729965FAF299733
:100AF0002C969FAF2C972B963FAF2EAF2B9723961C
:100B0000FFAE239761964FAD619726964FAF26971C
:100B1000CE0101960E94FF01C05BDF4F0FB6F89433
:100B2000DEBF0FBECDBFDF91CF911F910F91FF9020
:100B300008950C944116862F842B2A981C99FECF79
:100B40000E942D0A80E00E942D0A2A9A0895862F7D
:100B50002A981C99FECF0E942D0A2A9A0895CF93B5
:100B6000DF93EC0164E30E94A70581E08983DF91B4
:100B7000CF910895CF93DF931F92CDB7DEB7862F25
:100B80002A981C99FECF49830E942D0A4981842FFF
:100B90000E942D0A2A9A0F90DF91CF9108950F930A
:100BA0001F93CF93DF93FC0127812617A1F0D42F49
:100BB000C62F8C01462F6AE00E94BA05F801C78350
:100BC000DD2349F06C2F80E090E0DF91CF911F9101
:100BD0000F910C944916DF91CF911F910F910895B9
:100BE0000F931F93CF93DF93CDB7DEB7CF54D109C7
:100BF0000FB6F894DEBF0FBECDBFE0910A05F091AD
:100C00000B05DB019C918081981709F43DC08B0195
:100C100090910C05209109052E961FAE2E972F96C8
:100C20001FAE2F9760961FAE609723961FAE239737
:100C30008091BD0424968FAF249725961FAE2597EB
:100C400027961FAE279728968FAF289729962FAF04
:100C500029972C969FAF2C972B967FAF6EAF2B9733
:100C6000CE0101960E94FF0141E0F801608183EB13
:100C700094E00E94CF051092030583E092E00E9469
:100C8000870AE0E0F0E0099480E0C15BDF4F0FB637
:100C9000F894DEBF0FBECDBFDF91CF911F910F91B2
:100CA000089580915103909152038F3F910529F04F
:100CB00020F08FE092E00C94870A8FE192E00E948E
:100CC000330A609151037091520380E090E04AE052
:100CD0000E94CB098FE292E00E94B9096091510312
:100CE0007091520341E083EB94E00C94CF050F9395
:100CF0001F93CF93DF93FC0122852617A1F0D42FF9
:100D0000C62F8C01462F69E00E94BA05F801C28700
:100D1000DD2349F06C2F84E090E0DF91CF911F91AB
:100D20000F910C944916DF91CF911F910F91089567
:100D30000F931F93CF93DF93CDB7DEB7CF54D10975
:100D40000FB6F894DEBF0FBECDBFFB0180818823B4
:100D5000D9F1E0919904F0919A0490818917A1F159
:100D60008B0190919B04209198042E961FAE2E9794
:100D70002F961FAE2F9760961FAE609723961FAEDB
:100D800023978091BD0424968FAF249725961FAE9C
:100D9000259727961FAE279728968FAF28972996D5
:100DA0002FAF29972C969FAF2C972B967FAF6EAFC6
:100DB0002B97CE0101960E94FF0141E0F80160816E
:100DC00083EB94E00E94770680E0C15BDF4F0FB6B3
:100DD000F894DEBF0FBECDBFDF91CF911F910F9171
:100DE000089580915103909152038F3F910529F00E
:100DF00020F082E392E00C94870A8FE392E00E9455
:100E0000330A609151037091520380E090E04AE010
:100E10000E94CB098FE292E00E94B90960915103D0
:100E20007091520341E083EB94E00C947706FF92BB
:100E30000F931F93CF93DF93EC018885861303C034
:100E40008985841701F1F22E142F062F462F64E0B6
:100E5000CE010E94BA05412F65E0CE010E94BA057D
:100E600008871987FF2079F0602F82E090E00E94C8
:100E70004916612F83E090E0DF91CF911F910F9190
:100E8000FF900C944916DF91CF911F910F91FF9025
:100E900008950F931F93CF93DF93CDB7DEB7CF5451
:100EA000D1090FB6F894DEBF0FBECDBFE091A1040B
:100EB000F091A204DB019C918081981305C01196EA
:100EC0009C9181819817A9F18B019091A3042091A5
:100ED000A0042E961FAE2E972F961FAE2F976096CA
:100EE0001FAE609723961FAE23978091BD04249672
:100EF0008FAF249725961FAE259727961FAE27976D
:100F000028968FAF289729962FAF29972C969FAFB9
:100F10002C972B967FAF6EAF2B97CE0101960E9438
:100F2000FF0121E0F8014181608183EB94E00E94A0
:100F3000170780E0C15BDF4F0FB6F894DEBF0FBE2E
:100F4000CDBFDF91CF911F910F91089588E00E944E
:100F5000860C892B39F087E00E94860C892B21F0C2
:100F600081E003C080E001C082E09091870498177F
:100F7000A9F08093870422E532E030935703209351
:100F8000560390915503981306C081E080935D034A
:100F900080935C03089581E080935D0380E0089571
:100FA0001F920F920FB60F9211242F933F934F93DE
:100FB0005F936F937F938F939F93AF93BF93EF93C1
:100FC000FF9360914C036F5F60934C0380915003DB
:100FD000882349F0617084E00E94AF0C8091500337
:100FE00081508093500380915003811104C060E0D0
:100FF00084E00E94AF0C80914F03882361F08091C0
:101000004F03833019F461E00E94AF0C80914F03CD
:10101000815080934F0380914F03811104C060E0A1
:1010200083E00E94AF0C8091590390915A0301977D
:1010300039F461E085E00E94AF0C81E08093AC045C
:101040008091590390915A03892B49F0809159035B
:1010500090915A03019790935A038093590380917A
:101060004D0390914E03892B31F10E94A6078823EE
:1010700029F010924E0310924D0309C080914D0348
:1010800090914E03019790934E0380934D0380916E
:101090004D0390914E03019771F4809155038F3F5A
:1010A00019F083E08093580310924E0310924D0381
:1010B00081E08093AC0480914D0390914E03892B85
:1010C000B1F480915003811112C080914F038111BE
:1010D0000EC08091590390915A03892B41F480915D
:1010E0006F008D7F80936F0081E08093AB04FF9150
:1010F000EF91BF91AF919F918F917F916F915F9190
:101100004F913F912F910F900FBE0F901F90189508
:101110001F93CF93DF938EE480937C0062E070E0B6
:1011200080E090E00E941B0D80917A0080648093A3
:101130007A0080917A0086FDFCCF20917800809122
:10114000790030E0382B40E050E064EB7BE281E155
:1011500090E00E94DA16122FC22FD32FC83680E1FA
:10116000D80710F080E005C0CD338FE0D80718F421
:1011700081E00E949603D0936C0410936B048091DD
:101180005E03882319F0815080935E03CE01DF91C6
:10119000CF911F9108958AE592E00E94330A6091F1
:1011A000BA0470E080E090E04AE00E94CB098EE54E
:1011B00092E00E94330A6091B80470E080E090E011
:1011C00040E10E94CB0982E692E00E94330A60E18E
:1011D00070E08091B9040E940C0A86E692E00E94B9
:1011E000330A40EC65E383EB94E00E949B058F712A
:1011F00090E00E94550C82E792E00E94330A40EC96
:1012000064E383EB94E00E949B05282F682F70E035
:1012100080E090E027FF09C00E94121820E030E033
:1012200040E853E40E94FF1602C00E94121820E01A
:1012300030E040E05FE30E94C91820E030E044E97C
:1012400052E40E94FF1642E00E94810B88E792E080
:101250000E94330A40EC63E383EB94E00E949B0519
:101260008095682F6F7370E080E090E04AE00E9404
:10127000CB098DE792E00E94330A40EC68E383EBF0
:1012800094E00E949B0562E070E00E940C0A86E8F0
:1012900092E00E94330A6AE070E08091BD040E94EF
:1012A0000C0A8CE892E00E94330A6AE070E08091B8
:1012B000BA040E940C0A85E992E00E94330A0E9457
:1012C0008808BC0180E090E04AE00E94CB098BE9ED
:1012D00092E00C94870A833081F028F4813099F0F1
:1012E0008230A1F008958730A9F08830B9F08430B9
:1012F000D1F4809180008F7D03C0809180008F7732
:1013000080938000089584B58F7702C084B58F7D67
:1013100084BD08958091B0008F7703C08091B000A4
:101320008F7D8093B00008953FB7F8948091CA03F1
:101330009091CB03A091CC03B091CD0326B5A89B8F
:1013400005C02F3F19F00196A11DB11D3FBFBA2F57
:10135000A92F982F8827820F911DA11DB11DBC01B7
:10136000CD0142E0660F771F881F991F4A95D1F77C
:101370000895009769F0FC0101900020E9F731978A
:10138000AF01481B590BBC018EEC93E00C94F300A9
:1013900080E090E008958F929F92AF92BF920F935A
:1013A0001F93CF93DF93CDB7DEB7A1970FB6F89415
:1013B000DEBF0FBECDBF19A2423008F44AE08E0155
:1013C0000F5D1F4F842E912CA12CB12CA5019401EF
:1013D0000E946716E62FB901CA0101501109EA30CF
:1013E00014F4E05D01C0E95CD801EC93232B242BBD
:1013F000252B61F7C8010E94B909A1960FB6F89490
:10140000DEBF0FBECDBFDF91CF911F910F91BF9077
:10141000AF909F908F900895CF93DF93AB01672B90
:1014200061F4E091CE03F091CF030190F081E02DC3
:10143000682F8EEC93E0099506C0682F70E080E07D
:1014400090E00E94CB09EC018FE292E00E94B90982
:101450008C0F9D1FDF91CF9108958EBD0DB407FEB7
:10146000FDCF8EB508950C94B90929E832E0309388
:10147000010120930001E9E6F0E090819C7F892B37
:101480008083E89A0895CF93C82F8130A1F08230ED
:1014900021F540E16DE083EB94E00E94BA054091B4
:1014A000B8044F546EE083EB94E00E94BA0540917B
:1014B000B9044A5723C042E26DE083EB94E00E94F6
:1014C000BA054091B8044F546EE083EB94E00E945B
:1014D000BA054091B904455C11C041E26DE083EB6F
:1014E00094E00E94BA054091B8044E596EE083EB37
:1014F00094E00E94BA054091B9044A586FE083EB2A
:1015000094E00E94BA05C093B704CF910895CF9399
:10151000DF930E94B909EC018FE292E00E94B909C1
:101520008C0F9D1FDF91CF910895E091CE03F09134
:10153000CF030190F081E02D682F8EEC93E00994A9
:10154000CF92DF92FF920F931F93CF93DF93CDB78C
:10155000DEB782E08093B40483EB94E00E94AF0591
:1015600000E010E00F5F1F4F093E83E0180781F194
:1015700040EC65E383EB94E00E949B05982F9F71FC
:101580009D3041F52FC02A9A65E383EB94E00E94D9
:10159000A70582E08093B40440EC65E383EB94E01C
:1015A0000E949B058F718351833008F449C066E324
:1015B00083EB94E00E94A7056BE383EB94E00E9429
:1015C000A70583EB94E00E94AF0581E08093B4040B
:1015D00010E055C0813131F66AE383EB94E00E945C
:1015E000A705C0CF083E134099F38BEC97E0019715
:1015F000F1F783E50E94950A8AE30E94950A81E348
:1016000092E00E94870AFA844F2D6FE383EB94E007
:101610000E94BA052A981C99FECF8FE70E942D0AD6
:101620006E01EBE0CE0ED11C8601802F8C198F1538
:1016300008F0A9CFF80181918F010E942D0AF5CF02
:101640004A9BFECF4A99FECF40EC6AE383EB94E0DD
:101650000E949B058F7711E009F010E066E383EBB1
:1016600094E00E94A7056BE383EB94E00E94A7053A
:1016700083EB94E00E94AF0581E08093B404812F56
:10168000DF91CF911F910F91FF90DF90CF90089540
:10169000CF93DF93CDB7DEB7C154D1090FB6F8941D
:1016A000DEBF0FBECDBF96E099836A839091BD04E3
:1016B0009B831C824D838E832F838DB79EB781546D
:1016C00091090FB6F8949EBF0FBE8DBFADB7BEB7E0
:1016D000119681E4FE01319601900D928A95E1F711
:1016E0000E94A00A0FB6F894DEBF0FBECDBFCF5B3D
:1016F000DF4F0FB6F894DEBF0FBECDBFDF91CF91A5
:1017000008954F925F926F927F928F929F92AF92C5
:10171000BF92CF92DF92EF92FF926B017C01B42EC9
:101720009B01AC010E943619882319F08FE393E0E6
:1017300027C026013701E89477F82FEF3FEF4FE7F6
:101740005FE7C301B2010E94361981110DC02FEF6E
:101750003FEF4FE75FE7C301B2010E946C17181615
:101760001CF483E493E00CC02FEF3FEF4FE75FE4FE
:10177000C701B6010E94C418181684F487E493E0E8
:10178000FF90EF90DF90CF90BF90AF909F908F90A1
:101790007F906F905F904F900C94B9092FEF3FEFBF
:1017A0004FE75FECC701B6010E946C1787FDE6CFDB
:1017B00020E030E0A901C701B6010E946C1787FF45
:1017C00009C08DE20E94950A4C01F7FAF094F7F8EF
:1017D000F09402C0812C912CA12C60E070E080E09C
:1017E0009FE3AB1441F020E030E040E251E40E947E
:1017F0007117A394F6CF9B01AC01C701B6010E94FB
:1018000000172B013C010E94E3176B017C010E9431
:1018100012189B01AC01C301B2010E94FF162B01FB
:101820003C014AE0C701B6010E94CB097C01E80CEB
:10183000F91CBB2029F08EE20E94950AE80EF91EE1
:10184000DB2CDD2021F120E030E040E251E4C30157
:10185000B2010E94C9182B013C010E94E3174B0101
:10186000A12CB12C4AE0C501B4010E94CB09E80EBD
:10187000F91EC501B4010E9412189B01AC01C301FD
:10188000B2010E94FF162B013C01DA94DACFC701A6
:10189000FF90EF90DF90CF90BF90AF909F908F9090
:1018A0007F906F905F904F900895CF92DF92EF926C
:1018B000FF92CF93DF936C01990FEE08FF08F7FEBC
:1018C00012C08DE20E94950AEC0166277727CB01B2
:1018D0006C197D098E099F094AE00E94CB097C01A1
:1018E000EC0EFD1E06C04AE0C701B6010E94CB09FE
:1018F0007C018FE292E00E94B9098E0D9F1DDF915D
:10190000CF91FF90EF90DF90CF900895CF93DF932A
:10191000282F30E0F901E658FE4F8491F901EA5989
:10192000FE4FD491F901EE5AFE4FC491CC2391F0B1
:1019300081110E946B09EC2FF0E0EE0FFF1FE85BB6
:10194000FE4FA591B491EC91ED2381E090E021F45C
:1019500080E002C080E090E0DF91CF9108951F9376
:10196000CF93DF93282F30E0F901E658FE4F8491A2
:10197000F901EA59FE4FD491F901EE5AFE4FC49194
:10198000CC23C9F0162F81110E946B09EC2FF0E0D7
:10199000EE0FFF1FE25CFE4FA591B4918FB7F89454
:1019A000111105C09C91ED2FE095E92302C0EC9147
:1019B000ED2BEC938FBFDF91CF911F910895CF93C3
:1019C000DF9390E0FC01EA59FE4F2491FC01EE5AAE
:1019D000FE4F8491882361F190E0880F991FFC01EC
:1019E000EC5CFE4FC591D491FC01E25CFE4FA591E9
:1019F000B491611109C09FB7F89488812095822322
:101A00008883EC912E230BC0623061F49FB7F89469
:101A10003881822F809583238883EC912E2B2C9301
:101A20009FBF06C08FB7F894E8812E2B28838FBF05
:101A3000DF91CF9108958F929F92AF92BF92CF92F4
:101A4000DF92EF92FF926B017C010E9494094B019F
:101A50005C01C114D104E104F104F1F00E94940985
:101A6000DC01CB0188199909AA09BB09883E93407A
:101A7000A105B10570F321E0C21AD108E108F1080F
:101A800088EE880E83E0981EA11CB11CC114D104FD
:101A9000E104F10419F7DDCFFF90EF90DF90CF90D4
:101AA000BF90AF909F908F9008951F920F920FB6A6
:101AB0000F9211242F933F938F939F93AF93BF93D4
:101AC00080912B0590912C05A0912D05B0912E05AC
:101AD00030912A0523E0230F2D3720F40196A11D14
:101AE000B11D05C026E8230F0296A11DB11D20934C
:101AF0002A0580932B0590932C05A0932D05B09378
:101B00002E058091CA039091CB03A091CC03B09194
:101B1000CD030196A11DB11D8093CA039093CB0301
:101B2000A093CC03B093CD03BF91AF919F918F91C0
:101B30003F912F910F900FBE0F901F901895CF934C
:101B4000DF9300D01F92CDB7DEB7789484B5826062
:101B500084BD84B5816084BD85B5826085BD85B551
:101B6000816085BD80916E00816080936E001092CF
:101B7000810080918100826080938100809181004A
:101B800081608093810080918000816080938000DB
:101B90008091B10084608093B1008091B000816039
:101BA0008093B00080917A00846080937A00809165
:101BB0007A00826080937A0080917A0081608093BD
:101BC0007A0080917A00806880937A001092C10038
:101BD000E091DE03F091DF0382E08083E091DE0399
:101BE000F091DF031082E091DA03F091DB031082C1
:101BF000E091DC03F091DD0380E180831092E60345
:101C0000E091E203F091E30386E08083E091E0035A
:101C1000F091E103808180618083E091E003F091A5
:101C2000E103808188608083E091E003F091E1032B
:101C3000808180688083E091E003F091E1038081FE
:101C40008F7D808361E084E00E94DF0C0E94880821
:101C5000E091660020918000309181008FE38093B5
:101C6000660010926F001092700080E28093B600C0
:101C7000109280001092B00081E08093B1008093B8
:101C80008100B09A109285001092840080E444E6AE
:101C900050E060E070E0F1E08150A9F1B89A109254
:101CA000B2009091B600937191F0B09BFACFB09AC8
:101CB0001092850010928400415051096109710908
:101CC00081F71092B600E093660080E02DC0F0939B
:101CD00081001092850010928400B89BFECF109274
:101CE0008100A0918400B0918500A735B44F20F009
:101CF00090916600915015C0A0918400B09185002C
:101D0000A23FB34F58F01092B600B89A1092B200AA
:101D1000209380003093810081E006C0909166009E
:101D20009F5F90936600B8CF8093B20461E08AE031
:101D30000E94AF0C61E08AE00E94DF0C61E08BE062
:101D40000E94DF0C60E08CE00E94DF0C61E08DE01F
:101D50000E94DF0C61E08DE00E94AF0C60E08BE040
:101D60000E94AF0C81E58CBD60E082E00E94DF0C38
:101D70002A9A8FE090E00197F1F72A9883E290E0A9
:101D80000197F1F72A9A8FE990E00197F1F72A98E5
:101D90001C99FECF80E30E942D0A1C99FECF2A9A3F
:101DA00049E260E083EB94E00E94BA054EE261E014
:101DB00083EB94E00E94BA0546E062E083EB94E096
:101DC0000E94BA0547E063E083EB94E00E94BA0505
:101DD0004DE366E083EB94E00E94BA0546E067E0DD
:101DE00083EB94E00E94BA0545E068E083EB94E061
:101DF0000E94BA0520E047E465EB83EB94E00E9483
:101E0000170740E06FEF83EB94E00E94770640E015
:101E100060E083EB94E00E94CF0548E06BE083EB49
:101E200094E00E94BA0540E06CE083EB94E00E94ED
:101E3000BA0582E00E94430A4AEC60E183EB94E039
:101E40000E94BA0543E861E183EB94E00E94BA0581
:101E500043E962E183EB94E00E94BA0542E263E168
:101E600083EB94E00E94BA0548EF64E183EB94E0D1
:101E70000E94BA0545E365E183EB94E00E94BA0550
:101E800047E066E183EB94E00E94BA0540E267E137
:101E900083EB94E00E94BA0548E168E183EB94E0AB
:101EA0000E94BA0546E169E183EB94E00E94BA051D
:101EB0004CE66AE183EB94E00E94BA0543E46BE1EF
:101EC00083EB94E00E94BA0540E46CE183EB94E07C
:101ED0000E94BA0541E96DE183EB94E00E94BA05E6
:101EE00047E86EE183EB94E00E94BA054BE66FE1B0
:101EF00083EB94E00E94BA054BEF60E283EB94E041
:101F00000E94BA0546E561E283EB94E00E94BA05BF
:101F100040E162E283EB94E00E94BA0549EE63E29D
:101F200083EB94E00E94BA054AE264E283EB94E01A
:101F30000E94BA0540E065E283EB94E00E94BA0596
:101F40004FE166E283EB94E00E94BA0541E467E268
:101F500083EB94E00E94BA0540E068E283EB94E0F2
:101F60000E94BA0549E569E283EB94E00E94BA0554
:101F70004FE76AE283EB94E00E94BA054FE36BE21D
:101F800083EB94E00E94BA0541E86CE283EB94E0B5
:101F90000E94BA0545E36DE283EB94E00E94BA0526
:101FA00049E06EE283EB94E00E94BA0586E090E09F
:101FB0000E9499058093B80487E090E00E949905FB
:101FC0008093B90480E090E00E9499058A3030F453
:101FD00040E0682F83EB94E00E94CF0582E090E020
:101FE0000E949905682F83E090E06B830E94990519
:101FF0006B819FEF960F9E3F20F09FEF980F9E3FC3
:1020000030F420E0482F83EB94E00E94170784E02F
:1020100090E00E949905882331F040E0682F83EB1F
:1020200094E00E9477064091B5046EE383EB94E060
:102030000E94BA058091B9048F3FD1F48091B80411
:102040008F3FB1F48EE992E00E94870A1092B804A3
:102050001092B90460E086E090E00E94491660E0CA
:1020600087E090E00E9449168091B7040E94430ADD
:1020700021E047E465EB83EB94E00E94170784E0DE
:1020800090E00E94411640E0682F83EB94E00E94AC
:10209000770682E00E94430A44E067E083EB94E025
:1020A0000E94BA0585E090E00E94411680930505E4
:1020B00086E090E00E9441168093060583EC90E054
:1020C0000197F1F783EB94E00E94AF0582E090E086
:1020D0000E94350A1092020583E0809303050E9456
:1020E000350587EB92E00E94330A40EC60E383EB16
:1020F00094E00E949B05682F70E080E090E04AE049
:102100000E94CB098AEC92E00E94330A40EC61E322
:1021100083EB94E00E949B056AE070E00E940C0A49
:10212000F8941092500310924F0310924E031092A5
:102130004D0310925A031092590314BE109280005E
:102140001092810081EA97E0909389008093880043
:1021500080918100886080938100809181008160FE
:1021600080938100809181008460809381008091C0
:102170006F00826080936F00789461E085E00E9438
:10218000DF0C61E086E00E94DF0C61E08FE00E94DE
:10219000DF0C61E083E00E94DF0C61E080E10E94DF
:1021A000DF0C60E088E00E94DF0C61E088E00E94C4
:1021B000AF0C60E087E00E94DF0C61E087E00E94E6
:1021C000AF0C0E94A60761E084E00E94AF0C84E09F
:1021D0008093500380916F00826080936F00109213
:1021E000AB0437E0932E01E613E042E0842E50E585
:1021F000E52EF12C68E7562E77ECC72E74E0D72E2B
:10220000E0ECAE2EE4E0BE2E8091AE04837011F4BB
:102210000E94A6078091AE048A3020F01092AE048E
:102220000E9488088EEC93E00E945301892B09F4E8
:10223000B3C08EEC93E00E94310118160CF0ACC0D4
:102240008D3039F0803219F08A30C1F4A5C080E2B7
:102250003BC060905F037090600310926003109227
:102260005F038DE00E94950A161417040CF094C0C9
:10227000909171034091720380E029C020915F0327
:10228000309160032230310574F4A9014F5F5F4F34
:102290005093600340935F03F901EF58FC4F808334
:1022A0001092610311C02131310574F4A9014F5915
:1022B0005C4FFA0132978083319610822F5F3F4F37
:1022C0003093600320935F030E94950A65C0682ED7
:1022D000712C969CF001979CF00D1124EC5EFE4F42
:1022E0002081291303C02181241779F08F5F989EE4
:1022F000F0011124EC5EFE4F23813481232B39F74A
:102300008EEC92E00E94870A47C0809161038111A0
:1023100009C010925203109251031092540310926C
:10232000530322C01A83098360ED72E0CE01019647
:102330000E94261640E050E060E070E00E940C151C
:10234000709352036093510360ED72E0CE010196E9
:102350000E94261640E050E060E070E00E940C15FC
:10236000709354036093530361E084E00E94AF0CC8
:102370008092500380916F00826080936F00109272
:10238000AB04969CF001979CF00D1124EC5EFE4F7F
:102390000380F481E02D099580915D03882341F04D
:1023A00040E061E088E894E00E94400510925D03FF
:1023B00080915C038823B1F085E00E94860C892B14
:1023C00079F48091870481110BC010925B03F09225
:1023D0005A03E092590380916F00826080936F00EE
:1023E00010925C0320915803222339F040E061E011
:1023F00084E00E94480B10925803809156039091FC
:1024000057030097E1F00E94330A84ED92E00E94A6
:10241000330A6091870470E080E090E04AE00E9417
:10242000CB098DED92E00E94330A6AE070E0809162
:1024300055030E940C0A1092570310925603809184
:102440005E03811108C050925E0340E061E08DE6BA
:1024500094E00E9440058091AF04882309F49DC157
:102460001092040583EE92E00E94330A1092AF04AA
:1024700062E070E080E090E00E941B0D40EC6BE3B6
:1024800083EB94E00E949B051092BE0487FF02C07C
:1024900081E018C0882309F447C040E86FE383EB6C
:1024A00094E00E949B05782E8093BF04811104C0A4
:1024B00084E08093BE0409C0ADE3A81730F4109205
:1024C000BF0483E08093BE0433C02A981C99FECFDA
:1024D0008FEF0E942D0A20EC222E24E0322E822D36
:1024E0008A19871538F480E00E942D0AF101819342
:1024F0001F01F5CF2A9A40E86FE383EB94E00E9436
:102500009B058093FE0440E86FE383EB94E00E9418
:102510009B05982F9F779093FF04982F991F9927D9
:10252000991F9093FD0404C01092BF048092BE04D2
:1025300066E383EB94E00E94A7056AE383EB94E0F3
:102540000E94A70563E383EB94E00E94A70583EB59
:1025500094E00E94AF058091BE04811115C0809166
:10256000FD04811104C081E08093040529C082E547
:102570000E94950A8AE30E94950A81E392E00E94F4
:10258000870A772473941DC086EE92E00E94330A76
:102590008091BE04823069F028F4813089F481EFA3
:1025A00092E00CC0833041F0843051F48DE093E030
:1025B00005C089EF92E002C080E093E00E94870AA4
:1025C000712C80910405882321F08CE193E00E9416
:1025D000870A82E792E00E94330A2091FE04622F6C
:1025E00070E080E090E027FF09C00E94121820E010
:1025F00030E040E853E40E94FF1602C00E94121827
:1026000020E030E040E05FE30E94C91820E030E0C5
:1026100044E952E40E94FF1642E00E94810B8FE2DF
:1026200092E00E94B909772009F4B7C08091C203F3
:10263000811103C081E08093C2036091C104809145
:10264000C2045091C3044091C4043091C504209148
:10265000C6049091BF0497507091C0047093B40366
:102660006093B503682F62956F706093B6035093C3
:10267000B7034093B8033093B9032093BA03D092C1
:10268000BC03C092BB039093BD03982F91709093AD
:10269000BE03869581708093BF031092C003109291
:1026A000C10384E293E00E94330A6091B50370E0B5
:1026B00080E090E04AE00E94CB0989E293E00E942A
:1026C000330A6AE070E08091B4030E940C0A8091A2
:1026D000B403882309F461C09091BD0489135DC0DF
:1026E0002091B803213061F108F450C0223009F084
:1026F00046C0E091BA03EB3008F043C0F0E0EE0FC3
:10270000FF1FE859FE4F6080718061147104C9F1A8
:102710009091BD03D30113968C911397981333C0F6
:102720006091BB037091BC031696ED91FC911797D5
:10273000309759F18C910995282F811127C017C026
:10274000E091BA03EB3010F5F0E0EE0FFF1FE8590F
:10275000FE4F6080718061147104C1F0D301149642
:10276000ED91FC911597309711F08C91099540915E
:10277000B7036091B503C3010E9440050EC022E07B
:1027800005C021E003C025E001C027E04091B70368
:102790006091B50383E00E94480B712C7394B5E6F9
:1027A0007B1649F140EC65E383EB94E00E949B05C6
:1027B000982F9F719D3091F4E4E67E16E1F082E05F
:1027C00090E00E94350A8091AC04882321F080912A
:1027D000AB04811118C00E94F30116CD813129F498
:1027E0006AE383EB94E00E94A70564E383EB94E043
:1027F0000E94A705D3CF80E393E00E94870AE0E020
:10280000F0E00994DCCF60E084E00E94AF0C0E940D
:10281000350583B7816083BF81E090E00E94350A6F
:1028200083B7817F846083BFF89485B7806685BF56
:102830008F7D85BF7894889583B78E7F83BFCBCFFC
:10284000EEECF3E01382128288EE93E0A0E0B0E0B9
:1028500084839583A683B78382E891E09183808304
:1028600085EC90E09587848784EC90E09787868755
:1028700080EC90E0918B808B81EC90E0938B828B4D
:1028800082EC90E0958B848B86EC90E0978B868B26
:10289000118E128E138E148EE8EAF4E080EC858798
:1028A0001092080510920705118610861782138270
:1028B000148216821282158280912905E1E2F5E0E8
:1028C00080832CE031E03283218398E0938315826A
:1028D000148217821682E9E1F5E091E0980F908367
:1028E00028E031E03283218394E0938315821482BF
:1028F00017821682E1E1F5E022E0280F208324E030
:1029000031E03283218393831582148217821682E9
:10291000E9E0F5E093E0980F90832AEB34E032830E
:10292000218391E093831582148220EF35E0378371
:102930002683E0EAF4E024E0280F20832BEB34E048
:102940003283218322E023831582148249E457E0F5
:1029500057834683E8E9F4E035E0380F30834DEBE8
:1029600054E05283418393831582148248E956E0F0
:1029700057834683E0E9F4E036E0380F308345E0E2
:1029800055E05283418323831582148243E753E049
:1029900057834683E8E8F4E037E0380F308347E8B0
:1029A00054E05283418393834CEC52E0558344833B
:1029B00041E153E057834683EFE7F4E038E0380F16
:1029C00030834EE754E0528341839383158214820F
:1029D00049ED52E057834683E6E7F4E039E0380FEB
:1029E000308365E774E07283618393831582148278
:1029F000578346839BE0980F90932905EDE6F4E01A
:102A0000865F80838BE694E09283818323831582A3
:102A10001482178216820895A0E0B0E0E2E1F5E1A9
:102A20000C9494165C016B017A016115710519F023
:102A3000FB0191838083E114F10429F0C70102971F
:102A4000839708F0F1C0E5012196F5011081812FEF
:102A500090E00E941D16892B11F05E01F4CF1D320B
:102A600029F42196F501118101E007C01B3221F400
:102A7000E5012296F501118100E0E114F10459F11C
:102A8000F0E1EF16F10461F41033E1F488818F7DF9
:102A9000883569F519812296026070E1E72EF12CE4
:102AA00088E0E816F10439F12CF4F2E0EF16F104B5
:102AB000C9F12AC08AE0E816F10479F0E0E1EE16E7
:102AC000F10411F550E1E52EF12C812C912CA12C73
:102AD00068E0B62E2CC01033C9F23AE0E32EF12C98
:102AE0004CEC842E982CA82C4CE0B42E20C010E383
:102AF000E114F104A9F698E0E92EF12C812C912C37
:102B0000A12C20E1B22E13C060E070E080E090E8DC
:102B100097010F2C000C440B550B0E9467164901BE
:102B20005A0105C0812C912CA12C80E4B82E60E0C4
:102B300020E030E0A90127010F2C000C660877087F
:102B40001E01E0EDE10FEA3060F08FEB810F8A317A
:102B500010F4E9EC05C08FE9810F8A3128F5E9EA24
:102B6000E10F8E2F90E08E159F05F4F467FD18C0DD
:102B700082169306A406B50690F0C301B2010E9426
:102B800057169B01AC012E0F311D411D511D2130E7
:102B900031054105F0E85F0710F461E001C06FEF17
:102BA0002196F1011081CCCF802F8170C114D10406
:102BB00071F0662329F02197F601D183C08307C005
:102BC00001FF19C02297F601D183C08314C067FFAB
:102BD00012C0811105C02FEF3FEF4FEF5FE704C038
:102BE00020E030E040E050E882E290E09093300551
:102BF00080932F0516C0882341F05095409530955D
:102C000021953F4F4F4F5F4F0CC057FF0AC082E2E4
:102C100090E09093300580932F052FEF3FEF4FEF1B
:102C20005FE7B901CA0104C060E070E080E090E0B5
:102C3000CDB7DEB7E2E10C94B01691110C943E16BC
:102C4000803219F089508550C8F70895FC01A081A1
:102C5000B181AD01109681F03D91FB010190031609
:102C60000110E1F7C9F7002011F4D00102C01E9253
:102C70001196FC01A083B183CA0108959927882782
:102C80000895F999FECF92BD81BDF89A992780B534
:102C90000895262FF999FECF1FBA92BD81BD20BDA0
:102CA0000FB6F894FA9AF99A0FBE01960895DB01CF
:102CB0008F939F930E948916BF91AF91A29F800D21
:102CC000911DA39F900DB29F900D11240895A1E234
:102CD0001A2EAA1BBB1BFD010DC0AA1FBB1FEE1F96
:102CE000FF1FA217B307E407F50720F0A21BB30BE1
:102CF000E40BF50B661F771F881F991F1A9469F75D
:102D000060957095809590959B01AC01BD01CF01B8
:102D100008950E94CB16A59F900DB49F900DA49F7F
:102D2000800D911D112408952F923F924F925F9232
:102D30006F927F928F929F92AF92BF92CF92DF92CB
:102D4000EF92FF920F931F93CF93DF93CDB7DEB730
:102D5000CA1BDB0B0FB6F894DEBF0FBECDBF0994C4
:102D60002A88398848885F846E847D848C849B841B
:102D7000AA84B984C884DF80EE80FD800C811B8129
:102D8000AA81B981CE0FD11D0FB6F894DEBF0FBE58
:102D9000CDBFED010895A29FB001B39FC001A39FD5
:102DA000700D811D1124911DB29F700D811D112484
:102DB000911D0895052E97FB1EF400940E94F116B4
:102DC00057FD07D00E94671607FC03D04EF40C9401
:102DD000F11650954095309521953F4F4F4F5F4FDD
:102DE000089590958095709561957F4F8F4F9F4F77
:102DF0000895EE0FFF1F0590F491E02D09945058AF
:102E0000BB27AA270E9417170C948A180E947C18C7
:102E100038F00E94831820F039F49F3F19F426F40B
:102E20000C9479180EF4E095E7FB0C947318E92FD5
:102E30000E949B1858F3BA17620773078407950717
:102E400020F079F4A6F50C94BD180EF4E0950B2E45
:102E5000BA2FA02D0B01B90190010C01CA01A001EC
:102E60001124FF27591B99F0593F50F4503E68F147
:102E70001A16F040A22F232F342F4427585FF3CF88
:102E8000469537952795A795F0405395C9F77EF459
:102E90001F16BA0B620B730B840BBAF09150A1F0A2
:102EA000FF0FBB1F661F771F881FC2F70EC0BA0F28
:102EB000621F731F841F48F4879577956795B795B0
:102EC000F7959E3F08F0B0CF9395880F08F09927AB
:102ED000EE0F9795879508950E944F1808F481E0AA
:102EE00008950E9485170C948A180E94831858F040
:102EF0000E947C1840F029F45F3F29F00C9473186D
:102F000051110C94BE180C9479180E949B1868F308
:102F10009923B1F3552391F3951B550BBB27AA2792
:102F200062177307840738F09F5F5F4F220F331FCC
:102F3000441FAA1FA9F335D00E2E3AF0E0E832D094
:102F400091505040E695001CCAF72BD0FE2F29D097
:102F5000660F771F881FBB1F261737074807AB0769
:102F6000B0E809F0BB0B802DBF01FF2793585F4FDE
:102F70003AF09E3F510578F00C9473180C94BE18EB
:102F80005F3FE4F3983ED4F3869577956795B795C0
:102F9000F7959F5FC9F7880F911D9695879597F9CB
:102FA0000895E1E0660F771F881FBB1F6217730744
:102FB0008407BA0720F0621B730B840BBA0BEE1F59
:102FC00088F7E09508950E94A31888F09F5798F01D
:102FD000B92F9927B751B0F0E1F0660F771F881F1E
:102FE000991F1AF0BA95C9F714C0B13091F00E9438
:102FF000BD18B1E008950C94BD18672F782F88276D
:10300000B85F39F0B93FCCF3869577956795B3955E
:10301000D9F73EF490958095709561957F4F8F4FCD
:103020009F4F0895E89409C097FB3EF490958095D2
:10303000709561957F4F8F4F9F4F9923A9F0F92F7E
:1030400096E9BB279395F695879577956795B795FC
:10305000F111F8CFFAF4BB0F11F460FF1BC06F5FE2
:103060007F4F8F4F9F4F16C0882311F096E911C0F4
:10307000772321F09EE8872F762F05C0662371F015
:1030800096E8862F70E060E02AF09A95660F771F29
:10309000881FDAF7880F9695879597F90895990F05
:1030A0000008550FAA0BE0E8FEEF16161706E80712
:1030B000F907C0F012161306E407F50798F0621B33
:1030C000730B840B950B39F40A2661F0232B242B08
:1030D000252B21F408950A2609F4A140A6958FEF27
:1030E000811D811D089597F99F6780E870E060E079
:1030F00008959FEF80EC089500240A941616170691
:1031000018060906089500240A94121613061406D8
:1031100005060895092E0394000C11F4882352F03B
:10312000BB0F40F4BF2B11F460FF04C06F5F7F4FF3
:103130008F4F9F4F089557FD9058440F551F59F0DA
:103140005F3F71F04795880F97FB991F61F09F3F94
:1031500079F087950895121613061406551FF2CFBD
:103160004695F1DF08C0161617061806991FF1CF0D
:1031700086957105610508940895E894BB27662734
:103180007727CB0197F908950E944F1808F48FEF25
:1031900008950E94DC180C948A180E947C1838F05C
:1031A0000E94831820F0952311F00C9473180C944E
:1031B000791811240C94BE180E949B1870F3959FE7
:1031C000C1F3950F50E0551F629FF001729FBB271E
:1031D000F00DB11D639FAA27F00DB11DAA1F649FBA
:1031E0006627B00DA11D661F829F2227B00DA11D6D
:1031F000621F739FB00DA11D621F839FA00D611DF3
:10320000221F749F3327A00D611D231F849F600D13
:10321000211D822F762F6A2F11249F5750409AF03C
:10322000F1F088234AF0EE0FFF1FBB1F661F771FC8
:10323000881F91505040A9F79E3F510580F00C9493
:1032400073180C94BE185F3FE4F3983ED4F3869550
:1032500077956795B795F795E7959F5FC1F7FE2B33
:10326000880F911D9695879597F908950E944F189C
:10327000880B990B089581E090E0F8940C94401924
:04328000F894FFCFF0
:10328400F200F20000000101000002000000000151
:10329400000000017265003E040000667300B30381
:1032A4000000736100F10600007363005106000022
:1032B4006464004C040000706900E1030000616173
:1032C400006A040000737400CB080000736C00D91A
:1032D400030000707500020300003F3F0059040022
:1032E4000000000000000000210519051105090572
:1032F400A0049804900488047F0476046D040000FC
:1033040000008A01F3002201D1015301310145017A
:10331400474554205354415420005353522053548E
:103324004154200050756C7365206D6F746F72206A
:10333400756E697400525120535441543A0020412F
:1033440043543A004348524720004F4E004F4646EC
:103354000052737420746F20666163746F72790015
:10336400536C656570206D6F646520616374697664
:10337400650050696E670053656E74005265626F34
:103384006F74005253542052510044626720004924
:103394006E76616C6964206368616E6E656C00535F
:1033A4006574206368616E6E656C20746F20000D17
:1033B4000A00496E76616C6964206164647200532A
:1033C400657420726164696F206164647220746F33
:1033D4002000535441542043480043683A00204D90
:1033E4003A00206D3A004D41524320535441544514
:1033F40020005253534920004C51492000200970A9
:103404007374617420004144445220004348414E87
:103414004E454C20004241545420006D56005265E4
:1034240073657474696E672066726571207265676E
:103434007320746F2030000A5354415254200A20E0
:1034440043433131303120502000205620003F00CA
:103454002E2C20002053746174653A200020657876
:10346400702000210A004343525820504B543A2004
:1034740000204F5652464C57002030204C454E00F9
:1034840020494E56414C4944204C454E002042555B
:103494004646204C454E2049532030004352432099
:1034A40045525200205352430020444553542000B7
:1034B4003F53544154453F20524553455421006ED7
:0C34C400616E00696E66006F76660000A5
:00000001FF
