:100000000C94C8000C9493040C946C040C94F000B1
:100010000C94F0000C94F0000C941C050C94F0006F
:100020000C94F0000C9412050C94F0000C94E00772
:100030000C94F0000C94F0000C94F0000C94F00080
:100040000C945B0D0C94F0000C94E0040C94BA0436
:100050000C94F0000C94F0000C94F0000C94F00060
:100060000C94F0000C94F00072652052657374617A
:1000700072740D0A73612053657420726164696F34
:1000800020616464726573730D0A73632053657431
:1000900020726164696F206368616E6E656C0D0A21
:1000A000667320526573657420656570726F6D208C
:1000B000746F20666163746F7279207365747469FC
:1000C0006E67730D0A646420456E61626C6520641E
:1000D00065627567206F75747075740D0A7069209C
:1000E00050696E670D0A616120416C61726D0D0A85
:1000F00073742044756D70207374617475730D0A88
:10010000736C20416374697661746520736C6565F6
:10011000700D0A70752050756C7365206D6F746F6B
:100120007220756E69740D0A3F3F2048454C500D92
:100130000A0D0A0000000000240027002A00000029
:100140000000250028002B000000000023002600EE
:10015000290004040404040404040202020202024A
:10016000030303030303010204081020408001027B
:1001700004081020010204081020000000080002FA
:1001800001000003040700000000000000000A1442
:1001900011241FBECFEFD8E0DEBFCDBF25E0ACE419
:1001A000B3E001C01D92A033B207E1F713E0A0E075
:1001B000B1E0E8E5F2E302C005900D92AC34B1077E
:1001C000D9F710E0C8ECD0E004C02197FE010E94EE
:1001D000E316C73CD107C9F70E94A50D0C942A1954
:1001E0000C9400000895CF92DF92EF92FF920F934C
:1001F0001F93CF93DF936C017A018B01C0E0D0E0B5
:10020000CE15DF0589F0D8016D918D01D601ED91F4
:10021000FC910190F081E02DC6010995892B11F424
:100220007E0102C02196ECCFC701DF91CF911F91D3
:100230000F91FF90EF90DF90CF900895089580E0A8
:1002400090E00895FC01538D448D252F30E0842FDC
:1002500090E0821B930B541710F0CF9608950197EE
:100260000895FC01918D828D981761F0828DDF01D8
:10027000A80FB11D5D968C91928D9F5F9F73928F99
:1002800090E008958FEF9FEF0895FC01918D828D8E
:10029000981731F0828DE80FF11D858D90E008955B
:1002A0008FEF9FEF0895FC01918D228D892F90E0B3
:1002B000805C9F4F821B91098F73992708958DEC65
:1002C00093E00E94530121E0892B09F420E0822F62
:1002D0000895FC01848DDF01A80FB11DA35ABF4F03
:1002E0002C91848D90E001968F739927848FA68935
:1002F000B7892C93A089B1898C9180648C93938D5C
:10030000848D981306C00288F389E02D80818F7D4B
:1003100080830895EF92FF920F931F93CF93DF9303
:10032000EC0181E0888F9B8D8C8D981305C0E88946
:10033000F989808185FD24C0F62E0B8D10E00F5FBA
:100340001F4F0F731127E02E8C8DE8120CC00FB6D3
:1003500007FCFACFE889F989808185FFF5CFCE01C6
:100360000E946901F1CF8B8DFE01E80FF11DE35A68
:10037000FF4FF0820B8FEA89FB898081806207C082
:10038000EE89FF896083E889F989808180648083B0
:1003900081E090E0DF91CF911F910F91FF90EF905E
:1003A0000895CF93DF93EC01888D8823C9F0EA8903
:1003B000FB89808185FD05C0A889B9898C9186FD5E
:1003C0000FC00FB607FCF5CF808185FFF2CFA8895B
:1003D000B9898C9185FFEDCFCE010E946901E7CFED
:1003E000DF91CF91089580E090E0892B29F00E9461
:1003F0005F0181110C94000008950E9425190F934C
:100400001F93CF93DF93CDB7DEB7C154D1090FB699
:10041000F894DEBF0FBECDBF8C0162E370E080E0D8
:1004200090E00E94210DF801E65BFF4F208187E0FC
:10043000820F8983399780818A83319680818B836B
:100440003196808130E1839FC00111248C833996DD
:100450003081332311F082608C83F801E35BFF4F1E
:100460008081882319F08C8184608C83F801EC5B97
:10047000FF4F80818D83319680818E83319680817C
:100480008F83319680818887AE01475F5F4F80E020
:1004900090E03196821750F4A081B181A80FB91F66
:1004A0003C91DA013D93AD010196F4CF13E001E4F4
:1004B0002DB73EB7215431090FB6F8943EBF0FBE99
:1004C0002DBFADB7BEB71196FE013196802F0190BA
:1004D0000D928A95E1F70E94A60A0FB6F894DEBF46
:1004E0000FBECDBF811109C0115039F062E370E039
:1004F00080E090E00E94210DDBCFCF5BDF4F0FB695
:10050000F894DEBF0FBECDBFDF91CF911F910F9149
:10051000089583B78E7F83BFE89882EF90E0909331
:100520000101809300018091B304823019F081E0D1
:100530008093AE0461E084E00E94B50C84E0809377
:10054000530380916F00826080936F001092AA0421
:1005500008950C94331685E00E948C0C892B11F4BD
:1005600084E00CC060E085E00E94B50C60E086E0AD
:100570000E94B50C81E080934C0388E28093520383
:1005800080916F00826080936F001092AA0408959A
:1005900080E991E00E94390A6AE070E08091860467
:1005A0000E94120A8091860408951F93CF93DF93CF
:1005B000182FEB018AE991E00E94390A80917E04AC
:1005C000181307C068818FE00E94B50C8881809362
:1005D0007D0480917504181307C0688180E10E9432
:1005E000B50C8881809374046AE070E088810E9471
:1005F000120A80E0DF91CF911F91089584EA91E083
:100600000E94390A84E080935203EFE6F0E0808193
:10061000826080831092AA040895CF93DF93EB0148
:1006200085EB91E00E94390AC8816C2F70E080E070
:1006300090E04AE00E94D1098EEB91E00E94390AD5
:100640006AE070E0809186040E94120AC23029F4A8
:1006500080918604823039F43CC0C11104C080917D
:1006600086048823C9F11092AB04C130A9F048F088
:10067000C230F1F0C33079F560E085E00E94B50C3E
:1006800028C00E94AB0280EC93E0909351038093CA
:1006900050031092580316C00E94AB0280EC93E006
:1006A00090935103809350038FEF809358030AC0B7
:1006B0000E94AB0280EC93E090935103809350032F
:1006C000C093580380916F00826080936F001092F6
:1006D000AA0480E001C086E0DF91CF910895CF9316
:1006E000DF93EB01E0919004F09191049881808177
:1006F000981304C099818181981781F0888199812C
:100700009093050580930405688185E090E00E9440
:100710003316698186E090E00E94331680E0DF9115
:10072000CF910895CF93C82F80914C03882321F057
:1007300060E086E00E94B50C84EC91E00E94390AEA
:1007400061E06C2786E00E94B50CCC2319F08AEC9E
:1007500091E002C08DEC91E0CF910C948D0A81ED77
:1007600091E00E948D0A65EB82E090E00E94A90270
:1007700067E483E090E00E94A9026FEF84E090E0DC
:100780000E94A90260E080E090E00E94A9026FEF61
:1007900085E090E00E94A9026FEF86E090E00E9461
:1007A000A902E0E0F0E00994089580EE91E00E9453
:1007B0008D0A81E08093AB0408950F931F93CF932C
:1007C000DF93CDB7DEB7CF54D1090FB6F894DEBFB3
:1007D0000FBECDBF8091540390915503811101C08C
:1007E00081E0182F01E082EF91E00E948D0A2E96A1
:1007F0001FAE2E9760961FAE609723961FAE23976D
:100800008091BC0424968FAF249725961FAE259720
:1008100027960FAF279728961FAE289785E0299631
:100820008FAF29972B961FAE1EAE2B972C961FAE1F
:100830002C972F960FAF2F97CE0101960E94FF01A4
:10084000882321F087EF91E00E948D0A64EF71E028
:1008500080E090E00E94210D115029F6C15BDF4F2E
:100860000FB6F894DEBF0FBECDBFDF91CF911F91C1
:100870000F9108958CEF91E00E948D0A109202056D
:1008800083E092E00E948D0AE0E0F0E00994089590
:100890008AE092E00E94390AE7EAF4E0958181E07B
:1008A0008927858390E00C945B0C1F93CF93DF9393
:1008B000C8E6D0E0FE011491812F0E949B0A219688
:1008C0001111F8CFDF91CF911F91089521E040E001
:1008D00061E084E00C944E0B1F920F920FB60F92C2
:1008E00011242F933F934F935F936F937F938F9335
:1008F0009F93AF93BF93EF93FF93E0910201F09129
:1009000003010995FF91EF91BF91AF919F918F9155
:100910007F916F915F914F913F912F910F900FBEFB
:100920000F901F9018951F920F920FB60F921124DF
:100930002F933F934F935F936F937F938F939F93E7
:10094000AF93BF93EF93FF93E0910001F09101010A
:100950000995FF91EF91BF91AF919F918F917F91F9
:100960006F915F914F913F912F910F900FBE0F901C
:100970001F9018951F920F920FB60F9211242F936C
:100980003F934F935F936F937F938F939F93AF9317
:10099000BF93EF93FF938DEC93E00E946901FF9169
:1009A000EF91BF91AF919F918F917F916F915F91E7
:1009B0004F913F912F910F900FBE0F901F90189560
:1009C0001F920F920FB60F9211242F938F939F9324
:1009D000EF93FF93E091DD03F091DE038081E091DE
:1009E000E303F091E40382FD12C090818091E6035D
:1009F0008F5F8F732091E703821751F0E091E60338
:100A0000F0E0E353FC4F958F8093E60301C08081B3
:100A1000FF91EF919F918F912F910F900FBE0F90AB
:100A20001F9018951F920F920FB60F9211240F90DE
:100A30000FBE0F901F9018951F920F920FB60F9236
:100A400011248F93EF93FF93E7EAF4E086818F5FA1
:100A50008683FF91EF918F910F900FBE0F901F90A3
:100A60001895E0E6F0E080818861808386E08083ED
:100A70008081806480830895FF920F931F93CF93AA
:100A8000DF93CDB7DEB7C055D1090FB6F894DEBFFE
:100A90000FBECDBF8C01F62E62E370E080E090E0E7
:100AA00061964FAF61970E94210DF80193812181DA
:100AB000328150812E961FAE2E972F961FAE2F9704
:100AC00060961FAE60978091BC0424968FAF2497E8
:100AD00025961FAE259727961FAE279728968FAF8E
:100AE000289729965FAF29972C969FAF2C972B9626
:100AF0003FAF2EAF2B972396FFAE239761964FAD56
:100B0000619726964FAF2697CE0101960E94FF016E
:100B1000C05BDF4F0FB6F894DEBF0FBECDBFDF91D5
:100B2000CF911F910F91FF9008950C942B16862F53
:100B3000842B2A981C99FECF0E94330A80E00E94E1
:100B4000330A2A9A0895862F2A981C99FECF0E946C
:100B5000330A2A9A0895CF93DF93EC0164E30E944D
:100B6000A30581E08983DF91CF910895CF93DF932F
:100B70001F92CDB7DEB7862F2A981C99FECF4983E6
:100B80000E94330A4981842F0E94330A2A9A0F90C7
:100B9000DF91CF9108950F931F93CF93DF93FC01C3
:100BA00027812617A1F0D42FC62F8C01462F6AE08B
:100BB0000E94B605F801C783DD2349F06C2F80E061
:100BC00090E0DF91CF911F910F910C943316DF913C
:100BD000CF911F910F9108950F931F93CF93DF93A0
:100BE000CDB7DEB7CF54D1090FB6F894DEBF0FBE34
:100BF000CDBFE0910905F0910A05DB019C91808150
:100C0000981709F43DC08B0190910B0520910805C0
:100C10002E961FAE2E972F961FAE2F9760961FAE63
:100C2000609723961FAE23978091BC0424968FAFC4
:100C3000249725961FAE259727961FAE27972896AF
:100C40008FAF289729962FAF29972C969FAF2C9777
:100C50002B967FAF6EAF2B97CE0101960E94FF01BE
:100C600041E0F801608182EB94E00E94CB05109294
:100C7000020583E092E00E948D0AE0E0F0E0099432
:100C800080E0C15BDF4F0FB6F894DEBF0FBECDBF73
:100C9000DF91CF911F910F9108958091540390910E
:100CA00055038F3F910529F020F08FE092E00C94DE
:100CB0008D0A8FE192E00E94390A6091540370918D
:100CC000550380E090E04AE00E94D1098FE292E073
:100CD0000E94BF09609154037091550341E082EB7B
:100CE00094E00C94CB050F931F93CF93DF93FC01FB
:100CF00022852617A1F0D42FC62F8C01462F69E03C
:100D00000E94B605F801C287DD2349F06C2F84E00C
:100D100090E0DF91CF911F910F910C943316DF91EA
:100D2000CF911F910F9108950F931F93CF93DF934E
:100D3000CDB7DEB7CF54D1090FB6F894DEBF0FBEE2
:100D4000CDBFFB0180818823D9F1E0919804F09117
:100D5000990490818917A1F18B0190919A042091B7
:100D600097042E961FAE2E972F961FAE2F97609644
:100D70001FAE609723961FAE23978091BC042496E4
:100D80008FAF249725961FAE259727961FAE2797DE
:100D900028968FAF289729962FAF29972C969FAF2B
:100DA0002C972B967FAF6EAF2B97CE0101960E94AA
:100DB000FF0141E0F801608182EB94E00E9473063C
:100DC00080E0C15BDF4F0FB6F894DEBF0FBECDBF32
:100DD000DF91CF911F910F910895809154039091CD
:100DE00055038F3F910529F020F082E392E00C94A7
:100DF0008D0A8FE392E00E94390A6091540370914A
:100E0000550380E090E04AE00E94D1098FE292E031
:100E10000E94BF09609154037091550341E082EB39
:100E200094E00C947306FF920F931F93CF93DF937C
:100E3000EC018885861303C08985841701F1F22EA1
:100E4000142F062F462F64E0CE010E94B605412FD5
:100E500065E0CE010E94B60508871987FF2079F06A
:100E6000602F82E090E00E943316612F83E090E0D3
:100E7000DF91CF911F910F91FF900C943316DF916A
:100E8000CF911F910F91FF9008950F931F93CF93D0
:100E9000DF93CDB7DEB7CF54D1090FB6F894DEBFDC
:100EA0000FBECDBFE091A004F091A104DB019C91A5
:100EB0008081981305C011969C9181819817A9F1A2
:100EC0008B019091A20420919F042E961FAE2E9725
:100ED0002F961FAE2F9760961FAE609723961FAE7A
:100EE00023978091BC0424968FAF249725961FAE3C
:100EF000259727961FAE279728968FAF2897299674
:100F00002FAF29972C969FAF2C972B967FAF6EAF64
:100F10002B97CE0101960E94FF0121E0F80141814B
:100F2000608182EB94E00E94130780E0C15BDF4F99
:100F30000FB6F894DEBF0FBECDBFDF91CF911F91EA
:100F40000F91089588E00E948C0C892B39F087E07E
:100F50000E948C0C892B21F081E003C080E001C04D
:100F600082E090918604981749F18093860422E5E7
:100F700032E030935A032093590390915803981309
:100F800017C091E090935C03811116C010924C033E
:100F900020E530E030934E0320934D0380916F00A5
:100FA000826080936F009093AA049093AB0404C076
:100FB00081E080935C0302C081E0089580E00895A1
:100FC0001F920F920FB60F9211242F933F934F93BE
:100FD0005F936F937F938F939F93AF93BF93EF93A1
:100FE000FF9360914F036F5F60934F0380915303B2
:100FF000882349F0617084E00E94B50C809153030E
:1010000081508093530380915303811104C060E0A9
:1010100084E00E94B50C80915203882361F0809196
:101020005203833019F461E00E94B50C80915203A1
:1010300081508093520380915203811104C060E07B
:1010400083E00E94B50C80914D0390914E0301976F
:1010500021F461E085E00E94B50C80914D039091F0
:101060004E03029728F080915203815080935203DF
:101070008091500390915103892B19F10E94A2078E
:10108000882329F0109251031092500309C08091D7
:101090005003909151030197909351038093500313
:1010A0008091500390915103019759F48091580316
:1010B0008F3F19F083E080935B03109251031092ED
:1010C00050038091500390915103892BB1F480918A
:1010D0005303811112C08091520381110EC080917F
:1010E0004D0390914E03892B41F480916F008D7FC9
:1010F00080936F0081E08093AA04FF91EF91BF91EC
:10110000AF919F918F917F916F915F914F913F919F
:101110002F910F900FBE0F901F9018951F93CF9394
:10112000DF938EE480937C0062E070E080E090E0EA
:101130000E94210D80917A00806480937A008091D2
:101140007A0086FDFCCF209178008091790030E014
:10115000382B40E050E064EB7BE281E190E00E94BC
:10116000C416122FC22FD32FC83680E1D80710F033
:1011700080E005C0CD338FE0D80718F481E00E94ED
:101180009203D0936B0410936A0480915D038823CB
:1011900019F0815080935D03CE01DF91CF911F91B3
:1011A00008958AE592E00E94390A6091B90470E0DE
:1011B00080E090E04AE00E94D1098EE592E00E9432
:1011C000390A6091B70470E080E090E040E10E944D
:1011D000D10982E692E00E94390A60E170E08091D4
:1011E000B8040E94120A86E692E00E94390A40EC96
:1011F00065E382EB94E00E9497058F7190E00E9476
:101200005B0C82E792E00E94390A40EC64E382EBD7
:1012100094E00E949705282F682F70E080E090E00E
:1012200027FF09C00E94FC1720E030E040E853E4AB
:101230000E94E91602C00E94FC1720E030E040E066
:101240005FE30E94B31820E030E044E952E40E94DA
:10125000E91642E00E94870B88E792E00E94390A73
:1012600040EC63E382EB94E00E9497058095682F41
:101270006F7370E080E090E04AE00E94D1098DE752
:1012800092E00E94390A40EC68E382EB94E00E940D
:10129000970562E070E00E94120A86E892E00E94E0
:1012A000390A6AE070E08091BC040E94120A8CE85E
:1012B00092E00E94390A6AE070E08091B9040E94CD
:1012C000120A85E992E00E94390A0E948E08BC0148
:1012D00080E090E04AE00E94D1098BE992E00C9412
:1012E0008D0A833081F028F4813099F08230A1F0AA
:1012F00008958730A9F08830B9F08430D1F4809116
:1013000080008F7D03C0809180008F778093800064
:10131000089584B58F7702C084B58F7D84BD08950C
:101320008091B0008F7703C08091B0008F7D809353
:10133000B00008953FB7F8948091C9039091CA0313
:10134000A091CB03B091CC0326B5A89B05C02F3F3D
:1013500019F00196A11DB11D3FBFBA2FA92F982FDB
:101360008827820F911DA11DB11DBC01CD0142E056
:10137000660F771F881F991F4A95D1F70895009728
:1013800069F0FC0101900020E9F73197AF01481B9B
:10139000590BBC018DEC93E00C94F30080E090E0DD
:1013A00008958F929F92AF92BF920F931F93CF9306
:1013B000DF93CDB7DEB7A1970FB6F894DEBF0FBEAF
:1013C000CDBF19A2423008F44AE08E010F5D1F4FD5
:1013D000842E912CA12CB12CA50194010E945116B0
:1013E000E62FB901CA0101501109EA3014F4E05D99
:1013F00001C0E95CD801EC93232B242B252B61F74A
:10140000C8010E94BF09A1960FB6F894DEBF0FBEB7
:10141000CDBFDF91CF911F910F91BF90AF909F9063
:101420008F900895CF93DF93AB01672B61F4E09128
:10143000CD03F091CE030190F081E02D682F8DEC6B
:1014400093E0099506C0682F70E080E090E00E946C
:10145000D109EC018FE292E00E94BF098C0F9D1F21
:10146000DF91CF9108958EBD0DB407FEFDCF8EB5EF
:1014700008950C94BF0929E832E0309301012093CC
:101480000001E9E6F0E090819C7F892B8083E89A57
:101490000895CF93C82F8130A1F0823021F540E12B
:1014A0006DE082EB94E00E94B6054091B7044F5482
:1014B0006EE082EB94E00E94B6054091B8044A5772
:1014C00023C042E26DE082EB94E00E94B6054091B9
:1014D000B7044F546EE082EB94E00E94B605409151
:1014E000B804455C11C041E26DE082EB94E00E94DB
:1014F000B6054091B7044E596EE082EB94E00E942D
:10150000B6054091B8044A586FE082EB94E00E941F
:10151000B605C093B604CF910895CF93DF930E9490
:10152000BF09EC018FE292E00E94BF098C0F9D1F62
:10153000DF91CF910895E091CD03F091CE0301901A
:10154000F081E02D682F8DEC93E00994CF92DF922B
:10155000FF920F931F93CF93DF93CDB7DEB782E057
:101560008093B30482EB94E00E94AB0500E010E0AE
:101570000F5F1F4F093E83E0180781F140EC65E3E0
:1015800082EB94E00E949705982F9F719D3041F562
:101590002FC02A9A65E382EB94E00E94A30582E0C3
:1015A0008093B30440EC65E382EB94E00E949705DE
:1015B0008F718351833008F449C066E382EB94E075
:1015C0000E94A3056BE382EB94E00E94A30582EBEB
:1015D00094E00E94AB0581E08093B30410E055C015
:1015E000813131F66AE382EB94E00E94A305C0CF1B
:1015F000083E134099F38BEC97E00197F1F783E5F0
:101600000E949B0A8AE30E949B0A81E392E00E9467
:101610008D0AFA844F2D6FE382EB94E00E94B605A9
:101620002A981C99FECF8FE70E94330A6E01EBE0E7
:10163000CE0ED11C8601802F8C198F1508F0A9CFF2
:10164000F80181918F010E94330AF5CF4A9BFECFAA
:101650004A99FECF40EC6AE382EB94E00E94970542
:101660008F7711E009F010E066E382EB94E00E94CE
:10167000A3056BE382EB94E00E94A30582EB94E068
:101680000E94AB0581E08093B304812FDF91CF915D
:101690001F910F91FF90DF90CF900895CF93DF932C
:1016A000CDB7DEB7C154D1090FB6F894DEBF0FBE77
:1016B000CDBF96E099836A839091BC049B831C8282
:1016C0004D838E832F838DB79EB7815491090FB6BA
:1016D000F8949EBF0FBE8DBFADB7BEB7119681E423
:1016E000FE01319601900D928A95E1F70E94A60ABB
:1016F0000FB6F894DEBF0FBECDBFCF5BDF4F0FB686
:10170000F894DEBF0FBECDBFDF91CF9108954F9209
:101710005F926F927F928F929F92AF92BF92CF9281
:10172000DF92EF92FF926B017C01B42E9B01AC0122
:101730000E942019882319F08FE393E027C0260127
:101740003701E89477F82FEF3FEF4FE75FE7C301EA
:10175000B2010E94201981110DC02FEF3FEF4FE71A
:101760005FE7C301B2010E94561718161CF483E408
:1017700093E00CC02FEF3FEF4FE75FE4C701B601E6
:101780000E94AE18181684F487E493E0FF90EF905F
:10179000DF90CF90BF90AF909F908F907F906F9091
:1017A0005F904F900C94BF092FEF3FEF4FE75FEC36
:1017B000C701B6010E94561787FDE6CF20E030E052
:1017C000A901C701B6010E94561787FF09C08DE223
:1017D0000E949B0A4C01F7FAF094F7F8F09402C0CB
:1017E000812C912CA12C60E070E080E09FE3AB1491
:1017F00041F020E030E040E251E40E945B17A39406
:10180000F6CF9B01AC01C701B6010E94EA162B017D
:101810003C010E94CD176B017C010E94FC179B01CB
:10182000AC01C301B2010E94E9162B013C014AE060
:10183000C701B6010E94D1097C01E80CF91CBB204C
:1018400029F08EE20E949B0AE80EF91EDB2CDD20B7
:1018500021F120E030E040E251E4C301B2010E94F6
:10186000B3182B013C010E94CD174B01A12CB12CC8
:101870004AE0C501B4010E94D109E80EF91EC50174
:10188000B4010E94FC179B01AC01C301B2010E948C
:10189000E9162B013C01DA94DACFC701FF90EF90F3
:1018A000DF90CF90BF90AF909F908F907F906F9080
:1018B0005F904F900895CF92DF92EF92FF92CF9377
:1018C000DF936C01990FEE08FF08F7FE12C08DE25E
:1018D0000E949B0AEC0166277727CB016C197D09D2
:1018E0008E099F094AE00E94D1097C01EC0EFD1E81
:1018F00006C04AE0C701B6010E94D1097C018FE20F
:1019000092E00E94BF098E0D9F1DDF91CF91FF9045
:10191000EF90DF90CF900895CF93DF93282F30E0A2
:10192000F901E658FE4F8491F901EA59FE4FD4912E
:10193000F901EE5AFE4FC491CC2391F081110E941F
:101940007109EC2FF0E0EE0FFF1FE85BFE4FA59151
:10195000B491EC91ED2381E090E021F480E002C0AD
:1019600080E090E0DF91CF9108951F93CF93DF93B4
:10197000282F30E0F901E658FE4F8491F901EA5929
:10198000FE4FD491F901EE5AFE4FC491CC23C9F019
:10199000162F81110E947109EC2FF0E0EE0FFF1F4E
:1019A000E25CFE4FA591B4918FB7F894111105C078
:1019B0009C91ED2FE095E92302C0EC91ED2BEC9387
:1019C0008FBFDF91CF911F910895CF93DF9390E068
:1019D000FC01EA59FE4F2491FC01EE5AFE4F84911E
:1019E000882361F190E0880F991FFC01EC5CFE4FA9
:1019F000C591D491FC01E25CFE4FA591B4916111B7
:101A000009C09FB7F8948881209582238883EC9140
:101A10002E230BC0623061F49FB7F8943881822F77
:101A2000809583238883EC912E2B2C939FBF06C037
:101A30008FB7F894E8812E2B28838FBFDF91CF9149
:101A400008958F929F92AF92BF92CF92DF92EF92C2
:101A5000FF926B017C010E949A094B015C01C11449
:101A6000D104E104F104F1F00E949A09DC01CB01F8
:101A700088199909AA09BB09883E9340A105B105B7
:101A800070F321E0C21AD108E108F10888EE880E4F
:101A900083E0981EA11CB11CC114D104E104F1041F
:101AA00019F7DDCFFF90EF90DF90CF90BF90AF9010
:101AB0009F908F9008951F920F920FB60F9211244E
:101AC0002F933F938F939F93AF93BF9380912A055A
:101AD00090912B05A0912C05B0912D0530912905F1
:101AE00023E0230F2D3720F40196A11DB11D05C061
:101AF00026E8230F0296A11DB11D2093290580938E
:101B00002A0590932B05A0932C05B0932D05809169
:101B1000C9039091CA03A091CB03B091CC03019665
:101B2000A11DB11D8093C9039093CA03A093CB0359
:101B3000B093CC03BF91AF919F918F913F912F9123
:101B40000F900FBE0F901F901895CF93DF9300D08A
:101B50001F92CDB7DEB7789484B5826084BD84B51A
:101B6000816084BD85B5826085BD85B5816085BD98
:101B700080916E00816080936E0010928100809150
:101B800081008260809381008091810081608093D8
:101B90008100809180008160809380008091B100FD
:101BA00084608093B1008091B00081608093B00028
:101BB00080917A00846080937A0080917A008260BC
:101BC00080937A0080917A00816080937A0080917E
:101BD0007A00806880937A001092C100E091DD0362
:101BE000F091DE0382E08083E091DD03F091DE037B
:101BF0001082E091D903F091DA031082E091DB03C7
:101C0000F091DC0380E180831092E503E091E10331
:101C1000F091E20386E08083E091DF03F091E0033E
:101C2000808180618083E091DF03F091E003808117
:101C300088608083E091DF03F091E0038081806819
:101C40008083E091DF03F091E00380818F7D8083CA
:101C500061E084E00E94E50C0E948E08E09166003D
:101C600020918000309181008FE380936600109274
:101C70006F001092700080E28093B6001092800096
:101C80001092B00081E08093B10080938100B09AFF
:101C9000109285001092840080E444E650E060E0F9
:101CA00070E0F1E08150A9F1B89A1092B2009091E1
:101CB000B600937191F0B09BFACFB09A1092850064
:101CC00010928400415051096109710981F7109205
:101CD000B600E093660080E02DC0F0938100109282
:101CE000850010928400B89BFECF10928100A091D5
:101CF0008400B0918500A735B44F20F09091660024
:101D0000915015C0A0918400B0918500A23FB34FBF
:101D100058F01092B600B89A1092B200209380004A
:101D20003093810081E006C0909166009F5F9093A0
:101D30006600B8CF8093B10461E08AE00E94B50CE0
:101D400061E08AE00E94E50C61E08BE00E94E50C16
:101D500060E08CE00E94E50C61E08DE00E94E50C03
:101D600061E08DE00E94B50C60E08BE00E94B50C54
:101D700081E58CBD60E082E00E94E50C2A9A8FE04C
:101D800090E00197F1F72A9883E290E00197F1F74C
:101D90002A9A8FE990E00197F1F72A981C99FECFD3
:101DA00080E30E94330A1C99FECF2A9A49E260E040
:101DB00082EB94E00E94B6054EE261E082EB94E093
:101DC0000E94B60546E062E082EB94E00E94B60510
:101DD00047E063E082EB94E00E94B6054DE366E0E5
:101DE00082EB94E00E94B60546E067E082EB94E067
:101DF0000E94B60545E068E082EB94E00E94B605DB
:101E000020E047E465EB82EB94E00E94130740E09A
:101E10006FEF82EB94E00E94730640E060E082EB9B
:101E200094E00E94CB0548E06BE082EB94E00E94D6
:101E3000B60540E06CE082EB94E00E94B60582E0DB
:101E40000E94490A4AEC60E182EB94E00E94B605E8
:101E500043E861E182EB94E00E94B60543E962E168
:101E600082EB94E00E94B60542E263E182EB94E0EB
:101E70000E94B60548EF64E182EB94E00E94B6054B
:101E800045E365E182EB94E00E94B60547E066E138
:101E900082EB94E00E94B60540E267E182EB94E0B9
:101EA0000E94B60548E168E182EB94E00E94B60525
:101EB00046E169E182EB94E00E94B6054CE66AE1F6
:101EC00082EB94E00E94B60543E46BE182EB94E080
:101ED0000E94B60540E46CE182EB94E00E94B605F6
:101EE00041E96DE182EB94E00E94B60547E86EE1BE
:101EF00082EB94E00E94B6054BE66FE182EB94E042
:101F00000E94B6054BEF60E282EB94E00E94B605BA
:101F100046E561E282EB94E00E94B60540E162E2B0
:101F200082EB94E00E94B60549EE63E282EB94E016
:101F30000E94B6054AE264E282EB94E00E94B60594
:101F400040E065E282EB94E00E94B6054FE166E274
:101F500082EB94E00E94B60541E467E282EB94E0F4
:101F60000E94B60540E068E282EB94E00E94B6056C
:101F700049E569E282EB94E00E94B6054FE76AE228
:101F800082EB94E00E94B6054FE36BE282EB94E0B3
:101F90000E94B60541E86CE282EB94E00E94B6052F
:101FA00045E36DE282EB94E00E94B60549E06EE203
:101FB00082EB94E00E94B60586E090E00E949505D1
:101FC0008093B70487E090E00E9495058093B80461
:101FD00080E090E00E9495058A3030F440E0682F60
:101FE00082EB94E00E94CB0582E090E00E94950590
:101FF000682F83E090E06B830E9495056B819FEFD3
:10200000960F9E3F20F09FEF980F9E3F30F420E008
:10201000482F82EB94E00E94130784E090E00E9436
:102020009505882331F040E0682F82EB94E00E9410
:1020300073064091B4046EE382EB94E00E94B6050F
:102040008091B8048F3FD1F48091B7048F3FB1F4F1
:102050008EE992E00E948D0A1092B7041092B804A3
:1020600060E086E090E00E94331660E087E090E058
:102070000E9433168091B6040E94490A21E047E489
:1020800065EB82EB94E00E94130784E090E00E94ED
:102090002B1640E0682F82EB94E00E94730682E0EA
:1020A0000E94490A44E067E082EB94E00E94B60592
:1020B00085E090E00E942B168093040586E090E076
:1020C0000E942B168093050583EC90E00197F1F7B1
:1020D00082EB94E00E94AB0582E090E00E943B0A14
:1020E0001092010583E0809302050E94310587EB81
:1020F00092E00E94390A40EC60E382EB94E00E9497
:102100009705682F70E080E090E04AE00E94D109D6
:102110008AEC92E00E94390A40EC61E382EB94E0A1
:102120000E9497056AE070E00E94120AF8941092EB
:10213000530310925203109251031092500314BE95
:10214000109280001092810081EA97E090938900BC
:1021500080938800809181008860809381008091C5
:1021600081008160809381008091810081608093F3
:1021700081008091810084608093810080916F0054
:10218000826080936F00789461E085E00E94E50CA6
:1021900061E086E00E94E50C61E08FE00E94E50CC2
:1021A00061E083E00E94E50C61E080E10E94E50CC3
:1021B00060E088E00E94E50C61E088E00E94B50CD8
:1021C00060E087E00E94E50C61E087E00E94B50CCA
:1021D0000E94A20761E084E00E94B50C84E0809335
:1021E000530380916F00826080936F001092AA0465
:1021F00037E0B32E00E613E042E0A42E58E7752E38
:1022000066ECE62E64E0F62E7FEBC72E74E0D72E48
:102210008091AD04837011F40E94A2078091AD04F7
:102220008A3020F01092AD040E948E088DEC93E06D
:102230000E945301892B09F4B3C08DEC93E00E94F6
:10224000310118160CF0ACC08D3039F0803219F025
:102250008A30C1F4A5C080E23BC080905E039090BC
:102260005F0310925F0310925E038DE00E949B0A51
:10227000181419040CF094C09091700340917103EC
:1022800080E029C020915E0330915F032230310548
:1022900074F4A9014F5F5F4F50935F0340935E0357
:1022A000F901E059FC4F80831092600311C0213185
:1022B000310574F4A901405A5C4FFA0132978083CA
:1022C000319610822F5F3F4F30935F0320935E0360
:1022D0000E949B0A65C0882E912CB89CF001B99C85
:1022E000F00D1124EC5EFE4F2081291303C02181E3
:1022F000241779F08F5FB89EF0011124EC5EFE4F39
:1023000023813481232B39F78EEC92E00E948D0AD1
:1023100047C080916003811109C01092550310924B
:102320005403109257031092560322C01A83098354
:1023300060ED72E0CE0101960E94101640E050E080
:1023400060E070E00E94F6147093550360935403AC
:1023500060ED72E0CE0101960E94101640E050E060
:1023600060E070E00E94F614709357036093560388
:1023700061E084E00E94B50CA092530380916F004D
:10238000826080936F001092AA04B89CF001B99CFF
:10239000F00D1124EC5EFE4F0380F481E02D0995D1
:1023A00080915C03882341F040E061E087E894E09D
:1023B0000E943C0510925C0320915B03222339F0BC
:1023C00040E061E084E00E944E0B10925B0380913C
:1023D000590390915A030097E1F00E94390A84ED65
:1023E00092E00E94390A6091860470E080E090E0FB
:1023F0004AE00E94D1098DED92E00E94390A6AE01C
:1024000070E0809158030E94120A10925A031092B1
:10241000590380915D03811108C070925D0340E013
:1024200061E08CE694E00E943C058091AE04882334
:1024300009F49DC11092030583EE92E00E94390ACF
:102440001092AE0462E070E080E090E00E94210D06
:1024500040EC6BE382EB94E00E9497051092BD0480
:1024600087FF02C081E018C0882309F447C040E814
:102470006FE382EB94E00E949705982E8093BE0450
:10248000811104C084E08093BD0409C0ADE3A817A6
:1024900030F41092BE0483E08093BD0433C02A98C8
:1024A0001C99FECF8FEF0E94330A2FEB422E24E0BF
:1024B000522E842D8C19891538F480E00E94330A3D
:1024C000F20181932F01F5CF2A9A40E86FE382EB66
:1024D00094E00E9497058093FD0440E86FE382EB4F
:1024E00094E00E949705982F9F779093FE04982F71
:1024F000991F9927991F9093FC0404C01092BE0461
:10250000A092BD0466E382EB94E00E94A3056AE317
:1025100082EB94E00E94A30563E382EB94E00E94C7
:10252000A30582EB94E00E94AB058091BD0481116C
:1025300015C08091FC04811104C081E080930305E3
:1025400029C082E50E949B0A8AE30E949B0A81E3DC
:1025500092E00E948D0A992493941DC086EE92E029
:102560000E94390A8091BD04823069F028F48130DC
:1025700089F481EF92E00CC0833041F0843051F453
:102580008DE093E005C089EF92E002C080E093E027
:102590000E948D0A912C80910305882321F08CE103
:1025A00093E00E948D0A82E792E00E94390A20910E
:1025B000FD04622F70E080E090E027FF09C00E94D8
:1025C000FC1720E030E040E853E40E94E91602C026
:1025D0000E94FC1720E030E040E05FE30E94B31867
:1025E00020E030E044E952E40E94E91642E00E9413
:1025F000870B8FE292E00E94BF09992009F4B7C0CF
:102600008091C103811103C081E08093C103609177
:10261000C0048091C1045091C2044091C304309120
:10262000C4042091C5049091BE0497507091BF04DA
:102630007093B3036093B403682F62956F706093D7
:10264000B5035093B6034093B7033093B803209378
:10265000B903F092BB03E092BA039093BC03982FA6
:1026600091709093BD03869581708093BE03109204
:10267000BF031092C00384E293E00E94390A609184
:10268000B40370E080E090E04AE00E94D10989E262
:1026900093E00E94390A6AE070E08091B3030E94DF
:1026A000120A8091B303882309F461C09091BC049D
:1026B00089135DC02091B703213061F108F450C047
:1026C000223009F046C0E091B903EB3008F043C076
:1026D000F0E0EE0FFF1FE859FE4F808091808114DB
:1026E0009104C9F19091BC03D40113968C91139776
:1026F000981333C06091BA037091BB031696ED91A5
:10270000FC911797309759F18C910995282F8111D9
:1027100027C017C0E091B903EB3010F5F0E0EE0FE1
:10272000FF1FE859FE4F8080918081149104C1F011
:10273000D4011496ED91FC911597309711F08C917E
:1027400009954091B6036091B403C4010E943C0511
:102750000EC022E005C021E003C025E001C027E053
:102760004091B6036091B40383E00E944E0B912C1C
:102770009394B5E69B1649F140EC65E382EB94E057
:102780000E949705982F9F719D3069F0813129F43F
:102790006AE382EB94E00E94A30564E382EB94E099
:1027A0000E94A305E5CFE4E69E1679F082E090E072
:1027B0000E943B0A8091AB04882321F08091AA04F7
:1027C00081110BC00E94F30123CD80E393E00E94AE
:1027D0008D0AE0E0F0E00994E9CF60E084E00E9437
:1027E000B50C0E94310583B7816083BF81E090E022
:1027F0000E943B0A83B7817F846083BFF89485B7CA
:10280000806685BF8F7D85BF7894889583B78E7FDE
:1028100083BFD8CFEDECF3E01382128288EE93E011
:10282000A0E0B0E084839583A683B78382E891E03B
:102830009183808385EC90E09587848784EC90E099
:102840009787868780EC90E0918B808B81EC90E07D
:10285000938B828B82EC90E0958B848B86EC90E05E
:10286000978B868B118E128E138E148EE7EAF4E00E
:1028700080EC858710920705109206051186108658
:102880001782138214821682128215828091280583
:10289000E0E2F5E080832CE031E03283218398E0B0
:1028A00093831582148217821682E8E1F5E091E0A5
:1028B000980F908328E031E03283218394E0938362
:1028C0001582148217821682E0E1F5E022E0280FDB
:1028D000208324E031E032832183938315821482A4
:1028E00017821682E8E0F5E093E0980F908329EBD9
:1028F00034E03283218391E09383158214822CEE9D
:1029000035E037832683EFE9F4E024E0280F2083C5
:102910002AEB34E03283218322E023831582148260
:1029200045E457E057834683E7E9F4E035E0380FA4
:1029300030834CEB54E0528341839383158214829D
:1029400044E956E057834683EFE8F4E036E0380F79
:10295000308344E055E052834183238315821482FF
:102960004FE653E057834683E7E8F4E037E0380F5B
:10297000308346E854E052834183938348EC52E02D
:10298000558344834DE053E057834683EEE7F4E0FC
:1029900038E0380F30834DE754E05283418393830E
:1029A0001582148245ED52E057834683E5E7F4E053
:1029B00039E0380F308364E774E072836183938376
:1029C00015821482578346839BE0980F90932805C5
:1029D000ECE6F4E0865F80838AE694E0928381836C
:1029E000238315821482178216820895A0E0B0E036
:1029F000ECEFF4E10C947E165C016B017A01611539
:102A0000710519F0FB0191838083E114F10429F031
:102A1000C7010297839708F0F1C0E5012196F501FF
:102A20001081812F90E00E940716892B11F05E0122
:102A3000F4CF1D3229F42196F501118101E007C080
:102A40001B3221F4E5012296F501118100E0E11429
:102A5000F10459F1F0E1EF16F10461F41033E1F4FF
:102A600088818F7D883569F519812296026070E131
:102A7000E72EF12C88E0E816F10439F12CF4F2E0AD
:102A8000EF16F104C9F12AC08AE0E816F10479F0E2
:102A9000E0E1EE16F10411F550E1E52EF12C812C68
:102AA000912CA12C68E0B62E2CC01033C9F23AE06C
:102AB000E32EF12C4CEC842E982CA82C4CE0B42E58
:102AC00020C010E3E114F104A9F698E0E92EF12CFE
:102AD000812C912CA12C20E1B22E13C060E070E07B
:102AE00080E090E897010F2C000C440B550B0E94DE
:102AF000511649015A0105C0812C912CA12C80E46A
:102B0000B82E60E020E030E0A90127010F2C000C76
:102B1000660877081E01E0EDE10FEA3060F08FEB08
:102B2000810F8A3110F4E9EC05C08FE9810F8A31F9
:102B300028F5E9EAE10F8E2F90E08E159F05F4F459
:102B400067FD18C082169306A406B50690F0C3016F
:102B5000B2010E9441169B01AC012E0F311D411D97
:102B6000511D213031054105F0E85F0710F461E0A7
:102B700001C06FEF2196F1011081CCCF802F8170C1
:102B8000C114D10471F0662329F02197F601D18395
:102B9000C08307C001FF19C02297F601D183C0830B
:102BA00014C067FF12C0811105C02FEF3FEF4FEF38
:102BB0005FE704C020E030E040E050E882E290E0CF
:102BC00090932F0580932E0516C0882341F05095D1
:102BD0004095309521953F4F4F4F5F4F0CC057FFA9
:102BE0000AC082E290E090932F0580932E052FEF8C
:102BF0003FEF4FEF5FE7B901CA0104C060E070E04A
:102C000080E090E0CDB7DEB7E2E10C949A16911126
:102C10000C942816803219F089508550C8F7089511
:102C2000FC01A081B181AD01109681F03D91FB01C5
:102C3000019003160110E1F7C9F7002011F4D0014B
:102C400002C01E921196FC01A083B183CA010895AF
:102C5000992788270895F999FECF92BD81BDF89AEA
:102C6000992780B50895262FF999FECF1FBA92BDF6
:102C700081BD20BD0FB6F894FA9AF99A0FBE01965D
:102C80000895DB018F939F930E947316BF91AF91BC
:102C9000A29F800D911DA39F900DB29F900D1124B6
:102CA0000895A1E21A2EAA1BBB1BFD010DC0AA1F8D
:102CB000BB1FEE1FFF1FA217B307E407F50720F0A5
:102CC000A21BB30BE40BF50B661F771F881F991F20
:102CD0001A9469F760957095809590959B01AC0169
:102CE000BD01CF0108950E94B516A59F900DB49F18
:102CF000900DA49F800D911D112408952F923F9255
:102D00004F925F926F927F928F929F92AF92BF92FB
:102D1000CF92DF92EF92FF920F931F93CF93DF93A7
:102D2000CDB7DEB7CA1BDB0B0FB6F894DEBF0FBE04
:102D3000CDBF09942A88398848885F846E847D8451
:102D40008C849B84AA84B984C884DF80EE80FD8053
:102D50000C811B81AA81B981CE0FD11D0FB6F894C9
:102D6000DEBF0FBECDBFED010895A29FB001B39F9E
:102D7000C001A39F700D811D1124911DB29F700D84
:102D8000811D1124911D0895052E97FB1EF40094BA
:102D90000E94DB1657FD07D00E94511607FC03D096
:102DA0004EF40C94DB1650954095309521953F4F8D
:102DB0004F4F5F4F089590958095709561957F4F27
:102DC0008F4F9F4F0895EE0FFF1F0590F491E02D58
:102DD00009945058BB27AA270E9401170C94741815
:102DE0000E94661838F00E946D1820F039F49F3F59
:102DF00019F426F40C9463180EF4E095E7FB0C9498
:102E00005D18E92F0E94851858F3BA1762077307F7
:102E10008407950720F079F4A6F50C94A7180EF412
:102E2000E0950B2EBA2FA02D0B01B90190010C01DA
:102E3000CA01A0011124FF27591B99F0593F50F4F2
:102E4000503E68F11A16F040A22F232F342F44274A
:102E5000585FF3CF469537952795A795F040539542
:102E6000C9F77EF41F16BA0B620B730B840BBAF012
:102E70009150A1F0FF0FBB1F661F771F881FC2F77D
:102E80000EC0BA0F621F731F841F48F48795779591
:102E90006795B795F7959E3F08F0B0CF9395880F4B
:102EA00008F09927EE0F9795879508950E94391895
:102EB00008F481E008950E946F170C9474180E9422
:102EC0006D1858F00E94661840F029F45F3F29F011
:102ED0000C945D1851110C94A8180C9463180E945E
:102EE000851868F39923B1F3552391F3951B550B7E
:102EF000BB27AA2762177307840738F09F5F5F4FCD
:102F0000220F331F441FAA1FA9F335D00E2E3AF00B
:102F1000E0E832D091505040E695001CCAF72BD023
:102F2000FE2F29D0660F771F881FBB1F2617370774
:102F30004807AB07B0E809F0BB0B802DBF01FF27A6
:102F400093585F4F3AF09E3F510578F00C945D180E
:102F50000C94A8185F3FE4F3983ED4F386957795D8
:102F60006795B795F7959F5FC9F7880F911D96955F
:102F7000879597F90895E1E0660F771F881FBB1FBB
:102F8000621773078407BA0720F0621B730B840B68
:102F9000BA0BEE1F88F7E09508950E948D1888F00F
:102FA0009F5798F0B92F9927B751B0F0E1F0660F0D
:102FB000771F881F991F1AF0BA95C9F714C0B1304E
:102FC00091F00E94A718B1E008950C94A718672FFC
:102FD000782F8827B85F39F0B93FCCF3869577957D
:102FE0006795B395D9F73EF4909580957095619566
:102FF0007F4F8F4F9F4F0895E89409C097FB3EF491
:1030000090958095709561957F4F8F4F9F4F992335
:10301000A9F0F92F96E9BB279395F69587957795B3
:103020006795B795F111F8CFFAF4BB0F11F460FF73
:103030001BC06F5F7F4F8F4F9F4F16C0882311F0CB
:1030400096E911C0772321F09EE8872F762F05C0DF
:10305000662371F096E8862F70E060E02AF09A957A
:10306000660F771F881FDAF7880F9695879597F96F
:103070000895990F0008550FAA0BE0E8FEEF161609
:103080001706E807F907C0F012161306E407F5075C
:1030900098F0621B730B840B950B39F40A2661F0D0
:1030A000232B242B252B21F408950A2609F4A14073
:1030B000A6958FEF811D811D089597F99F6780E880
:1030C00070E060E008959FEF80EC089500240A947A
:1030D0001616170618060906089500240A941216F3
:1030E0001306140605060895092E0394000C11F426
:1030F000882352F0BB0F40F4BF2B11F460FF04C0D3
:103100006F5F7F4F8F4F9F4F089557FD9058440F2B
:10311000551F59F05F3F71F04795880F97FB991F36
:1031200061F09F3F79F087950895121613061406F3
:10313000551FF2CF4695F1DF08C016161706180680
:10314000991FF1CF86957105610508940895E8945B
:10315000BB2766277727CB0197F908950E94391876
:1031600008F48FEF08950E94C6180C9474180E94FA
:10317000661838F00E946D1820F0952311F00C9419
:103180005D180C94631811240C94A8180E948518DB
:1031900070F3959FC1F3950F50E0551F629FF001AA
:1031A000729FBB27F00DB11D639FAA27F00DB11DC3
:1031B000AA1F649F6627B00DA11D661F829F22274C
:1031C000B00DA11D621F739FB00DA11D621F839FD3
:1031D000A00D611D221F749F3327A00D611D231FA9
:1031E000849F600D211D822F762F6A2F11249F57F7
:1031F00050409AF0F1F088234AF0EE0FFF1FBB1FFA
:10320000661F771F881F91505040A9F79E3F5105B8
:1032100080F00C945D180C94A8185F3FE4F3983E7E
:10322000D4F3869577956795B795F795E7959F5F62
:10323000C1F7FE2B880F911D9695879597F90895F4
:103240000E943918880B990B089581E090E0F8945A
:083250000C942A19F894FFCF39
:10325800F200F2000000010100000200000000017D
:10326800000000017265003A040000667300AF03B5
:103278000000736100ED0600007363004D06000056
:1032880064640048040000706900DD0300006161A7
:103298000066040000737400D1080000736C00D548
:1032A800030000707500FE0200003F3F0055040057
:1032B80000000000000000002005180510050805A2
:1032C8009F0497048F0487047E0475046C0400002F
:1032D80000008A01F3002201D101530131014501A7
:1032E80047455420535441542000535352205354BB
:1032F8004154200050756C7365206D6F746F722097
:10330800756E697400525120535441543A0020415B
:1033180043543A004348524720004F4E004F464618
:103328000052737420746F20666163746F72790041
:10333800536C656570206D6F646520616374697690
:10334800650050696E670053656E74005265626F60
:103358006F74005253542052510044626720004950
:103368006E76616C6964206368616E6E656C00538B
:103378006574206368616E6E656C20746F20000D43
:103388000A00496E76616C69642061646472005356
:10339800657420726164696F206164647220746F5F
:1033A8002000535441542043480043683A00204DBC
:1033B8003A00206D3A004D41524320535441544540
:1033C80020005253534920004C51492000200970D5
:1033D8007374617420004144445220004348414EB4
:1033E8004E454C20004241545420006D5600526511
:1033F80073657474696E672066726571207265679B
:103408007320746F2030000A5354415254200A200C
:1034180043433131303120502000205620003F00F6
:103428002E2C20002053746174653A2000206578A2
:10343800702000210A004343525820504B543A2030
:1034480000204F5652464C57002030204C454E0025
:1034580020494E56414C4944204C454E0020425587
:103468004646204C454E20495320300043524320C5
:1034780045525200205352430020444553542000E3
:103488003F53544154453F20524553455421006E03
:0C349800616E00696E66006F76660000D1
:00000001FF
