:100000000C94BD000C9472040C944B040C94E50009
:100010000C94E5000C94E5000C94FB040C94E500B2
:100020000C94E5000C94F1040C94E5000C94690721
:100030000C94E5000C94E5000C94E5000C94E500AC
:100040000C94D50B0C94E5000C94BF040C9499040B
:100050000C94E5000C94E5000C94E5000C94E5008C
:100060000C94E5000C94E500726520526573746190
:1000700072740D0A73612053657420726164696F34
:1000800020616464726573730D0A66732052657330
:10009000657420656570726F6D20746F2066616392
:1000A000746F72792073657474696E67730D0A6476
:1000B0006420456E61626C65206465627567206FBF
:1000C00075747075740D0A70692050696E670D0A39
:1000D000616120416C61726D0D0A73742044756D0D
:1000E00070207374617475730D0A736C20416374AE
:1000F000697661746520736C6565700D0A70752092
:1001000050756C7365206D6F746F7220756E6974B5
:100110000D0A3F3F2048454C500D0A0D0A000000D3
:100120000000240027002A0000000000250028000D
:100130002B00000000002300260029000404040412
:100140000404040402020202020203030303030381
:10015000010204081020408001020408102001025E
:10016000040810200000000800020100000304073A
:100170000000000000000000231211241FBECFEF7A
:10018000D8E0DEBFCDBF24E0A8ECB2E001C01D92F4
:10019000A936B207E1F712E0A0E0B1E0ECE3FDE23E
:1001A00002C005900D92A83CB107D9F710E0CDEB45
:1001B000D0E004C02197FE010E94FA14CC3BD10785
:1001C000C9F70E941F0C0C949C160C940000089513
:1001D000CF92DF92EF92FF920F931F93CF93DF9313
:1001E0006C017A018B01C0E0D0E0CE15DF0589F00B
:1001F000D8016D918D01D601ED91FC910190F081B6
:10020000E02DC6010995892B11F47E0102C02196CB
:10021000ECCFC701DF91CF911F910F91FF90EF902D
:10022000DF90CF900895089580E090E00895FC015C
:10023000538D448D252F30E0842F90E0821B930B4B
:10024000541710F0CF96089501970895FC01918DF1
:10025000828D981761F0828DDF01A80FB11D5D9628
:100260008C91928D9F5F9F73928F90E008958FEF96
:100270009FEF0895FC01918D828D981731F0828D4A
:10028000E80FF11D858D90E008958FEF9FEF0895A1
:10029000FC01918D228D892F90E0805C9F4F821B05
:1002A00091098F739927089583E493E00E94480190
:1002B00021E0892B09F420E0822F0895FC01848D30
:1002C000DF01A80FB11DA35ABF4F2C91848D90E080
:1002D00001968F739927848FA689B7892C93A0895B
:1002E000B1898C9180648C93938D848D981306C012
:1002F0000288F389E02D80818F7D80830895EF92BD
:10030000FF920F931F93CF93DF93EC0181E0888FCF
:100310009B8D8C8D981305C0E889F989808185FDB6
:1003200024C0F62E0B8D10E00F5F1F4F0F731127A7
:10033000E02E8C8DE8120CC00FB607FCFACFE889CE
:10034000F989808185FFF5CFCE010E945E01F1CF52
:100350008B8DFE01E80FF11DE35AFF4FF0820B8FEA
:10036000EA89FB898081806207C0EE89FF8960830A
:10037000E889F98980818064808381E090E0DF9161
:10038000CF911F910F91FF90EF900895CF93DF933E
:10039000EC01888D8823C9F0EA89FB89808185FD7D
:1003A00005C0A889B9898C9186FD0FC00FB607FCDE
:1003B000F5CF808185FFF2CFA889B9898C9185FF1F
:1003C000EDCFCE010E945E01E7CFDF91CF9108957E
:1003D00080E090E0892B29F00E94540181110C9457
:1003E000000008950E9497160F931F93CF93DF93F9
:1003F000CDB7DEB7C154D1090FB6F894DEBF0FBE3A
:10040000CDBFFC01E65BFF4F408127E0240F29832D
:10041000399720812A83319620812B833196208140
:1004200050E1259F900111242C833996508155234A
:1004300011F022602C83FC01E35BFF4F208122231B
:1004400019F02C8124602C83FC01EC5BFF4F208190
:100450002D83319620812E83319620812F833196F2
:1004600020812887BE01675F7F4F20E030E0319612
:10047000241758F4A081B181A20FB31F8C91DB0126
:100480008D93BD012F5F3F4FF3CF13E001E42DB7F4
:100490003EB7215431090FB6F8943EBF0FBE2DBFB1
:1004A000ADB7BEB71196FE013196802F01900D9227
:1004B0008A95E1F70E94CF090FB6F894DEBF0FBE10
:1004C000CDBF811109C0115039F061E070E080E0CA
:1004D00090E00E94760BDBCFCF5BDF4F0FB6F89436
:1004E000DEBF0FBECDBFDF91CF911F910F91089559
:1004F000CF93DF9383B78E7F83BFE89887EE90E03A
:100500009093010180930001CDE1D4E081E08F83DD
:1005100061E084E00E940A0B84E08093CD02EFE664
:10052000F0E08081826080831B82DF91CF9108950B
:100530000C944A1485E00E94E10A892B11F484E0AE
:100540000CC060E085E00E940A0B60E086E00E943B
:100550000A0B81E08093C80288E28093CC028091EC
:100560006F00826080936F0010922004089589E8E4
:1005700091E00E9462096AE070E08091FC030E94B1
:100580003B098091FC0308951F93CF93DF93182FAD
:10059000EB0183E991E00E9462098091F403181352
:1005A00007C068818FE00E940A0B88818093F30363
:1005B0008091EB03181307C0688180E10E940A0B49
:1005C00088818093EA036AE070E088810E943B0999
:1005D00080E0DF91CF911F9108958DE991E00E9415
:1005E000620984E08093CC02EFE6F0E080818260D3
:1005F0008083109220040895CF93DF93EB018EEA5D
:1006000091E00E946209C8816C2F70E080E090E068
:100610004AE00E94FA0887EB91E00E9462096AE0D2
:1006200070E08091FC030E943B09C23029F4809164
:10063000FC03823039F43CC0C11104C08091FC033A
:100640008823C9F110922104C130A9F048F0C230CA
:10065000F1F0C33079F560E085E00E940A0B28C014
:100660000E949A0280EC93E09093CB028093CA029E
:100670001092D20216C00E949A0280EC93E09093EE
:10068000CB028093CA028FEF8093D2020AC00E94ED
:100690009A0280EC93E09093CB028093CA02C093BD
:1006A000D20280916F00826080936F0010922004CC
:1006B00080E001C086E0DF91CF910895CF93DF9372
:1006C000EB01E0910604F091070498818081981372
:1006D00004C099818181981781F0888199819093D4
:1006E0003A0480933904688185E090E00E944A14BE
:1006F000698186E090E00E944A1480E0DF91CF910A
:100700000895CF93C82F8091C802882321F060E01C
:1007100086E00E940A0B8DEB91E00E94620961E085
:100720006C2786E00E940A0BCC2319F083EC91E041
:1007300002C086EC91E0CF910C94B6098AEC91E06E
:100740000E94B60965EB82E090E00E94980267E49F
:1007500083E090E00E9498026FEF84E090E00E94B6
:10076000980260E080E090E00E9498026FEF85E0E0
:1007700090E00E9498026FEF86E090E00E9498025D
:10078000E0E0F0E00994089589ED91E00E94B60957
:1007900081E0809321040895CF93DF93CDB7DEB736
:1007A000CF54D1090FB6F894DEBF0FBECDBF8091F4
:1007B000CE029091CF028BEE91E00E94B6092E9668
:1007C0001FAE2E9760961FAE609723961FAE23979D
:1007D0008091320424968FAF249725961FAE2597DB
:1007E00081E027968FAF279728961FAE289795E030
:1007F00029969FAF29972B961FAE1EAE2B972C964E
:100800001FAE2C972F968FAF2F97CE0101960E9487
:10081000F401882321F080EF91E00E94B609C15BCA
:10082000DF4F0FB6F894DEBF0FBECDBFDF91CF9183
:10083000089585EF91E00E94B609109236048CEF7E
:1008400091E00E94B609E0E0F0E00994089583E0A9
:1008500092E00E946209EDE1F4E0958181E0892750
:10086000858390E00C94B00A1F93CF93DF93C8E682
:10087000D0E0FE011491812F0E94C409219611112C
:10088000F8CFDF91CF911F91089521E040E061E022
:1008900084E00C94770A1F920F920FB60F921124E6
:1008A0002F933F934F935F936F937F938F939F9378
:1008B000AF93BF93EF93FF93E0910201F091030197
:1008C0000995FF91EF91BF91AF919F918F917F918A
:1008D0006F915F914F913F912F910F900FBE0F90AD
:1008E0001F9018951F920F920FB60F9211242F93FD
:1008F0003F934F935F936F937F938F939F93AF93A8
:10090000BF93EF93FF93E0910001F09101010995EE
:10091000FF91EF91BF91AF919F918F917F916F91D7
:100920005F914F913F912F910F900FBE0F901F90AD
:1009300018951F920F920FB60F9211242F933F9389
:100940004F935F936F937F938F939F93AF93BF93D7
:10095000EF93FF9383E493E00E945E01FF91EF9198
:10096000BF91AF919F918F917F916F915F914F91C7
:100970003F912F910F900FBE0F901F9018951F92CF
:100980000F920FB60F9211242F938F939F93EF9393
:10099000FF93E0915303F09154038081E091590358
:1009A000F0915A0382FD12C0908180915C038F5FA9
:1009B0008F7320915D03821751F0E0915C03F0E0AA
:1009C000ED5BFC4F958F80935C0301C08081FF91AC
:1009D000EF919F918F912F910F900FBE0F901F90CD
:1009E00018951F920F920FB60F9211240F900FBE01
:1009F0000F901F9018951F920F920FB60F9211240F
:100A00008F93EF93FF93EDE1F4E086818F5F868310
:100A1000FF91EF918F910F900FBE0F901F9018953F
:100A2000E0E6F0E080818861808386E080838081D9
:100A3000806480830895CF93DF93CDB7DEB7CF5422
:100A4000D1090FB6F894DEBF0FBECDBFFC01938174
:100A50002181328150812E961FAE2E972F961FAE88
:100A60002F9760961FAE60978091320424968FAFC7
:100A7000249725961FAE259727961FAE2797289671
:100A80008FAF289729965FAF29972C969FAF2C9709
:100A90002B963FAF2EAF2B9723966FAF23972696BB
:100AA0004FAF2697CE0101960E94F401C15BDF4F44
:100AB0000FB6F894DEBF0FBECDBFDF91CF91089582
:100AC0000C944214862F842B2A981C99FECF0E94E6
:100AD0005C0980E00E945C092A9A0895862F2A9872
:100AE0001C99FECF0E945C092A9A0895CF93DF9348
:100AF000EC0164E30E946E0581E08983DF91CF9170
:100B00000895CF93DF931F92CDB7DEB7862F2A9833
:100B10001C99FECF49830E945C094981842F0E9461
:100B20005C092A9A0F90DF91CF9108950F931F933C
:100B3000CF93DF93FC0122852617A1F0D42FC62F77
:100B40008C01462F69E00E948105F801C287DD23F0
:100B500049F06C2F84E090E0DF91CF911F910F91CD
:100B60000C944A14DF91CF911F910F9108950F9328
:100B70001F93CF93DF93CDB7DEB7CF54D1090FB614
:100B8000F894DEBF0FBECDBFFB0180818823D9F171
:100B9000E0910E04F0910F0490818917A1F18B016F
:100BA0009091100420910D042E961FAE2E972F9633
:100BB0001FAE2F9760961FAE609723961FAE2397A8
:100BC0008091320424968FAF249725961FAE2597E7
:100BD00027961FAE279728968FAF289729962FAF75
:100BE00029972C969FAF2C972B967FAF6EAF2B97A4
:100BF000CE0101960E94F40141E0F801608188E293
:100C000094E00E94960580E0C15BDF4F0FB6F89438
:100C1000DEBF0FBECDBFDF91CF911F910F91089521
:100C20008091CE029091CF028F3F910529F020F064
:100C300088E092E00C94B60985E192E00E94620996
:100C40006091CE027091CF0280E090E04AE00E9475
:100C5000FA0888E292E00E94E8086091CE02709162
:100C6000CF0241E088E294E00C949605FF920F9346
:100C70001F93CF93DF93EC018885861303C089858A
:100C8000841701F1F22E142F062F462F64E0CE01B7
:100C90000E948105412F65E0CE010E9481050887F1
:100CA0001987FF2079F0602F82E090E00E944A14BB
:100CB000612F83E090E0DF91CF911F910F91FF9022
:100CC0000C944A14DF91CF911F910F91FF900895DA
:100CD0000F931F93CF93DF93CDB7DEB7CF54D109D6
:100CE0000FB6F894DEBF0FBECDBFE0911604F091B1
:100CF0001704DB019C918081981305C011969C918B
:100D000081819817A9F18B01909118042091150405
:100D10002E961FAE2E972F961FAE2F9760961FAE62
:100D2000609723961FAE23978091320424968FAF4D
:100D3000249725961FAE259727961FAE27972896AE
:100D40008FAF289729962FAF29972C969FAF2C9776
:100D50002B967FAF6EAF2B97CE0101960E94F401C8
:100D600021E0F8014181608188E294E00E9436062A
:100D700080E0C15BDF4F0FB6F894DEBF0FBECDBF82
:100D8000DF91CF911F910F9108950F931F93CF93F0
:100D9000DF93CDB7DEB7CF54D1090FB6F894DEBFDD
:100DA0000FBECDBFE0913E04F0913F04DB019C916A
:100DB0008081981709F449C08B01909140042091DB
:100DC0003D042E961FAE2E972F961FAE2F9760963E
:100DD0001FAE609723961FAE23978091320424960E
:100DE0008FAF249725961FAE259727961FAE27977E
:100DF00028968FAF289729962FAF29972C969FAFCB
:100E00002C972B967FAF6EAF2B97CE0101960E9449
:100E1000F401F801108180912F04811769F0412FAE
:100E20006AE088E294E00E94810510932F04612F0C
:100E300080E090E00E944A14109236048CEF91E01A
:100E40000E94B609E0E0F0E0099480E0C15BDF4F6A
:100E50000FB6F894DEBF0FBECDBFDF91CF911F91CB
:100E60000F910895CF9388E00E94E10A892B39F011
:100E700087E00E94E10A892B21F081E003C080E035
:100E800001C082E09091FC03981701F18093FC036C
:100E90002BE232E03093D4022093D3029091D2021D
:100EA00098130EC0C1E0C093D60281110DC01092FC
:100EB000C80261E085E00E940A0BC093210404C0CF
:100EC00081E08093D60202C081E001C080E0CF9132
:100ED00008951F920F920FB60F9211242F933F93F4
:100EE0004F935F936F937F938F939F93AF93BF9332
:100EF000EF93FF936091C9026F5F6093C902809185
:100F0000CD02882349F0617084E00E940A0B809131
:100F1000CD0281508093CD028091CD02811104C019
:100F200060E084E00E940A0B8091CC02882361F08B
:100F30008091CC02833019F461E00E940A0B809109
:100F4000CC0281508093CC028091CC02811104C0EC
:100F500060E083E00E940A0B8091CA029091CB026C
:100F6000892B19F10E943207882329F01092CB02B5
:100F70001092CA0209C08091CA029091CB020197D7
:100F80009093CB028093CA028091CA029091CB02C7
:100F9000019759F48091D2028F3F19F083E080933A
:100FA000D5021092CB021092CA028091CA0290918F
:100FB000CB02892B81F48091CD0281110CC08091EC
:100FC000CC02811108C080916F008D7F80936F00EB
:100FD00081E080932004FF91EF91BF91AF919F91A9
:100FE0008F917F916F915F914F913F912F910F90D2
:100FF0000FBE0F901F9018951F93CF93DF938EE431
:1010000080937C0062E070E080E090E00E94760BCC
:1010100080917A00806480937A0080917A0086FDC6
:10102000FCCF209178008091790030E0382B40E0AF
:1010300050E064EB7BE281E190E00E94DB14122F30
:10104000C22FD32FC83680E1D80710F080E005C04A
:10105000CD338FE0D80718F481E00E948103D0934C
:10106000E1031093E0038091D702882319F08150A7
:101070008093D702CE01DF91CF911F91089583E332
:1010800092E00E94620960912F0470E080E090E09D
:101090004AE00E94FA0887E392E00E9462096091A8
:1010A0002D0470E080E090E040E10E94FA088BE3BC
:1010B00092E00E94620960E170E080912E040E943B
:1010C0003B098FE392E00E94620940EC65E388E20D
:1010D00094E00E9462058F7190E00E94B00A8BE458
:1010E00092E00E94620940EC64E388E294E00E948E
:1010F0006205682F87FD60956695665B70E080E00D
:1011000090E04AE00E94FA0881E592E00E946209BC
:1011100040EC63E388E294E00E9462058095682FCA
:101120006F7370E080E090E04AE00E94FA0886E584
:1011300092E00E94620940EC68E388E294E00E9439
:10114000620562E070E00E943B098FE592E00E9438
:1011500062096AE070E0809132040E943B098FE6E8
:1011600092E00E9462090E94FC07BC0180E090E0CE
:101170004AE00E94FA0885E792E00C94B6098330B1
:1011800081F028F4813099F08230A1F00895873001
:10119000A9F08830B9F08430D1F4809180008F7D3F
:1011A00003C0809180008F7780938000089584B57C
:1011B0008F7702C084B58F7D84BD08958091B00083
:1011C0008F7703C08091B0008F7D8093B000089529
:1011D000009769F0FC0101900020E9F73197AF0119
:1011E000481B590BBC0183E493E00C94E80080E0B9
:1011F00090E008958F929F92AF92BF920F931F93AA
:10120000CF93DF93CDB7DEB7A1970FB6F894DEBFCB
:101210000FBECDBF19A2423008F44AE08E010F5D27
:101220001F4F842E912CA12CB12CA50194010E945A
:101230006814E62FB901CA0101501109EA3014F40B
:10124000E05D01C0E95CD801EC93232B242B252B16
:1012500061F7C8010E94E808A1960FB6F894DEBFB6
:101260000FBECDBFDF91CF911F910F91BF90AF9077
:101270009F908F900895CF93DF93AB01672B61F41C
:10128000E0914303F09144030190F081E02D682F39
:1012900083E493E0099506C0682F70E080E090E059
:1012A0000E94FA08EC0188E292E00E94E8088C0FA4
:1012B0009D1FDF91CF9108958EBD0DB407FEFDCF28
:1012C0008EB508950C94E80828E732E030930101C8
:1012D00020930001E9E6F0E090819C7F892B8083D8
:1012E000E89A0895CF93C82F8130A1F0823021F57C
:1012F00040E16DE088E294E00E94810540912D0478
:101300004F546EE088E294E00E94810540912E04E3
:101310004A5723C042E26DE088E294E00E948105D2
:1013200040912D044F546EE088E294E00E948105C4
:1013300040912E04455C11C041E26DE088E294E0EA
:101340000E94810540912D044E596EE088E294E0A0
:101350000E94810540912E044A586FE088E294E093
:101360000E948105C0932C04CF910895CF93DF9301
:101370000E94E808EC0188E292E00E94E8088C0FE5
:101380009D1FDF91CF910895E0914303F0914403B5
:101390000190F081E02D682F83E493E00994CF92CF
:1013A000DF92FF920F931F93CF93DF93CDB7DEB7FA
:1013B00082E08093290488E294E00E94760500E0B0
:1013C00010E00F5F1F4F093E83E0180781F140ECEA
:1013D00065E388E294E00E946205982F9F719D303A
:1013E00041F52FC02A9A65E388E294E00E946E05D9
:1013F00082E08093290440EC65E388E294E00E9457
:1014000062058F718351833008F449C066E388E236
:1014100094E00E946E056BE388E294E00E946E0502
:1014200088E294E00E94760581E08093290410E030
:1014300055C0813131F66AE388E294E00E946E057E
:10144000C0CF083E134099F38BEC97E00197F1F77A
:1014500083E50E94C4098AE30E94C4098AE292E0FB
:101460000E94B609FA844F2D6FE388E294E00E944F
:1014700081052A981C99FECF8FE70E945C096E01B6
:10148000EBE0CE0ED11C8601802F8C198F1508F051
:10149000A9CFF80181918F010E945C09F5CF4A9B89
:1014A000FECF4A99FECF40EC6AE388E294E00E94C6
:1014B00062058F7711E009F010E066E388E294E0BE
:1014C0000E946E056BE388E294E00E946E0588E25C
:1014D00094E00E94760581E080932904812FDF91BA
:1014E000CF911F910F91FF90DF90CF900895CF93F0
:1014F000DF93CDB7DEB7C154D1090FB6F894DEBF84
:101500000FBECDBF96E099836A83909132049B838E
:101510001C824D838E832F838DB79EB78154910992
:101520000FB6F8949EBF0FBE8DBFADB7BEB7119674
:1015300081E4FE01319601900D928A95E1F70E94B7
:10154000CF090FB6F894DEBF0FBECDBFCF5BDF4F24
:101550000FB6F894DEBF0FBECDBFDF91CF910895D7
:10156000CF92DF92EF92FF92CF93DF936C01990FAE
:10157000EE08FF08F7FE12C08DE20E94C409EC01DC
:1015800066277727CB016C197D098E099F094AE0F0
:101590000E94FA087C01EC0EFD1E06C04AE0C7015D
:1015A000B6010E94FA087C0188E292E00E94E808F5
:1015B0008E0D9F1DDF91CF91FF90EF90DF90CF9028
:1015C0000895CF93DF93282F30E0F901EC59FE4FB7
:1015D0008491F901E05BFE4FD491F901E45CFE4F88
:1015E000C491CC2391F081110E94BF08EC2FF0E050
:1015F000EE0FFF1FEE5CFE4FA591B491EC91ED2331
:1016000081E090E021F480E002C080E090E0DF9192
:10161000CF9108951F93CF93DF93282F30E0F901E6
:10162000EC59FE4F8491F901E05BFE4FD491F90132
:10163000E45CFE4FC491CC23C9F0162F81110E94A7
:10164000BF08EC2FF0E0EE0FFF1FE85DFE4FA59105
:10165000B4918FB7F894111105C09C91ED2FE095CE
:10166000E92302C0EC91ED2BEC938FBFDF91CF917A
:101670001F910895CF93DF9390E0FC01E05BFE4F54
:101680002491FC01E45CFE4F8491882361F190E099
:10169000880F991FFC01E25EFE4FC591D491FC01B9
:1016A000E85DFE4FA591B491611109C09FB7F89410
:1016B0008881209582238883EC912E230BC0623091
:1016C00061F49FB7F8943881822F809583238883B3
:1016D000EC912E2B2C939FBF06C08FB7F894E88116
:1016E0002E2B28838FBFDF91CF9108958F929F92E9
:1016F000AF92BF92CF92DF92EF92FF926B017C018B
:101700000E94B00B4B015C01C114D104E104F1044F
:10171000F1F00E94B00BDC01CB0188199909AA09EC
:10172000BB09883E9340A105B10570F321E0C21AC0
:10173000D108E108F10888EE880E83E0981EA11C0C
:10174000B11CC114D104E104F10419F7DDCFFF90FD
:10175000EF90DF90CF90BF90AF909F908F900895C3
:101760003FB7F8948091630490916404A09165045C
:10177000B091660426B5A89B05C02F3F19F00196CD
:10178000A11DB11D3FBFBA2FA92F982F8827820F07
:10179000911DA11DB11DBC01CD0142E0660F771F57
:1017A000881F991F4A95D1F708951F920F920FB67F
:1017B0000F9211242F933F938F939F93AF93BF93D7
:1017C00080915F0490916004A0916104B0916204E3
:1017D00030915E0423E0230F2D3720F40196A11DE4
:1017E000B11D05C026E8230F0296A11DB11D20934F
:1017F0005E0480935F0490936004A0936104B093AF
:1018000062048091630490916404A0916504B09196
:1018100066040196A11DB11D809363049093640436
:10182000A0936504B0936604BF91AF919F918F918F
:101830003F912F910F900FBE0F901F901895CF934F
:10184000DF93CDB7DEB7C254D1090FB6F894DEBF2F
:101850000FBECDBF789484B5826084BD84B58160AD
:1018600084BD85B5826085BD85B5816085BD80916B
:101870006E00816080936E001092810080918100E3
:1018800082608093810080918100816080938100DB
:10189000809180008160809380008091B10084609D
:1018A0008093B1008091B00081608093B0008091FE
:1018B0007A00846080937A0080917A0082608093BD
:1018C0007A0080917A00816080937A0080917A001A
:1018D000806880937A001092C100E0915303F091E8
:1018E000540382E08083E0915303F091540310820B
:1018F000E0914F03F09150031082E0915103F09179
:10190000520380E1808310925B03E0915703F091D2
:10191000580386E08083E0915503F091560380815F
:1019200080618083E0915503F09156038081886047
:101930008083E0915503F091560380818068808315
:10194000E0915503F091560380818F7D808361E0A3
:1019500084E00E943A0B0E94FC07E091660020910F
:101960008000309181008FE38093660010926F00B9
:101970001092700080E28093B60010928000109266
:10198000B00081E08093B10080938100B09A109202
:1019900085001092840080E444E650E060E070E04E
:1019A000F1E08150A9F1B89A1092B2009091B6007E
:1019B000937191F0B09BFACFB09A1092850010927B
:1019C0008400415051096109710981F71092B600F4
:1019D000E093660080E02DC0F093810010928500B6
:1019E00010928400B89BFECF10928100A0918400D9
:1019F000B0918500A735B44F20F0909166009150CA
:101A000015C0A0918400B0918500A23FB34F58F05B
:101A10001092B600B89A1092B200209380003093D2
:101A2000810081E006C0909166009F5F9093660000
:101A3000B8CF8093270461E08AE00E940A0B61E03E
:101A40008AE00E943A0B61E08BE00E943A0B60E072
:101A50008CE00E943A0B61E08DE00E943A0B61E05D
:101A60008DE00E940A0B60E08BE00E940A0B81E58A
:101A70008CBD60E082E00E943A0B2A9A8FE090E0F1
:101A80000197F1F72A9883E290E00197F1F72A9AFB
:101A90008FE990E00197F1F72A981C99FECF80E337
:101AA0000E945C091C99FECF2A9A49E260E088E214
:101AB00094E00E9481054EE261E088E294E00E9499
:101AC000810546E062E088E294E00E94810547E0FB
:101AD00063E088E294E00E9481054FEF66E088E2CF
:101AE00094E00E94810546E067E088E294E00E946D
:101AF000810545E068E088E294E00E94810520E0ED
:101B000047E465EB88E294E00E94360640E06FEF20
:101B100088E294E00E94960580912F04882341F08A
:101B200040E06AE088E294E00E94810510922F0470
:101B300048E06BE088E294E00E94810540E06CE0C0
:101B400088E294E00E94810582E00E9472094AECDA
:101B500060E188E294E00E94810543E861E188E267
:101B600094E00E94810543E962E188E294E00E94EA
:101B7000810542E263E188E294E00E94810548EF3A
:101B800064E188E294E00E94810545E365E188E232
:101B900094E00E94810547E066E188E294E00E94BB
:101BA000810540E267E188E294E00E94810548E116
:101BB00068E188E294E00E94810546E169E188E2FB
:101BC00094E00E9481054CE66AE188E294E00E947C
:101BD000810543E46BE188E294E00E94810540E4E2
:101BE0006CE188E294E00E94810541E96DE188E2C0
:101BF00094E00E94810547E86EE188E294E00E944B
:101C000081054BE66FE188E294E00E9481054BEF8D
:101C100060E288E294E00E94810546E561E288E2A4
:101C200094E00E94810540E162E288E294E00E9433
:101C3000810549EE63E288E294E00E9481054AE270
:101C400064E288E294E00E94810540E065E288E277
:101C500094E00E9481054FE166E288E294E00E94F0
:101C6000810541E467E288E294E00E94810540E05A
:101C700068E288E294E00E94810549E569E288E231
:101C800094E00E9481054FE76AE288E294E00E94B6
:101C900081054FE36BE288E294E00E94810541E810
:101CA0006CE288E294E00E94810545E36DE288E2FF
:101CB00094E00E94810549E06EE288E294E00E948F
:101CC000810586E090E00E94600580932D0487E006
:101CD00090E00E94600580932E0480E090E00E94D6
:101CE0006005182F8A3060F480912F04811741F02D
:101CF000412F6AE088E294E00E94810510932F044E
:101D000082E090E00E946005682F83E090E02396D7
:101D10006FAF23970E94600523966FAD23979FEFC7
:101D2000960F9E3F20F09FEF980F9E3F30F420E0EB
:101D3000482F88E294E00E94360684E090E00E94FA
:101D40006005882331F040E0682F88E294E00E942B
:101D5000960540912A046EE388E294E00E94810592
:101D600080912E048F3FD1F480912D048F3FB1F4E8
:101D700088E792E00E94B60910922D0410922E047A
:101D800060E086E090E00E944A1460E087E090E026
:101D90000E944A1480912C040E94720921E047E4B9
:101DA00065EB88E294E00E94360684E090E00E94B1
:101DB000421440E0682F88E294E00E94960582E099
:101DC0000E94720944E067E088E294E00E94810585
:101DD00085E090E00E9442148093390486E090E010
:101DE0000E94421480933A0483EC90E00197F1F74B
:101DF00088E294E00E94760582E090E00E94640907
:101E00001092350483E0809336040E94100581E926
:101E100092E00E94620940EC60E388E294E00E9454
:101E20006205682F70E080E090E04AE00E94FA08C6
:101E300084EA92E00E94620940EC61E388E294E067
:101E40000E9462056AE070E00E943B09F8941092DB
:101E5000CD021092CC021092CB021092CA0214BE94
:101E6000109280001092810081EA97E0909389009F
:101E700080938800809181008860809381008091A8
:101E800081008160809381008091810081608093D6
:101E900081008091810084608093810080916F0037
:101EA000826080936F00789461E085E00E943A0B35
:101EB00061E086E00E943A0B61E08FE00E943A0BFD
:101EC00061E083E00E943A0B61E080E10E943A0BFE
:101ED00060E088E00E943A0B61E088E00E940A0B13
:101EE00060E087E00E943A0B61E087E00E940A0B05
:101EF0000E94320761E084E00E940A0B84E0809334
:101F0000CD0280916F00826080936F001092200458
:101F100017E02AEDA22E22E0B22E02E038EC732E5A
:101F20007E01A9E0EA0EF11C6E01B2E0CB0ED11CDD
:101F300080912304837011F40E943207809123045E
:101F40008A3020F0109223040E94FC0783E493E07F
:101F50000E944801892B09F4B4C083E493E00E94F5
:101F6000260118160CF0ADC08D3031F0803209F426
:101F7000A8C08A30D1F4A5C08090D8029090D90230
:101F80001092D9021092D80280E20E94C40988E21D
:101F900092E00E94E808181419040CF092C0909185
:101FA000EA024091EB0280E027C02091D8023091F4
:101FB000D9022230310564F4A9014F5F5F4F50937D
:101FC000D9024093D802F901E651FD4F808311C038
:101FD0002131310574F4A90146525D4FFA0132975F
:101FE0008083319610822F5F3F4F3093D902209328
:101FF000D8020E94C40965C0882E912C189DF0015A
:10200000199DF00D1124EC5EFE4F2081291303C0B1
:102010002181241779F08F5F189FF0011124EC5E65
:10202000FE4F23813481232B39F785EC92E00E9407
:10203000B60947C08091DA02811109C01092CF021F
:102040001092CE021092D1021092D00222C0BA8217
:10205000A98268EA72E0CE0101960E94271440E04E
:1020600050E060E070E00E940D137093CF02609327
:10207000CE0268EA72E0CE0101960E94271440E089
:1020800050E060E070E00E940D137093D102609305
:10209000D00261E084E00E940A0B0093CD0280919F
:1020A0006F00826080936F0010922004189DF001F1
:1020B000199DF00D1124EC5EFE4F0380F481E02D9C
:1020C00009958091D602882341F040E061E08DEFD0
:1020D00093E00E941B051092D6022091D502222384
:1020E00039F040E061E084E00E94770A1092D50266
:1020F0008091D3029091D4020097E1F00E9462098E
:102100008CEA92E00E9462096091FC0370E080E03A
:1021100090E04AE00E94FA0885EB92E00E94620992
:102120006AE070E08091D2020E943B091092D402D2
:102130001092D3028091D702811108C07092D70209
:1021400040E061E082EE93E00E941B058091240450
:10215000882309F425C1109237048BEB92E00E948A
:1021600062091092240462E070E080E090E00E9436
:10217000760B40EC6BE388E294E00E94620587FFF7
:1021800005C08DEB92E00E9462093BC0882359F0A4
:1021900040E86FE388E294E00E946205982E89830C
:1021A000EDE3E81710F419822CC02A981C99FECF91
:1021B0008FEF0E945C092601842D8C19891538F453
:1021C00080E00E945C09D2018D932D01F5CF2A9AFF
:1021D00040E86FE388E294E00E94620521968FAFA9
:1021E000219740E86FE388E294E00E946205982F0F
:1021F0009F7722969FAF2297982F991F9927991F13
:102200009FAF66E388E294E00E946E056AE388E28D
:1022100094E00E946E0588E294E00E947605898130
:10222000882309F4B9C09FAD911104C081E0809367
:102230003704B6C090913B03911103C091E0909395
:102240003B033A816B819C815D812E814F81E885C2
:10225000875030932D0360932E03692F62956F7022
:1022600060932F0350933003209331034093320344
:10227000E0933303F0923503E09234038093360306
:10228000492F41704093370396959170909338038E
:102290001092390310923A03332309F452C09091FB
:1022A000320439134EC0213009F108F443C0223002
:1022B000D1F5EB30D0F5F0E0EE0FFF1FEF59FE4FF8
:1022C000808091808114910481F1F40193818913BC
:1022D0002EC00680F781E02D309759F1B701D40167
:1022E0008C910995282F811125C015C0EB3010F570
:1022F000F0E0EE0FFF1FEF59FE4F808091808114B8
:102300009104C1F0D4011496ED91FC91159730978A
:1023100011F08C9109954091300360912E03C40116
:102320000E941B050EC022E005C021E003C025E08D
:1023300001C027E04091300360912E0383E00E94AA
:10234000770A82E50E94C4098AE30E94C4098AE2EE
:1023500092E00E94B60940EC64E388E294E00E94B7
:102360006205682F70E087FD7A95072E000C880BB8
:10237000990B0E949E1520E030E040E05FE30E9450
:102380002A1620E030E044E952E40E9400150E9441
:102390006D156093380404C085EC92E00E94B60984
:1023A000912C9394B5E69B1649F140EC65E388E2E5
:1023B00094E00E946205982F9F719D3091F4E4E6AD
:1023C0009E16E1F082E090E00E9464098091210471
:1023D000882321F080912004811118C00E94E80117
:1023E000A7CD813129F46AE388E294E00E946E056A
:1023F00064E388E294E00E946E05D3CF8FEB92E015
:102400000E94B609E0E0F0E00994DCCF60E084E0EF
:102410000E940A0B0E94100583B7816083BF81E090
:1024200090E00E94640983B7817F846083BFF89441
:1024300085B7806685BF8F7D85BF7894889583B783
:102440008E7F83BFCBCFE3E4F3E01382128288EE6A
:1024500093E0A0E0B0E084839583A683B7838BE705
:1024600091E09183808385EC90E09587848784EC6C
:1024700090E09787868780EC90E0918B808B81EC51
:1024800090E0938B828B82EC90E0958B848B86EC32
:1024900090E0978B868B118E128E138E148EEDE149
:1024A000F4E080EC8587178E168E118610861782D1
:1024B0001382148216821282158280915D04E5E5F2
:1024C000F4E080832CE031E03283218398E0938331
:1024D0001582148217821682EDE4F4E091E0980FE1
:1024E000908328E031E03283218394E09383158246
:1024F000148217821682E5E4F4E022E0280F20839C
:1025000024E031E032832183938315821482178281
:102510001682EDE3F4E093E0980F90832FE234E02D
:102520003283218391E093831582148225EC36E077
:1025300037832683E5E1F4E024E0280F208320E3BD
:1025400034E03283218322E023831582148248E61B
:1025500056E057834683EDE0F4E035E0380F3083F2
:1025600042E354E05283418393831582148247EB04
:1025700055E057834683E5E0F4E036E0380F3083DA
:1025800049E354E0528341832383158214824EE54C
:1025900053E057834683EDEFF3E037E0380F3083A5
:1025A0004CEF53E052834183938347EB52E05583D2
:1025B00044834CEF52E057834683E4EFF3E038E086
:1025C000380F308343EF53E0528341839383158266
:1025D000148244EC52E057834683EBEEF3E039E09B
:1025E000380F30836AEE73E07283618393831582C0
:1025F0001482578346839BE0980F90935D04E2EE2C
:10260000F3E0865F808380EE93E09283818323836F
:1026100015821482178216820895A0E0B0E0E3E1EB
:10262000F3E10C9495145C016B017A01611571055D
:1026300019F0FB0191838083E114F10429F0C701B3
:102640000297839708F0F1C0E5012196F50110810A
:10265000812F90E00E941E14892B11F05E01F4CFAF
:102660001D3229F42196F501118101E007C01B32CA
:1026700021F4E5012296F501118100E0E114F10455
:1026800059F1F0E1EF16F10461F41033E1F48881BF
:102690008F7D883569F519812296026070E1E72EF9
:1026A000F12C88E0E816F10439F12CF4F2E0EF1691
:1026B000F104C9F12AC08AE0E816F10479F0E0E1FA
:1026C000EE16F10411F550E1E52EF12C812C912C40
:1026D000A12C68E0B62E2CC01033C9F23AE0E32EEC
:1026E000F12C4CEC842E982CA82C4CE0B42E20C05D
:1026F00010E3E114F104A9F698E0E92EF12C812C05
:10270000912CA12C20E1B22E13C060E070E080E09B
:1027100090E897010F2C000C440B550B0E94681495
:1027200049015A0105C0812C912CA12C80E4B82EBE
:1027300060E020E030E0A90127010F2C000C6608C2
:1027400077081E01E0EDE10FEA3060F08FEB810FBA
:102750008A3110F4E9EC05C08FE9810F8A3128F540
:10276000E9EAE10F8E2F90E08E159F05F4F467FDE6
:1027700018C082169306A406B50690F0C301B201F4
:102780000E9458149B01AC012E0F311D411D511D9B
:10279000213031054105F0E85F0710F461E001C028
:1027A0006FEF2196F1011081CCCF802F8170C11481
:1027B000D10471F0662329F02197F601D183C083FB
:1027C00007C001FF19C02297F601D183C08314C04E
:1027D00067FF12C0811105C02FEF3FEF4FEF5FE79A
:1027E00004C020E030E040E050E882E290E09093C6
:1027F00068048093670416C0882341F05095409583
:10280000309521953F4F4F4F5F4F0CC057FF0AC087
:1028100082E290E090936804809367042FEF3FEF8B
:102820004FEF5FE7B901CA0104C060E070E080E0EB
:1028300090E0CDB7DEB7E2E10C94B11491110C94A5
:102840003F14803219F089508550C8F70895FC0173
:10285000A081B181AD01109681F03D91FB01019005
:1028600003160110E1F7C9F7002011F4D00102C0EE
:102870001E921196FC01A083B183CA010895992785
:1028800088270895F999FECF92BD81BDF89A9927BE
:1028900080B50895262FF999FECF1FBA92BD81BD4C
:1028A00020BD0FB6F894FA9AF99A0FBE01960895D2
:1028B000DB018F939F930E948A14BF91AF91A29FD7
:1028C000800D911DA39F900DB29F900D112408952E
:1028D000A1E21A2EAA1BBB1BFD010DC0AA1FBB1F24
:1028E000EE1FFF1FA217B307E407F50720F0A21B96
:1028F000B30BE40BF50B661F771F881F991F1A9403
:1029000069F760957095809590959B01AC01BD012C
:10291000CF0108950E94CC14A59F900DB49F900DF7
:10292000A49F800D911D112408952F923F924F92E4
:102930005F926F927F928F929F92AF92BF92CF924F
:10294000DF92EF92FF920F931F93CF93DF93CDB758
:10295000DEB7CA1BDB0B0FB6F894DEBF0FBECDBFD0
:1029600009942A88398848885F846E847D848C84A1
:102970009B84AA84B984C884DF80EE80FD800C81AA
:102980001B81AA81B981CE0FD11D0FB6F894DEBF8D
:102990000FBECDBFED010895A29FB001B39FC0014E
:1029A000A39F700D811D1124911DB29F700D811D7B
:1029B0001124911D0895052E97FB1EF400940E948A
:1029C000F21457FD07D00E94681407FC03D04EF4A0
:1029D0000C94F21450954095309521953F4F4F4FF0
:1029E0005F4F089590958095709561957F4F8F4FBB
:1029F0009F4F0895EE0FFF1F0590F491E02D09946D
:102A00005058BB27AA270E9418150C94F0150E9455
:102A1000E21538F00E94E91520F039F49F3F19F4CF
:102A200026F40C94DF150EF4E095E7FB0C94D91511
:102A3000E92F0E94011658F3BA176207730784073B
:102A4000950720F079F4A6F50C9423160EF4E09582
:102A50000B2EBA2FA02D0B01B90190010C01CA0158
:102A6000A0011124FF27591B99F0593F50F4503E03
:102A700068F11A16F040A22F232F342F4427585FF5
:102A8000F3CF469537952795A795F0405395C9F70D
:102A90007EF41F16BA0B620B730B840BBAF09150C5
:102AA000A1F0FF0FBB1F661F771F881FC2F70EC064
:102AB000BA0F621F731F841F48F487957795679537
:102AC000B795F7959E3F08F0B0CF9395880F08F023
:102AD0009927EE0F9795879508950E94091688F01B
:102AE0009F5798F0B92F9927B751B0F0E1F0660FD2
:102AF000771F881F991F1AF0BA95C9F714C0B13013
:102B000091F00E942316B1E008950C942316672FCC
:102B1000782F8827B85F39F0B93FCCF38695779541
:102B20006795B395D9F73EF490958095709561952A
:102B30007F4F8F4F9F4F0895E89409C097FB3EF455
:102B400090958095709561957F4F8F4F9F4F9923FA
:102B5000A9F0F92F96E9BB279395F6958795779578
:102B60006795B795F111F8CFFAF4BB0F11F460FF38
:102B70001BC06F5F7F4F8F4F9F4F16C0882311F090
:102B800096E911C0772321F09EE8872F762F05C0A4
:102B9000662371F096E8862F70E060E02AF09A953F
:102BA000660F771F881FDAF7880F9695879597F934
:102BB000089597F99F6780E870E060E008959FEFBF
:102BC00080EC089500240A941616170618060906C4
:102BD000089500240A941216130614060506089593
:102BE000092E0394000C11F4882352F0BB0F40F41B
:102BF000BF2B11F460FF04C06F5F7F4F8F4F9F4F5B
:102C0000089557FD9058440F551F59F05F3F71F0DC
:102C10004795880F97FB991F61F09F3F79F0879543
:102C20000895121613061406551FF2CF4695F1DFCC
:102C300008C0161617061806991FF1CF869571055C
:102C4000610508940895E894BB2766277727CB0190
:102C500097F908950E943D160C94F0150E94E21514
:102C600038F00E94E91520F0952311F00C94D91545
:102C70000C94DF1511240C9424160E94011670F395
:102C8000959FC1F3950F50E0551F629FF001729F11
:102C9000BB27F00DB11D639FAA27F00DB11DAA1F20
:102CA000649F6627B00DA11D661F829F2227B00D6D
:102CB000A11D621F739FB00DA11D621F839FA00DF8
:102CC000611D221F749F3327A00D611D231F849F48
:102CD000600D211D822F762F6A2F11249F5750409F
:102CE0009AF0F1F088234AF0EE0FFF1FBB1F661F1A
:102CF000771F881F91505040A9F79E3F510580F0E3
:102D00000C94D9150C9424165F3FE4F3983ED4F349
:102D1000869577956795B795F795E7959F5FC1F786
:102D2000FE2B880F911D9695879597F9089581E060
:0C2D300090E0F8940C949C16F894FFCFEF
:102D3C00E700E700000001010000020000000001B4
:102D4C0000000001726500190400006673009E0308
:102D5C00000073610010060000646400270400008A
:102D6C00706900CC030000616100450400007374BD
:102D7C00003F080000736C00C4030000707500ED88
:102D8C000200003F3F00340400000000000000007F
:102D9C000055044D0445043D0415040D040504FDC3
:102DAC0003F403EB03E203000000007F01E80017CB
:102DBC0001C601480126013A0147455420535441AC
:102DCC005420005353522053544154200050756CDE
:102DDC007365206D6F746F7220756E69740052513B
:102DEC0020535441543A00204143543A0043485232
:102DFC004720004F4E004F46460052737420746FAC
:102E0C0020666163746F727900536C656570206D18
:102E1C006F6465206163746976650050696E670044
:102E2C0053656E74005265626F6F74005253542078
:102E3C005251004462672000496E76616C696420CF
:102E4C00616464720053657420726164696F2061FF
:102E5C0064647220746F20000D0A00535441542096
:102E6C0043480043683A00204D3A00206D3A004D2B
:102E7C00415243205354415445200052535349204E
:102E8C00004C514920002009707374617420004477
:102E9C0065766963652061646472657373200042B2
:102EAC0041545420006D5600526573657474696EFC
:102EBC00672066726571207265677320746F2030AD
:102ECC00000A5354415254200A20434331313031CB
:102EDC0020502000205620002E2C200020537461FE
:102EEC0074653A200020657870200021005E003F58
:082EFC0053544154453F00000E
:00000001FF
