:100000000C945D000C94F9010C94D2010C948500C1
:100010000C9485000C9485000C9482020C9485004D
:100020000C9485000C9478020C9485000C94850047
:100030000C9485000C9485000C9485000C9485002C
:100040000C9461090C9485000C9446020C942002D7
:100050000C9485000C9485000C9485000C9485000C
:100060000C9485000C9485000000000024002700FB
:100070002A0000000000250028002B0004040404CE
:100080000404040402020202020203030303030342
:10009000010204081020408001020408102001021F
:1000A00004081020000000080002010000030407FB
:1000B0000000000000000000B50E11241FBECFEFAD
:1000C000D8E0DEBFCDBF11E0A0E0B1E0ECEFFFE192
:1000D00002C005900D92A03EB107D9F723E0A0EE33
:1000E000B1E001C01D92A939B207E1F710E0CDE5FA
:1000F000D0E004C02197FE010E94F10FCC35D1075A
:10010000C9F70E94AB090C94FC0F0C9400000895F1
:10011000CF92DF92EF92FF920F931F93CF93DF93D3
:100120006C017A018B01C0E0D0E0CE15DF0589F0CB
:10013000D8016D918D01D601ED91FC910190F08176
:10014000E02DC6010995892B11F47E0102C021968C
:10015000ECCFC701DF91CF911F910F91FF90EF90EE
:10016000DF90CF900895089580E090E00895FC011D
:10017000538D448D252F30E0842F90E0821B930B0C
:10018000541710F0CF96089501970895FC01918DB2
:10019000828D981761F0828DDF01A80FB11D5D96E9
:1001A0008C91928D9F5F9F73928F90E008958FEF57
:1001B0009FEF0895FC01918D828D981731F0828D0B
:1001C000E80FF11D858D90E008958FEF9FEF089562
:1001D000FC01918D228D892F90E0805C9F4F821BC6
:1001E00091098F739927089581E892E00E94E800B1
:1001F00021E0892B09F420E0822F0895FC01848DF1
:10020000DF01A80FB11DA35ABF4F2C91848D90E040
:1002100001968F739927848FA689B7892C93A0891B
:10022000B1898C9180648C93938D848D981306C0D2
:100230000288F389E02D80818F7D80830895EF927D
:10024000FF920F931F93CF93DF93EC0181E0888F90
:100250009B8D8C8D981305C0E889F989808185FD77
:1002600024C0F62E0B8D10E00F5F1F4F0F73112768
:10027000E02E8C8DE8120CC00FB607FCFACFE8898F
:10028000F989808185FFF5CFCE010E94FE00F1CF74
:100290008B8DFE01E80FF11DE35AFF4FF0820B8FAB
:1002A000EA89FB898081806207C0EE89FF896083CB
:1002B000E889F98980818064808381E090E0DF9122
:1002C000CF911F910F91FF90EF900895CF93DF93FF
:1002D000EC01888D8823C9F0EA89FB89808185FD3E
:1002E00005C0A889B9898C9186FD0FC00FB607FC9F
:1002F000F5CF808185FFF2CFA889B9898C9185FFE0
:10030000EDCFCE010E94FE00E7CFDF91CF9108959F
:1003100080E090E0892B29F00E94F40081110C9478
:100320000000089583B78E7F83BFE89887E890E048
:10033000909302018093010181E080935C03089512
:1003400008950895089508950E94F70F862F2A981A
:100350001C99FECF0E94E7072A9A0895CF93DF9356
:10036000EB01E0914303F09144039881808198135D
:1003700004C099818181981791F088819981909327
:100380006E0380936D03688185E090E00E94A20F68
:10039000698186E090E0DF91CF910C94A20FDF910C
:1003A000CF9108951F920F920FB60F9211242F93A1
:1003B0003F934F935F936F937F938F939F93AF93ED
:1003C000BF93EF93FF93E0910301F091040109952E
:1003D000FF91EF91BF91AF919F918F917F916F911D
:1003E0005F914F913F912F910F900FBE0F901F90F3
:1003F00018951F920F920FB60F9211242F933F93CF
:100400004F935F936F937F938F939F93AF93BF931C
:10041000EF93FF93E0910101F09102010995FF91A3
:10042000EF91BF91AF919F918F917F916F915F916C
:100430004F913F912F910F900FBE0F901F901895E5
:100440001F920F920FB60F9211242F933F934F9349
:100450005F936F937F938F939F93AF93BF93EF932C
:10046000FF9381E892E00E94FE00FF91EF91BF911F
:10047000AF919F918F917F916F915F914F913F913C
:100480002F910F900FBE0F901F9018951F920F92F3
:100490000FB60F9211242F938F939F93EF93FF9397
:1004A000E0919102F09192028081E0919702F091A7
:1004B000980282FD12C0908180919A028F5F8F73A3
:1004C00020919B02821751F0E0919A02F0E0EF57E1
:1004D000FD4F958F80939A0201C08081FF91EF912B
:1004E0009F918F912F910F900FBE0F901F90189595
:1004F0001F920F920FB60F9211240F900FBE0F9004
:100500001F9018951F920F920FB60F9211248F9380
:10051000EF93FF93E6E5F3E085818F5F8583FF919D
:10052000EF918F910F900FBE0F901F9018950C9424
:10053000A20F0C949A0FCF93DF93EC0164E30E9417
:10054000A60181E08983DF91CF910895CF93DF9356
:100550001F92CDB7DEB7862F2A981C99FECF49830C
:100560000E94E7074981842F0E94E7072A9A0F908B
:10057000DF91CF9108956F927F929F92AF92BF9239
:10058000CF92DF92EF92FF920F931F93CF93DF935F
:10059000CDB7DEB7C258D1090FB6F894DEBF0FBE93
:1005A000CDBFFC01E65BFF4F408157E0D52ED40E56
:1005B0003997208124962FAF249731962081259654
:1005C0002FAF25973196208150E1259F900111246E
:1005D00026962FAF26973196208127962FAF279703
:1005E0003196208128962FAF289731962081299621
:1005F0002FAF2997319620812A962FAF2A9762E450
:1006000070E06C0F7D1F685F7F4F20E030E0319617
:10061000241758F4A081B181A20FB31F8C91DB0184
:100620008D93BD012F5F3F4FF3CF93E0C92E21E49F
:10063000922E32E0B32E4BECE42E47E0F42E8E01E6
:100640000E5F1F4FAA24A3942396DFAE2397FE01CB
:10065000EE5BFF4FDE011196892D01900D928A9578
:10066000E1F7B092610380E693E00E949B02612C67
:10067000712CBFEF6B1A7B0AE9EE6E16E3E07E0683
:1006800059F160EC85E30E94ED07982F9F719D3032
:1006900009F072C032C02A9A65E380E693E00E94B6
:1006A000A601B092610360EC85E30E94ED078F71B3
:1006B0008351833008F441C066E380E693E00E94F2
:1006C000A6016BE380E693E00E94A60180E693E03A
:1006D0000E949B02A0926103CA94CC2061F06091B9
:1006E0006A0370E0660F771F072E000C880B990BCA
:1006F0000E942709A9CF80E048C0B8EE6B16B3E08E
:100700007B0651F3C7010197F1F74D2D6FE380E6AA
:1007100093E00E94A6022A981C99FECF8FE70E94C0
:10072000E7073801862D801B8D1508F0B4CFD30163
:100730008D913D010E94E707F5CF4A9BFECF4A9974
:10074000FECF60EC8AE30E94ED07782E66E380E638
:1007500093E00E94A6016BE380E693E00E94A6016D
:1007600080E693E00E949B02A0926103872D8F7721
:1007700009F0B2CF81E009C0813109F07ACF6AE394
:1007800080E693E00E94A60174CF91E090936C0301
:10079000CE57DF4F0FB6F894DEBF0FBECDBFDF914F
:1007A000CF911F910F91FF90EF90DF90CF90BF906E
:1007B000AF909F907F906F900895CF93DF93CDB7C8
:1007C000DEB7CB54D1090FB6F894DEBF0FBECDBF54
:1007D000FC01978125813681448123961FAE2397A2
:1007E000E6E5F3E0848924968FAF249725961FAE23
:1007F0002597558926965FAF269727961FAE279790
:1008000028968FAF289729964FAF29972C969FAFA0
:100810002C972B963FAF2EAF2B97CE0101960E94BF
:10082000BB02C55BDF4F0FB6F894DEBF0FBECDBF76
:10083000DF91CF910895CF92DF92EF92FF920F93C5
:100840001F93CF93DF93CDB7DEB7C154D1090FB655
:10085000F894DEBF0FBECDBFE89887E890E0909394
:1008600002018093010180916103813009F0A3C1ED
:1008700090917002911102C08093700260EC8BE342
:100880000E94ED07982F9F7759F087FD09C060E817
:100890008FE30E94ED07182F8093E4018E3318F048
:1008A0001092E4012BC02A981C99FECF8FEF0E9472
:1008B000E70735EEC32E31E0D32E76018E2D8C194D
:1008C000811738F480E00E94E707D7018D937D01FE
:1008D000F5CF2A9A60E88FE30E94ED078093230208
:1008E00060E88FE30E94ED07982F9F779093240292
:1008F000982F991F9927991F9093220266E380E60B
:1009000093E00E94A6016AE380E693E00E94A601BC
:1009100080E693E00E949B028091E401882309F421
:100920004AC180912202882309F441C181E4E4EEA6
:10093000F1E0DE01119601900D928A95E1F72A818E
:100940007B818C8182958F706D815E814F8138852E
:100950009981975020936602709367028093680292
:100960006093690250936A0240936B0230936C0269
:10097000AE01475F5F4F50936E0240936D029093BC
:100980006F0200915D0310915E030115110509F4DA
:100990009FC0F801EF55FF4F9081992309F498C04B
:1009A00090916A03291709F493C0F801908189177F
:1009B00008F08EC03896980128553F4F908180915D
:1009C0006B02981335C0DF0113979C9180916A02E6
:1009D00098132EC012969C9180916902981328C09A
:1009E0004FB7F894C0907D02D0907E02E0907F02D5
:1009F000F09080024FBFC092E001D092E101E092FE
:100A0000E201F092E301AF0147505109DA014D9143
:100A10005D916D917C91D701C601841B950BA60B4E
:100A2000B70B803D9740A105B10510F4109200016D
:100A30003896E217F30711F680910001882309F434
:100A400047C060916A0360936702809168028F5F7C
:100A50008093680270E0660F771F072E000C880BEA
:100A6000990B0E94270985E292E00E94BB0288232D
:100A700079F1D801A756BF4F98012F5F3F4F48E04B
:100A8000CD010897FC01542F01900D925A95E1F782
:100A9000DC0182179307A1F72FB7F89480917D02AC
:100AA00090917E02A0917F02B09180022FBFF80149
:100AB00081839283A383B48380916A02858380912A
:100AC0006702868380916902878380916B028087A9
:100AD00080916A028130A9F108F45FC0823009F088
:100AE0006AC08091660290916A03891364C09091F4
:100AF0006B02891360C0E0916C02EB3008F05BC0C0
:100B0000F0E0EE0FFF1FEB5EFE4F0081118101153B
:100B1000110509F450C090916F02D80117968C917D
:100B20001797981336C060916D0270916E021296FD
:100B3000ED91FC911397309761F114968C91099582
:100B400028C080916602811105C090916C029923A2
:100B500029F031C090916A0389132DC090916B02E6
:100B6000891329C0E0916C02EB3028F5F0E0EE0F1C
:100B7000FF1FEB5EFE4F0081118101151105D9F0B9
:100B8000D801ED91FC911197309719F014968C9142
:100B90000995C8010E94DD030EC0E0916F03F0913A
:100BA0007003309741F085E292E0099504C08DE32F
:100BB00091E00E94D70762E070E08BE194E00E9430
:100BC0009308CF5BDF4F0FB6F894DEBF0FBECDBFEB
:100BD000DF91CF911F910F91FF90EF90DF90CF9019
:100BE00008951F93CF93DF93EC01162F613079F0B6
:100BF0006230D1F440E16DE00E94A6024D814F5475
:100C00006EE0CE010E94A6024E814A5719C042E210
:100C10006DE00E94A6024D814F546EE0CE010E940D
:100C2000A6024E81455C0CC041E26DE00E94A60226
:100C30004D814E596EE0CE010E94A6024E814A5867
:100C40006FE0CE010E94A6021C83DF91CF911F911D
:100C500008950F931F93CF93DF93FC0127812617ED
:100C6000A1F0D42FC62F8C01462F6AE00E94A60265
:100C7000F801C783DD2349F06C2F80E090E0DF911D
:100C8000CF911F910F910C949702DF91CF911F91FB
:100C90000F9108950F931F93CF93DF93CDB7DEB7D6
:100CA000CB54D1090FB6F894DEBF0FBECDBFE09193
:100CB0007603F0917703DB019C918081981709F40A
:100CC00048C08B01909178032091750323961FAE45
:100CD000239780916A0324968FAF249725961FAEA1
:100CE000259730916B0326963FAF269727961FAE28
:100CF000279728968FAF289729962FAF29972C965C
:100D00009FAF2C972B967FAF6EAF2B97CE0101969E
:100D10000E94BB0241E0F801608180E693E00E94FE
:100D2000290610926C030FB6F894A8958091600084
:100D3000886180936000109260000FBE98E088E1A7
:100D40000FB6F894A895809360000FBE9093600052
:100D5000FFCFC55BDF4F0FB6F894DEBF0FBECDBF30
:100D6000DF91CF911F910F910895FF920F931F93E1
:100D7000CF93DF93EC018885861303C089858417A0
:100D800001F1F22E142F062F462F64E0CE010E94AF
:100D9000A602412F65E0CE010E94A60208871987AE
:100DA000FF2079F0602F82E090E00E949702612F8F
:100DB00083E090E0DF91CF911F910F91FF900C9411
:100DC0009702DF91CF911F910F91FF9008950F939C
:100DD0001F93CF93DF93CDB7DEB7CB54D1090FB6B6
:100DE000F894DEBF0FBECDBFE0915303F0915403E2
:100DF000DB019C918081981305C011969C918181A3
:100E0000981789F18B0190915503209152032396F5
:100E10001FAE239780916A0324968FAF249725965F
:100E20001FAE259730916B0326963FAF26972796E6
:100E30001FAE279728968FAF289729962FAF29970F
:100E40002C969FAF2C972B967FAF6EAF2B97CE0132
:100E500001960E94BB0221E0F8014181608180E699
:100E600093E00E94B506C55BDF4F0FB6F894DEBF76
:100E70000FBECDBFDF91CF911F910F9108950F93BA
:100E80001F93CF93DF93CDB7DEB7CB54D1090FB605
:100E9000F894DEBF0FBECDBFFB018081882309F42B
:100EA00043C0E0914B03F0914C0390818917E1F12D
:100EB0008B0190914D0320914A0323961FAE2397F7
:100EC00080916A0324968FAF249725961FAE2597AD
:100ED00030916B0326963FAF269727961FAE279734
:100EE00028968FAF289729962FAF29972C969FAFDA
:100EF0002C972B967FAF6EAF2B97CE0101960E9459
:100F0000BB02F801108180916A03811769F0412FBB
:100F100069E080E693E00E94A60210936A03612FC5
:100F200084E090E00E949702C55BDF4F0FB6F89413
:100F3000DEBF0FBECDBFDF91CF911F910F910895FE
:100F40003FB7F8948091920390919303A0919403FA
:100F5000B091950326B5A89B05C02F3F19F00196C7
:100F6000A11DB11D3FBFBA2FA92F982F8827820F2F
:100F7000911DA11DB11DBC01CD0142E0660F771F7F
:100F8000881F991F4A95D1F70895009769F0FC01D1
:100F900001900020E9F73197AF01481B590BBC01C4
:100FA00081E892E00C94880080E090E00895CF936F
:100FB000DF930E94C507EC018CED91E00E94C5070C
:100FC0008C0F9D1FDF91CF9108950C94C5078EBDA6
:100FD0000DB407FEFDCF8EB50895862B2A981C9977
:100FE000FECF0E94E70780E00E94E7072A9A089553
:100FF0008F929F92AF92BF920F931F93CF93DF93E5
:10100000CDB7DEB7A1970FB6F894DEBF0FBECDBF48
:1010100019A2423008F44AE08E010F5D1F4F842E62
:10102000912CA12CB12CA50194010E94B00FE62FA8
:10103000B901CA0101501109EA3014F4E05D01C0A0
:10104000E95CD801EC93232B242B252B61F7C801F5
:101050000E94C507A1960FB6F894DEBF0FBECDBFA4
:10106000DF91CF911F910F91BF90AF909F908F9084
:101070000895CF92DF92EF92FF92CF93DF936C01AE
:10108000990FEE08FF08F7FE1AC0E0918102F09177
:1010900082020190F081E02D6DE281E892E00995F5
:1010A000EC0166277727CB016C197D098E099F0912
:1010B0004AE00E94F8077C01EC0EFD1E06C04AE0E3
:1010C000C701B6010E94F8077C018CED91E00E94F7
:1010D000C5078E0D9F1DDF91CF91FF90EF90DF90A0
:1010E000CF900895CF93DF93AB01672B61F4E0912C
:1010F0008102F09182020190F081E02D682F81E859
:1011000092E0099506C0682F70E080E090E00E94B0
:10111000F807EC018CED91E00E94C5078C0F9D1F34
:10112000DF91CF9108959093020180930101E9E648
:10113000F0E080818C7F682B6083E89A089590E0CE
:10114000FC01EC55FF4F3491FC01E057FF4F249117
:10115000FC01E458FF4FE491EE2309F43BC0332334
:1011600039F1333091F038F43130A9F0323001F5F3
:1011700084B58F7D12C0373091F03830A1F0343013
:10118000B9F4809180008F7D03C0809180008F77BB
:10119000809380000DC084B58F7784BD09C0809195
:1011A000B0008F7703C08091B0008F7D8093B00036
:1011B000F0E0EE0FFF1FEE58FF4FA591B4918FB7EF
:1011C000F894EC91611103C020952E2301C02E2BC1
:1011D0002C938FBF0895CF93DF9390E0FC01E057ED
:1011E000FF4F2491FC01E458FF4F8491882361F163
:1011F00090E0880F991FFC01E859FF4FC591D491E9
:10120000FC01EE58FF4FA591B491611109C09FB741
:10121000F8948881209582238883EC912E230BC03B
:10122000623061F49FB7F8943881822F80958323D0
:101230008883EC912E2B2C939FBF06C08FB7F89418
:10124000E8812E2B28838FBFDF91CF9108958F9255
:101250009F92AF92BF92CF92DF92EF92FF926B017B
:101260007C010E94A0074B015C01C114D104E10480
:10127000F104F1F00E94A007DC01CB018819990963
:10128000AA09BB09883E9340A105B10570F321E08E
:10129000C21AD108E108F10888EE880E83E0981E92
:1012A000A11CB11CC114D104E104F10419F7DDCF74
:1012B000FF90EF90DF90CF90BF90AF909F908F9076
:1012C00008951F920F920FB60F9211242F933F9300
:1012D0008F939F93AF93BF9380917D0290917E02F5
:1012E000A0917F02B09180023091910323E0230FFF
:1012F0002D3720F40196A11DB11D05C026E8230F4E
:101300000296A11DB11D2093910380937D029093BD
:101310007E02A0937F02B09380028091920390910D
:101320009303A0919403B09195030196A11DB11D63
:101330008093920390939303A0939403B0939503A7
:10134000BF91AF919F918F913F912F910F900FBEC1
:101350000F901F901895CF93DF93CDB7DEB7CC5485
:10136000D1090FB6F894DEBF0FBECDBF789484B517
:10137000826084BD84B5816084BD85B5826085BD91
:1013800085B5816085BD80916E00816080936E001F
:101390001092810080918100826080938100809111
:1013A00081008160809381008091800081608093C2
:1013B00080008091B10084608093B1008091B00082
:1013C00081608093B00080917A00846080937A007D
:1013D00080917A00826080937A0080917A008160A7
:1013E00080937A0080917A00806880937A001092CE
:1013F000C100E0919102F091920282E08083E0913D
:101400009102F09192021082E0918D02F0918E0291
:101410001082E0918F02F091900280E1808310921F
:101420009902E0919502F091960286E08083E09126
:101430009302F0919402808180618083E091930215
:10144000F0919402808188608083E0919302F09112
:101450009402808180688083E0919302F0919402ED
:1014600080818F7D808361E084E00E94EB0860E0F2
:1014700084E00E949F0861E084E00E949F086EE182
:1014800070E080E090E00E94270960E084E00E9424
:101490009F0864E170E080E090E00E94270961E02D
:1014A00084E00E949F086EE170E080E090E00E947E
:1014B000270960E084E00E949F0864E170E080E01A
:1014C00090E00E942709E091660020918000309111
:1014D00081008FE38093660010926F00109270007D
:1014E00080E28093B600109280001092B00081E0FC
:1014F0008093B10080938100B09A10928500109281
:10150000840080E444E650E060E070E0F1E0815067
:10151000A9F1B89A1092B2009091B600937191F02F
:10152000B09BFACFB09A109285001092840041507F
:1015300051096109710981F71092B600E0936600C4
:1015400080E02DC0F09381001092850010928400FD
:10155000B89BFECF10928100A0918400B0918500CD
:10156000A735B44F20F090916600915015C0A0911E
:101570008400B0918500A23FB34F58F01092B6009E
:10158000B89A1092B200209380003093810081E0DD
:1015900006C0909166009F5F90936600B8CF8093DD
:1015A0005F0361E08AE00E949F0861E08AE00E9498
:1015B000EB0861E08BE00E94EB0860E08CE00E94A9
:1015C000EB0861E08DE00E94EB0861E08DE00E9495
:1015D0009F0860E08BE00E949F0881E58CBD60E081
:1015E00082E00E94EB082A9A8FE090E00197F1F7E1
:1015F0002A9883E290E00197F1F72A9A8FE990E028
:101600000197F1F72A981C99FECF80E30E94E70723
:101610001C99FECF2A9A49E260E080E693E00E949E
:10162000A6024EE261E080E693E00E94A60246E058
:1016300062E080E693E00E94A60247E063E080E675
:1016400093E00E94A6024FEF66E080E693E00E94DE
:10165000A60246E067E080E693E00E94A60245E02D
:1016600068E080E693E00E94A60220E047E465EB94
:1016700080E693E00E94B50680916A038F3F49F0AF
:101680004FEF69E080E693E00E94A6028FEF80931F
:101690006A0340E060E080E693E00E94290648E0AB
:1016A0006BE080E693E00E94A60240E06CE080E6FA
:1016B00093E00E94A60260E080E693E00E94F105BC
:1016C0004AEC60E180E693E00E94A60243E861E113
:1016D00080E693E00E94A60243E962E180E693E09F
:1016E0000E94A60242E263E180E693E00E94A60225
:1016F00048EF64E180E693E00E94A60245E365E1DD
:1017000080E693E00E94A60247E066E180E693E06F
:101710000E94A60240E267E180E693E00E94A602F2
:1017200048E168E180E693E00E94A60246E169E1B3
:1017300080E693E00E94A6024CE66AE180E693E030
:101740000E94A60243E46BE180E693E00E94A602B9
:1017500040E46CE180E693E00E94A60241E96DE17D
:1017600080E693E00E94A60247E86EE180E693E0FF
:101770000E94A6024BE66FE180E693E00E94A6027B
:101780004BEF60E280E693E00E94A60246E561E24C
:1017900080E693E00E94A60240E162E280E693E0E8
:1017A0000E94A60249EE63E280E693E00E94A60250
:1017B0004AE264E280E693E00E94A60240E065E22D
:1017C00080E693E00E94A6024FE166E280E693E0A5
:1017D0000E94A60241E467E280E693E00E94A6022E
:1017E00040E068E280E693E00E94A60249E569E2F3
:1017F00080E693E00E94A6024FE76AE280E693E06B
:101800000E94A6024FE36BE280E693E00E94A602EC
:1018100041E86CE280E693E00E94A60245E36DE2B7
:1018200080E693E00E94A60249E06EE280E693E043
:101830000E94A60286E090E00E94990280936503D0
:1018400087E090E00E9499028093660380E090E038
:101850000E9499028A3030F440E0682F80E693E0DD
:101860000E94290682E090E00E949902682F83E09E
:1018700090E02D966FAF2D970E9499022D966FAD37
:101880002D979FEF960F9E3F20F09FEF980F9E3F62
:1018900030F420E0482F80E693E00E94B50684E013
:1018A00090E00E949902182F882361F080916A03CA
:1018B000811741F0412F69E080E693E00E94A60283
:1018C00010936A03409162036EE380E693E00E9406
:1018D000A602809166038F3FE1F4809165038F3FFC
:1018E000C1F485E491E00E94E5071092650310922F
:1018F000660360E086E090E00E94970260E087E087
:1019000090E00E9497026091640380E693E00E9459
:10191000F10521E047E465EB80E693E00E94B5061F
:1019200080916A038F3F49F04FEF69E080E693E0D2
:101930000E94A6028FEF80936A0362E080E693E044
:101940000E94F10544E067E080E693E00E94A60271
:1019500085E090E00E949A0F80936D0386E090E00E
:101960000E949A0F80936E0383EC90E00197F1F749
:1019700080E693E00E949B0262E070E08BE194E0DD
:101980000E94930810926B0383E080936C038EE5B2
:1019900091E00E94E50760EC80E30E94ED076AE0B9
:1019A00070E00E9472088EE691E00E94E50760EC0C
:1019B00081E30E94ED076AE070E00E9472088EE702
:1019C00091E00E94E50760EC85E30E94ED078F71CE
:1019D00090E00E94390880E991E00E94D7071EE458
:1019E00094EBC92E9BE2D92E91E1E92EF12C05E072
:1019F00080915B038A3008F446C010925B0388E94B
:101A000091E00E94E50710937C0062E070E080E0C6
:101A100090E00E94270980917A00806480937A0088
:101A200080917A0086FDFCCF20917800809179002A
:101A300030E0382B032E000C440B550BC701B601C8
:101A40000E94D20F243080E138074105510554F03F
:101A500086EA91E00E94E50782EB91E00E94D707B9
:101A600060E00EC02D3A3D404105510564F486EA20
:101A700091E00E94E50786EB91E00E94D70761E0C4
:101A800080E10E949F0881E892E00E94E800181619
:101A900019060CF02CC181E892E00E94C6008B323E
:101AA000910521F4809165038F5F06C08D32910509
:101AB00049F48091650381508093650381E08093B0
:101AC0007B02D6C08633910521F4809166038F5F37
:101AD00006C08433910531F4809166038150809370
:101AE0006603ECCF8833910521F4609167036F5F43
:101AF00006C08233910561F460916703615041E053
:101B000080E693E00E94290681E080937A02B0C0CB
:101B100083379105B1F523961FAE239780916A0311
:101B200024968FAF249725961FAE259780916B033F
:101B300026968FAF269781E027968FAF2797289616
:101B40001FAE289729960FAF29972B961FAE1EAE72
:101B50002B972C961FAE2C97CE0101960E94BB02AC
:101B60008DE0B82EBA94BB2009F482C080916C033A
:101B7000823009F47DC0E0915603F0915703099536
:101B8000F1CF8936910509F473C08137910521F4AD
:101B900081E0809359036CC08737910519F4109246
:101BA000590366C084369105D1F410927902809170
:101BB00079028F3208F05CC060E80E94ED076AE0AD
:101BC00070E00E94720864E070E080E090E00E94A3
:101BD0002709809179028F5F80937902E8CF8D3653
:101BE000910549F460EC85E30E94ED078F7190E068
:101BF0000E9439083DC08037910539F490917802F0
:101C000081E089278093780233C08237910581F57E
:101C100089EB91E00E94E50760EC84E30E94ED0708
:101C200087FD80958695865B682F70E080E090E068
:101C30004AE00E94F8078FEB91E00E94E50760EC14
:101C400083E30E94ED078095682F6F7370E080E05A
:101C500090E04AE00E94F80785EC91E00E94E507D9
:101C600060EC88E30E94ED0762E070E00E94720879
:101C700080917A02882361F010927A028EEC91E0D2
:101C80000E94E5076AE070E0809167030E94720895
:101C900080917B02882359F1B090660360916503BF
:101CA00086E090E00E9497026B2D87E090E00E9412
:101CB00097026091640380E693E00E94F105109220
:101CC0007B0284ED91E00E94E5076091650370E07E
:101CD00080E090E040E10E94F80788ED91E00E94EA
:101CE000E50760E170E0809166030E9472088091D0
:101CF0007C02882341F06CE271E080E090E00E9479
:101D0000270910927C0262E070E08BE194E00E946F
:101D1000930880915903882329F18091600088619C
:101D20008093600086E08093600080916000806412
:101D30008093600083B7816083BF61E070E082E9D7
:101D400091E00E94930883B7817F846083BFF894F9
:101D500085B7806685BF8F7D85BF7894889583B76A
:101D60008E7F83BF0E94880143CEE1E8F2E01382B8
:101D7000128288EE93E0A0E0B0E084839583A6838E
:101D8000B7838FE291E09183808385EC90E0958723
:101D9000848784EC90E09787868780EC90E0918B35
:101DA000808B81EC90E0938B828B82EC90E0958B22
:101DB000848B86EC90E0978B868B118E128E138E1F
:101DC000148EE6E5F3E088EC8487128E118E10867F
:101DD000178216821382158212821482E9E8F3E0D8
:101DE00011821082138212828091980384832DE0E5
:101DF00031E03683258398E09783E1E8F3E01182B0
:101E000010821382128291E0980F948329E031E0CE
:101E10003683258394E09783E9E7F3E0118210820B
:101E20001382128222E0280F248325E031E03683DA
:101E300025839783E1E7F3E0118210822AE436E0FC
:101E40003383228393E0980F948327E633E036832D
:101E5000258321E02783EEE4F3E01182108247EE30
:101E600056E05383428394E0980F948348E653E00E
:101E70005683458392E09783E6E4F3E01182108273
:101E80004FE357E05383428335E0380F34834AE60B
:101E900053E0568345832783EEE3F3E011821082FB
:101EA0002EEA31E03383228326E0280F24832DE6B7
:101EB00033E0368325839783E6E3F3E023EA31E0DA
:101EC000318320831382128227E0280F248326E99E
:101ED00033E0368325839783EEE2F3E042EA51E074
:101EE000518340831382128248E0480F4483368333
:101EF00025839783E6E2F3E041EA51E05183408392
:101F00001382128249E0480F4483368325839783E6
:101F1000EEE1F3E040EA51E0518340831382128204
:101F20004BE0480F40939803865F84833683258374
:101F300097830895F999FECF92BD81BDF89A9927AC
:101F400080B50895262FF999FECF1FBA92BD81BDA5
:101F500020BD0FB6F894FA9AF99A0FBE019608952B
:101F6000A1E21A2EAA1BBB1BFD010DC0AA1FBB1F9D
:101F7000EE1FFF1FA217B307E407F50720F0A21B0F
:101F8000B30BE40BF50B661F771F881F991F1A947C
:101F900069F760957095809590959B01AC01BD01A6
:101FA000CF010895052E97FB1EF400940E94E90FBF
:101FB00057FD07D00E94B00F07FC03D04EF40C94DD
:101FC000E90F50954095309521953F4F4F4F5F4F0A
:101FD000089590958095709561957F4F8F4F9F4F95
:101FE0000895EE0FFF1F0590F491E02D099481E014
:0C1FF00090E0F8940C94FC0FF894FFCFE4
:101FFC0001870087000000010100000200000000C2
:10200C00010000000189038103790371034E03462B
:10201C00033E0336032E0326031E03000000001F9D
:10202C00018800B7006601E800C600DA004352439D
:10203C002045525200526573657474696E67206650
:10204C00726571207265677320746F203000434392
:10205C00313130315F504152544E554D2000434385
:10206C00313130315F56455253494F4E2000434376
:10207C00313130315F4D415243535441544520006E
:10208C004E6F206164647200436B20626174742033
:10209C0073746174650042204348415247494E476E
:1020AC0020004F4646004F4E005253534920000922
:1020BC004C514920002009707374617420004368EE
:1020CC00616E2000204D3A00206D3A000D0A000090
:00000001FF
